{
	"SimpleDex.sol": {
		"SimpleDEX": {
			"abi": [
				{
					"inputs": [
						{
							"internalType": "address",
							"name": "_tokenA",
							"type": "address"
						},
						{
							"internalType": "address",
							"name": "_tokenB",
							"type": "address"
						}
					],
					"stateMutability": "nonpayable",
					"type": "constructor"
				},
				{
					"inputs": [],
					"name": "InsufficientAmount",
					"type": "error"
				},
				{
					"inputs": [],
					"name": "InsufficientLiquidity",
					"type": "error"
				},
				{
					"inputs": [],
					"name": "InvalidToken",
					"type": "error"
				},
				{
					"inputs": [
						{
							"internalType": "address",
							"name": "owner",
							"type": "address"
						}
					],
					"name": "OwnableInvalidOwner",
					"type": "error"
				},
				{
					"inputs": [
						{
							"internalType": "address",
							"name": "account",
							"type": "address"
						}
					],
					"name": "OwnableUnauthorizedAccount",
					"type": "error"
				},
				{
					"inputs": [],
					"name": "ReentrancyGuardReentrantCall",
					"type": "error"
				},
				{
					"inputs": [],
					"name": "TransferFailed",
					"type": "error"
				},
				{
					"inputs": [],
					"name": "ZeroAmount",
					"type": "error"
				},
				{
					"anonymous": false,
					"inputs": [
						{
							"indexed": true,
							"internalType": "address",
							"name": "provider",
							"type": "address"
						},
						{
							"indexed": false,
							"internalType": "uint256",
							"name": "amountA",
							"type": "uint256"
						},
						{
							"indexed": false,
							"internalType": "uint256",
							"name": "amountB",
							"type": "uint256"
						}
					],
					"name": "LiquidityAdded",
					"type": "event"
				},
				{
					"anonymous": false,
					"inputs": [
						{
							"indexed": true,
							"internalType": "address",
							"name": "provider",
							"type": "address"
						},
						{
							"indexed": false,
							"internalType": "uint256",
							"name": "amountA",
							"type": "uint256"
						},
						{
							"indexed": false,
							"internalType": "uint256",
							"name": "amountB",
							"type": "uint256"
						}
					],
					"name": "LiquidityRemoved",
					"type": "event"
				},
				{
					"anonymous": false,
					"inputs": [
						{
							"indexed": true,
							"internalType": "address",
							"name": "previousOwner",
							"type": "address"
						},
						{
							"indexed": true,
							"internalType": "address",
							"name": "newOwner",
							"type": "address"
						}
					],
					"name": "OwnershipTransferred",
					"type": "event"
				},
				{
					"anonymous": false,
					"inputs": [
						{
							"indexed": true,
							"internalType": "address",
							"name": "token",
							"type": "address"
						},
						{
							"indexed": false,
							"internalType": "uint256",
							"name": "price",
							"type": "uint256"
						}
					],
					"name": "PriceUpdated",
					"type": "event"
				},
				{
					"anonymous": false,
					"inputs": [
						{
							"indexed": true,
							"internalType": "address",
							"name": "user",
							"type": "address"
						},
						{
							"indexed": false,
							"internalType": "address",
							"name": "tokenIn",
							"type": "address"
						},
						{
							"indexed": false,
							"internalType": "address",
							"name": "tokenOut",
							"type": "address"
						},
						{
							"indexed": false,
							"internalType": "uint256",
							"name": "amountIn",
							"type": "uint256"
						},
						{
							"indexed": false,
							"internalType": "uint256",
							"name": "amountOut",
							"type": "uint256"
						}
					],
					"name": "TokensSwapped",
					"type": "event"
				},
				{
					"inputs": [],
					"name": "FEE_DENOMINATOR",
					"outputs": [
						{
							"internalType": "uint256",
							"name": "",
							"type": "uint256"
						}
					],
					"stateMutability": "view",
					"type": "function"
				},
				{
					"inputs": [],
					"name": "FEE_PERCENT",
					"outputs": [
						{
							"internalType": "uint256",
							"name": "",
							"type": "uint256"
						}
					],
					"stateMutability": "view",
					"type": "function"
				},
				{
					"inputs": [
						{
							"internalType": "uint256",
							"name": "amountA",
							"type": "uint256"
						},
						{
							"internalType": "uint256",
							"name": "amountB",
							"type": "uint256"
						}
					],
					"name": "addLiquidity",
					"outputs": [],
					"stateMutability": "nonpayable",
					"type": "function"
				},
				{
					"inputs": [],
					"name": "emergencyWithdraw",
					"outputs": [],
					"stateMutability": "nonpayable",
					"type": "function"
				},
				{
					"inputs": [
						{
							"internalType": "address",
							"name": "tokenIn",
							"type": "address"
						},
						{
							"internalType": "uint256",
							"name": "amountIn",
							"type": "uint256"
						}
					],
					"name": "getAmountOut",
					"outputs": [
						{
							"internalType": "uint256",
							"name": "amountOut",
							"type": "uint256"
						}
					],
					"stateMutability": "view",
					"type": "function"
				},
				{
					"inputs": [
						{
							"internalType": "address",
							"name": "_token",
							"type": "address"
						}
					],
					"name": "getPrice",
					"outputs": [
						{
							"internalType": "uint256",
							"name": "price",
							"type": "uint256"
						}
					],
					"stateMutability": "view",
					"type": "function"
				},
				{
					"inputs": [],
					"name": "getReserves",
					"outputs": [
						{
							"internalType": "uint256",
							"name": "_reserveA",
							"type": "uint256"
						},
						{
							"internalType": "uint256",
							"name": "_reserveB",
							"type": "uint256"
						}
					],
					"stateMutability": "view",
					"type": "function"
				},
				{
					"inputs": [],
					"name": "owner",
					"outputs": [
						{
							"internalType": "address",
							"name": "",
							"type": "address"
						}
					],
					"stateMutability": "view",
					"type": "function"
				},
				{
					"inputs": [
						{
							"internalType": "uint256",
							"name": "amountA",
							"type": "uint256"
						},
						{
							"internalType": "uint256",
							"name": "amountB",
							"type": "uint256"
						}
					],
					"name": "removeLiquidity",
					"outputs": [],
					"stateMutability": "nonpayable",
					"type": "function"
				},
				{
					"inputs": [],
					"name": "renounceOwnership",
					"outputs": [],
					"stateMutability": "nonpayable",
					"type": "function"
				},
				{
					"inputs": [],
					"name": "reserveA",
					"outputs": [
						{
							"internalType": "uint256",
							"name": "",
							"type": "uint256"
						}
					],
					"stateMutability": "view",
					"type": "function"
				},
				{
					"inputs": [],
					"name": "reserveB",
					"outputs": [
						{
							"internalType": "uint256",
							"name": "",
							"type": "uint256"
						}
					],
					"stateMutability": "view",
					"type": "function"
				},
				{
					"inputs": [
						{
							"internalType": "uint256",
							"name": "amountAIn",
							"type": "uint256"
						}
					],
					"name": "swapAforB",
					"outputs": [],
					"stateMutability": "nonpayable",
					"type": "function"
				},
				{
					"inputs": [
						{
							"internalType": "uint256",
							"name": "amountBIn",
							"type": "uint256"
						}
					],
					"name": "swapBforA",
					"outputs": [],
					"stateMutability": "nonpayable",
					"type": "function"
				},
				{
					"inputs": [],
					"name": "tokenA",
					"outputs": [
						{
							"internalType": "contract IERC20",
							"name": "",
							"type": "address"
						}
					],
					"stateMutability": "view",
					"type": "function"
				},
				{
					"inputs": [],
					"name": "tokenB",
					"outputs": [
						{
							"internalType": "contract IERC20",
							"name": "",
							"type": "address"
						}
					],
					"stateMutability": "view",
					"type": "function"
				},
				{
					"inputs": [
						{
							"internalType": "address",
							"name": "newOwner",
							"type": "address"
						}
					],
					"name": "transferOwnership",
					"outputs": [],
					"stateMutability": "nonpayable",
					"type": "function"
				}
			],
			"devdoc": {
				"errors": {
					"OwnableInvalidOwner(address)": [
						{
							"details": "The owner is not a valid owner account. (eg. `address(0)`)"
						}
					],
					"OwnableUnauthorizedAccount(address)": [
						{
							"details": "The caller account is not authorized to perform an operation."
						}
					],
					"ReentrancyGuardReentrantCall()": [
						{
							"details": "Unauthorized reentrant call."
						}
					]
				},
				"kind": "dev",
				"methods": {
					"addLiquidity(uint256,uint256)": {
						"details": "Añadir liquidez al pool",
						"params": {
							"amountA": "Cantidad de TokenA a depositar",
							"amountB": "Cantidad de TokenB a depositar"
						}
					},
					"emergencyWithdraw()": {
						"details": "Función de emergencia para retirar todos los tokens (solo owner)"
					},
					"getAmountOut(address,uint256)": {
						"details": "Calcular cuántos tokens de salida se obtendrán para una cantidad de entrada dada",
						"params": {
							"amountIn": "Cantidad del token de entrada",
							"tokenIn": "Dirección del token de entrada"
						},
						"returns": {
							"amountOut": "Cantidad estimada del token de salida"
						}
					},
					"getPrice(address)": {
						"details": "Obtener el precio de un token en términos del otro",
						"params": {
							"_token": "Dirección del token del cual obtener el precio"
						},
						"returns": {
							"price": "Precio del token (multiplicado por 1e18 para precisión)"
						}
					},
					"getReserves()": {
						"details": "Obtener las reservas actuales del pool",
						"returns": {
							"_reserveA": "Reserva actual de TokenA",
							"_reserveB": "Reserva actual de TokenB"
						}
					},
					"owner()": {
						"details": "Returns the address of the current owner."
					},
					"removeLiquidity(uint256,uint256)": {
						"details": "Retirar liquidez del pool",
						"params": {
							"amountA": "Cantidad de TokenA a retirar",
							"amountB": "Cantidad de TokenB a retirar"
						}
					},
					"renounceOwnership()": {
						"details": "Leaves the contract without owner. It will not be possible to call `onlyOwner` functions. Can only be called by the current owner. NOTE: Renouncing ownership will leave the contract without an owner, thereby disabling any functionality that is only available to the owner."
					},
					"swapAforB(uint256)": {
						"details": "Intercambiar TokenA por TokenB",
						"params": {
							"amountAIn": "Cantidad de TokenA a intercambiar"
						}
					},
					"swapBforA(uint256)": {
						"details": "Intercambiar TokenB por TokenA",
						"params": {
							"amountBIn": "Cantidad de TokenB a intercambiar"
						}
					},
					"transferOwnership(address)": {
						"details": "Transfers ownership of the contract to a new account (`newOwner`). Can only be called by the current owner."
					}
				},
				"version": 1
			},
			"evm": {
				"assembly": "    /* \"SimpleDex.sol\":236:8434  contract SimpleDEX is Ownable, ReentrancyGuard {... */\n  mstore(0x40, 0x80)\n    /* \"SimpleDex.sol\":1130:1443  constructor(address _tokenA, address _tokenB) Ownable(msg.sender) {... */\n  callvalue\n  dup1\n  iszero\n  tag_1\n  jumpi\n  revert(0x00, 0x00)\ntag_1:\n  pop\n  mload(0x40)\n  sub(codesize, bytecodeSize)\n  dup1\n  bytecodeSize\n  dup4\n  codecopy\n  dup2\n  dup2\n  add\n  0x40\n  mstore\n  dup2\n  add\n  swap1\n  tag_2\n  swap2\n  swap1\n  tag_3\n  jump\t// in\ntag_2:\n    /* \"SimpleDex.sol\":1184:1194  msg.sender */\n  caller\n    /* \"@openzeppelin/contracts/access/Ownable.sol\":1297:1298  0 */\n  0x00\n    /* \"@openzeppelin/contracts/access/Ownable.sol\":1273:1299  initialOwner == address(0) */\n  0xffffffffffffffffffffffffffffffffffffffff\n  and\n    /* \"@openzeppelin/contracts/access/Ownable.sol\":1273:1285  initialOwner */\n  dup2\n    /* \"@openzeppelin/contracts/access/Ownable.sol\":1273:1299  initialOwner == address(0) */\n  0xffffffffffffffffffffffffffffffffffffffff\n  and\n  sub\n    /* \"@openzeppelin/contracts/access/Ownable.sol\":1269:1364  if (initialOwner == address(0)) {... */\n  tag_8\n  jumpi\n    /* \"@openzeppelin/contracts/access/Ownable.sol\":1350:1351  0 */\n  0x00\n    /* \"@openzeppelin/contracts/access/Ownable.sol\":1322:1353  OwnableInvalidOwner(address(0)) */\n  mload(0x40)\n  0x1e4fbdf700000000000000000000000000000000000000000000000000000000\n  dup2\n  mstore\n  0x04\n  add\n  tag_9\n  swap2\n  swap1\n  tag_10\n  jump\t// in\ntag_9:\n  mload(0x40)\n  dup1\n  swap2\n  sub\n  swap1\n  revert\n    /* \"@openzeppelin/contracts/access/Ownable.sol\":1269:1364  if (initialOwner == address(0)) {... */\ntag_8:\n    /* \"@openzeppelin/contracts/access/Ownable.sol\":1373:1405  _transferOwnership(initialOwner) */\n  tag_11\n    /* \"@openzeppelin/contracts/access/Ownable.sol\":1392:1404  initialOwner */\n  dup2\n    /* \"@openzeppelin/contracts/access/Ownable.sol\":1373:1391  _transferOwnership */\n  shl(0x20, tag_12)\n    /* \"@openzeppelin/contracts/access/Ownable.sol\":1373:1405  _transferOwnership(initialOwner) */\n  0x20\n  shr\n  jump\t// in\ntag_11:\n    /* \"@openzeppelin/contracts/access/Ownable.sol\":1225:1412  constructor(address initialOwner) {... */\n  pop\n    /* \"@openzeppelin/contracts/utils/ReentrancyGuard.sol\":1857:1858  1 */\n  0x01\n    /* \"@openzeppelin/contracts/utils/ReentrancyGuard.sol\":2061:2068  _status */\n  dup1\n    /* \"@openzeppelin/contracts/utils/ReentrancyGuard.sol\":2061:2082  _status = NOT_ENTERED */\n  dup2\n  swap1\n  sstore\n  pop\n    /* \"SimpleDex.sol\":1234:1235  0 */\n  0x00\n    /* \"SimpleDex.sol\":1215:1236  _tokenA != address(0) */\n  0xffffffffffffffffffffffffffffffffffffffff\n  and\n    /* \"SimpleDex.sol\":1215:1222  _tokenA */\n  dup3\n    /* \"SimpleDex.sol\":1215:1236  _tokenA != address(0) */\n  0xffffffffffffffffffffffffffffffffffffffff\n  and\n  eq\n  iszero\n    /* \"SimpleDex.sol\":1215:1261  _tokenA != address(0) && _tokenB != address(0) */\n  dup1\n  iszero\n  tag_15\n  jumpi\n  pop\n    /* \"SimpleDex.sol\":1259:1260  0 */\n  0x00\n    /* \"SimpleDex.sol\":1240:1261  _tokenB != address(0) */\n  0xffffffffffffffffffffffffffffffffffffffff\n  and\n    /* \"SimpleDex.sol\":1240:1247  _tokenB */\n  dup2\n    /* \"SimpleDex.sol\":1240:1261  _tokenB != address(0) */\n  0xffffffffffffffffffffffffffffffffffffffff\n  and\n  eq\n  iszero\n    /* \"SimpleDex.sol\":1215:1261  _tokenA != address(0) && _tokenB != address(0) */\ntag_15:\n    /* \"SimpleDex.sol\":1207:1289  require(_tokenA != address(0) && _tokenB != address(0), \"Invalid token addresses\") */\n  tag_16\n  jumpi\n  mload(0x40)\n  0x08c379a000000000000000000000000000000000000000000000000000000000\n  dup2\n  mstore\n  0x04\n  add\n  tag_17\n  swap1\n  tag_18\n  jump\t// in\ntag_17:\n  mload(0x40)\n  dup1\n  swap2\n  sub\n  swap1\n  revert\ntag_16:\n    /* \"SimpleDex.sol\":1319:1326  _tokenB */\n  dup1\n    /* \"SimpleDex.sol\":1308:1326  _tokenA != _tokenB */\n  0xffffffffffffffffffffffffffffffffffffffff\n  and\n    /* \"SimpleDex.sol\":1308:1315  _tokenA */\n  dup3\n    /* \"SimpleDex.sol\":1308:1326  _tokenA != _tokenB */\n  0xffffffffffffffffffffffffffffffffffffffff\n  and\n  sub\n    /* \"SimpleDex.sol\":1300:1355  require(_tokenA != _tokenB, \"Tokens must be different\") */\n  tag_19\n  jumpi\n  mload(0x40)\n  0x08c379a000000000000000000000000000000000000000000000000000000000\n  dup2\n  mstore\n  0x04\n  add\n  tag_20\n  swap1\n  tag_21\n  jump\t// in\ntag_20:\n  mload(0x40)\n  dup1\n  swap2\n  sub\n  swap1\n  revert\ntag_19:\n    /* \"SimpleDex.sol\":1392:1399  _tokenA */\n  dup2\n    /* \"SimpleDex.sol\":1376:1382  tokenA */\n  0x02\n  0x00\n    /* \"SimpleDex.sol\":1376:1400  tokenA = IERC20(_tokenA) */\n  0x0100\n  exp\n  dup2\n  sload\n  dup2\n  0xffffffffffffffffffffffffffffffffffffffff\n  mul\n  not\n  and\n  swap1\n  dup4\n  0xffffffffffffffffffffffffffffffffffffffff\n  and\n  mul\n  or\n  swap1\n  sstore\n  pop\n    /* \"SimpleDex.sol\":1427:1434  _tokenB */\n  dup1\n    /* \"SimpleDex.sol\":1411:1417  tokenB */\n  0x03\n  0x00\n    /* \"SimpleDex.sol\":1411:1435  tokenB = IERC20(_tokenB) */\n  0x0100\n  exp\n  dup2\n  sload\n  dup2\n  0xffffffffffffffffffffffffffffffffffffffff\n  mul\n  not\n  and\n  swap1\n  dup4\n  0xffffffffffffffffffffffffffffffffffffffff\n  and\n  mul\n  or\n  swap1\n  sstore\n  pop\n    /* \"SimpleDex.sol\":1130:1443  constructor(address _tokenA, address _tokenB) Ownable(msg.sender) {... */\n  pop\n  pop\n    /* \"SimpleDex.sol\":236:8434  contract SimpleDEX is Ownable, ReentrancyGuard {... */\n  jump(tag_22)\n    /* \"@openzeppelin/contracts/access/Ownable.sol\":2912:3099  function _transferOwnership(address newOwner) internal virtual {... */\ntag_12:\n    /* \"@openzeppelin/contracts/access/Ownable.sol\":2985:3001  address oldOwner */\n  0x00\n    /* \"@openzeppelin/contracts/access/Ownable.sol\":3004:3010  _owner */\n  0x00\n  0x00\n  swap1\n  sload\n  swap1\n  0x0100\n  exp\n  swap1\n  div\n  0xffffffffffffffffffffffffffffffffffffffff\n  and\n    /* \"@openzeppelin/contracts/access/Ownable.sol\":2985:3010  address oldOwner = _owner */\n  swap1\n  pop\n    /* \"@openzeppelin/contracts/access/Ownable.sol\":3029:3037  newOwner */\n  dup2\n    /* \"@openzeppelin/contracts/access/Ownable.sol\":3020:3026  _owner */\n  0x00\n  0x00\n    /* \"@openzeppelin/contracts/access/Ownable.sol\":3020:3037  _owner = newOwner */\n  0x0100\n  exp\n  dup2\n  sload\n  dup2\n  0xffffffffffffffffffffffffffffffffffffffff\n  mul\n  not\n  and\n  swap1\n  dup4\n  0xffffffffffffffffffffffffffffffffffffffff\n  and\n  mul\n  or\n  swap1\n  sstore\n  pop\n    /* \"@openzeppelin/contracts/access/Ownable.sol\":3083:3091  newOwner */\n  dup2\n    /* \"@openzeppelin/contracts/access/Ownable.sol\":3052:3092  OwnershipTransferred(oldOwner, newOwner) */\n  0xffffffffffffffffffffffffffffffffffffffff\n  and\n    /* \"@openzeppelin/contracts/access/Ownable.sol\":3073:3081  oldOwner */\n  dup2\n    /* \"@openzeppelin/contracts/access/Ownable.sol\":3052:3092  OwnershipTransferred(oldOwner, newOwner) */\n  0xffffffffffffffffffffffffffffffffffffffff\n  and\n  0x8be0079c531659141344cd1fd0a4f28419497f9722a3daafe3b4186f6b6457e0\n  mload(0x40)\n  mload(0x40)\n  dup1\n  swap2\n  sub\n  swap1\n  log3\n    /* \"@openzeppelin/contracts/access/Ownable.sol\":2975:3099  {... */\n  pop\n    /* \"@openzeppelin/contracts/access/Ownable.sol\":2912:3099  function _transferOwnership(address newOwner) internal virtual {... */\n  pop\n  jump\t// out\n    /* \"#utility.yul\":88:205   */\ntag_25:\n    /* \"#utility.yul\":197:198   */\n  0x00\n    /* \"#utility.yul\":194:195   */\n  0x00\n    /* \"#utility.yul\":187:199   */\n  revert\n    /* \"#utility.yul\":334:460   */\ntag_27:\n    /* \"#utility.yul\":371:378   */\n  0x00\n    /* \"#utility.yul\":411:453   */\n  0xffffffffffffffffffffffffffffffffffffffff\n    /* \"#utility.yul\":404:409   */\n  dup3\n    /* \"#utility.yul\":400:454   */\n  and\n    /* \"#utility.yul\":389:454   */\n  swap1\n  pop\n    /* \"#utility.yul\":334:460   */\n  swap2\n  swap1\n  pop\n  jump\t// out\n    /* \"#utility.yul\":466:562   */\ntag_28:\n    /* \"#utility.yul\":503:510   */\n  0x00\n    /* \"#utility.yul\":532:556   */\n  tag_43\n    /* \"#utility.yul\":550:555   */\n  dup3\n    /* \"#utility.yul\":532:556   */\n  tag_27\n  jump\t// in\ntag_43:\n    /* \"#utility.yul\":521:556   */\n  swap1\n  pop\n    /* \"#utility.yul\":466:562   */\n  swap2\n  swap1\n  pop\n  jump\t// out\n    /* \"#utility.yul\":568:690   */\ntag_29:\n    /* \"#utility.yul\":641:665   */\n  tag_45\n    /* \"#utility.yul\":659:664   */\n  dup2\n    /* \"#utility.yul\":641:665   */\n  tag_28\n  jump\t// in\ntag_45:\n    /* \"#utility.yul\":634:639   */\n  dup2\n    /* \"#utility.yul\":631:666   */\n  eq\n    /* \"#utility.yul\":621:684   */\n  tag_46\n  jumpi\n    /* \"#utility.yul\":680:681   */\n  0x00\n    /* \"#utility.yul\":677:678   */\n  0x00\n    /* \"#utility.yul\":670:682   */\n  revert\n    /* \"#utility.yul\":621:684   */\ntag_46:\n    /* \"#utility.yul\":568:690   */\n  pop\n  jump\t// out\n    /* \"#utility.yul\":696:839   */\ntag_30:\n    /* \"#utility.yul\":753:758   */\n  0x00\n    /* \"#utility.yul\":784:790   */\n  dup2\n    /* \"#utility.yul\":778:791   */\n  mload\n    /* \"#utility.yul\":769:791   */\n  swap1\n  pop\n    /* \"#utility.yul\":800:833   */\n  tag_48\n    /* \"#utility.yul\":827:832   */\n  dup2\n    /* \"#utility.yul\":800:833   */\n  tag_29\n  jump\t// in\ntag_48:\n    /* \"#utility.yul\":696:839   */\n  swap3\n  swap2\n  pop\n  pop\n  jump\t// out\n    /* \"#utility.yul\":845:1352   */\ntag_3:\n    /* \"#utility.yul\":924:930   */\n  0x00\n    /* \"#utility.yul\":932:938   */\n  0x00\n    /* \"#utility.yul\":981:983   */\n  0x40\n    /* \"#utility.yul\":969:978   */\n  dup4\n    /* \"#utility.yul\":960:967   */\n  dup6\n    /* \"#utility.yul\":956:979   */\n  sub\n    /* \"#utility.yul\":952:984   */\n  slt\n    /* \"#utility.yul\":949:1068   */\n  iszero\n  tag_50\n  jumpi\n    /* \"#utility.yul\":987:1066   */\n  tag_51\n  tag_25\n  jump\t// in\ntag_51:\n    /* \"#utility.yul\":949:1068   */\ntag_50:\n    /* \"#utility.yul\":1107:1108   */\n  0x00\n    /* \"#utility.yul\":1132:1196   */\n  tag_52\n    /* \"#utility.yul\":1188:1195   */\n  dup6\n    /* \"#utility.yul\":1179:1185   */\n  dup3\n    /* \"#utility.yul\":1168:1177   */\n  dup7\n    /* \"#utility.yul\":1164:1186   */\n  add\n    /* \"#utility.yul\":1132:1196   */\n  tag_30\n  jump\t// in\ntag_52:\n    /* \"#utility.yul\":1122:1196   */\n  swap3\n  pop\n    /* \"#utility.yul\":1078:1206   */\n  pop\n    /* \"#utility.yul\":1245:1247   */\n  0x20\n    /* \"#utility.yul\":1271:1335   */\n  tag_53\n    /* \"#utility.yul\":1327:1334   */\n  dup6\n    /* \"#utility.yul\":1318:1324   */\n  dup3\n    /* \"#utility.yul\":1307:1316   */\n  dup7\n    /* \"#utility.yul\":1303:1325   */\n  add\n    /* \"#utility.yul\":1271:1335   */\n  tag_30\n  jump\t// in\ntag_53:\n    /* \"#utility.yul\":1261:1335   */\n  swap2\n  pop\n    /* \"#utility.yul\":1216:1345   */\n  pop\n    /* \"#utility.yul\":845:1352   */\n  swap3\n  pop\n  swap3\n  swap1\n  pop\n  jump\t// out\n    /* \"#utility.yul\":1358:1476   */\ntag_31:\n    /* \"#utility.yul\":1445:1469   */\n  tag_55\n    /* \"#utility.yul\":1463:1468   */\n  dup2\n    /* \"#utility.yul\":1445:1469   */\n  tag_28\n  jump\t// in\ntag_55:\n    /* \"#utility.yul\":1440:1443   */\n  dup3\n    /* \"#utility.yul\":1433:1470   */\n  mstore\n    /* \"#utility.yul\":1358:1476   */\n  pop\n  pop\n  jump\t// out\n    /* \"#utility.yul\":1482:1704   */\ntag_10:\n    /* \"#utility.yul\":1575:1579   */\n  0x00\n    /* \"#utility.yul\":1613:1615   */\n  0x20\n    /* \"#utility.yul\":1602:1611   */\n  dup3\n    /* \"#utility.yul\":1598:1616   */\n  add\n    /* \"#utility.yul\":1590:1616   */\n  swap1\n  pop\n    /* \"#utility.yul\":1626:1697   */\n  tag_57\n    /* \"#utility.yul\":1694:1695   */\n  0x00\n    /* \"#utility.yul\":1683:1692   */\n  dup4\n    /* \"#utility.yul\":1679:1696   */\n  add\n    /* \"#utility.yul\":1670:1676   */\n  dup5\n    /* \"#utility.yul\":1626:1697   */\n  tag_31\n  jump\t// in\ntag_57:\n    /* \"#utility.yul\":1482:1704   */\n  swap3\n  swap2\n  pop\n  pop\n  jump\t// out\n    /* \"#utility.yul\":1710:1879   */\ntag_32:\n    /* \"#utility.yul\":1794:1805   */\n  0x00\n    /* \"#utility.yul\":1828:1834   */\n  dup3\n    /* \"#utility.yul\":1823:1826   */\n  dup3\n    /* \"#utility.yul\":1816:1835   */\n  mstore\n    /* \"#utility.yul\":1868:1872   */\n  0x20\n    /* \"#utility.yul\":1863:1866   */\n  dup3\n    /* \"#utility.yul\":1859:1873   */\n  add\n    /* \"#utility.yul\":1844:1873   */\n  swap1\n  pop\n    /* \"#utility.yul\":1710:1879   */\n  swap3\n  swap2\n  pop\n  pop\n  jump\t// out\n    /* \"#utility.yul\":1885:2058   */\ntag_33:\n    /* \"#utility.yul\":2025:2050   */\n  0x496e76616c696420746f6b656e20616464726573736573000000000000000000\n    /* \"#utility.yul\":2021:2022   */\n  0x00\n    /* \"#utility.yul\":2013:2019   */\n  dup3\n    /* \"#utility.yul\":2009:2023   */\n  add\n    /* \"#utility.yul\":2002:2051   */\n  mstore\n    /* \"#utility.yul\":1885:2058   */\n  pop\n  jump\t// out\n    /* \"#utility.yul\":2064:2430   */\ntag_34:\n    /* \"#utility.yul\":2206:2209   */\n  0x00\n    /* \"#utility.yul\":2227:2294   */\n  tag_61\n    /* \"#utility.yul\":2291:2293   */\n  0x17\n    /* \"#utility.yul\":2286:2289   */\n  dup4\n    /* \"#utility.yul\":2227:2294   */\n  tag_32\n  jump\t// in\ntag_61:\n    /* \"#utility.yul\":2220:2294   */\n  swap2\n  pop\n    /* \"#utility.yul\":2303:2396   */\n  tag_62\n    /* \"#utility.yul\":2392:2395   */\n  dup3\n    /* \"#utility.yul\":2303:2396   */\n  tag_33\n  jump\t// in\ntag_62:\n    /* \"#utility.yul\":2421:2423   */\n  0x20\n    /* \"#utility.yul\":2416:2419   */\n  dup3\n    /* \"#utility.yul\":2412:2424   */\n  add\n    /* \"#utility.yul\":2405:2424   */\n  swap1\n  pop\n    /* \"#utility.yul\":2064:2430   */\n  swap2\n  swap1\n  pop\n  jump\t// out\n    /* \"#utility.yul\":2436:2855   */\ntag_18:\n    /* \"#utility.yul\":2602:2606   */\n  0x00\n    /* \"#utility.yul\":2640:2642   */\n  0x20\n    /* \"#utility.yul\":2629:2638   */\n  dup3\n    /* \"#utility.yul\":2625:2643   */\n  add\n    /* \"#utility.yul\":2617:2643   */\n  swap1\n  pop\n    /* \"#utility.yul\":2689:2698   */\n  dup2\n    /* \"#utility.yul\":2683:2687   */\n  dup2\n    /* \"#utility.yul\":2679:2699   */\n  sub\n    /* \"#utility.yul\":2675:2676   */\n  0x00\n    /* \"#utility.yul\":2664:2673   */\n  dup4\n    /* \"#utility.yul\":2660:2677   */\n  add\n    /* \"#utility.yul\":2653:2700   */\n  mstore\n    /* \"#utility.yul\":2717:2848   */\n  tag_64\n    /* \"#utility.yul\":2843:2847   */\n  dup2\n    /* \"#utility.yul\":2717:2848   */\n  tag_34\n  jump\t// in\ntag_64:\n    /* \"#utility.yul\":2709:2848   */\n  swap1\n  pop\n    /* \"#utility.yul\":2436:2855   */\n  swap2\n  swap1\n  pop\n  jump\t// out\n    /* \"#utility.yul\":2861:3035   */\ntag_35:\n    /* \"#utility.yul\":3001:3027   */\n  0x546f6b656e73206d75737420626520646966666572656e740000000000000000\n    /* \"#utility.yul\":2997:2998   */\n  0x00\n    /* \"#utility.yul\":2989:2995   */\n  dup3\n    /* \"#utility.yul\":2985:2999   */\n  add\n    /* \"#utility.yul\":2978:3028   */\n  mstore\n    /* \"#utility.yul\":2861:3035   */\n  pop\n  jump\t// out\n    /* \"#utility.yul\":3041:3407   */\ntag_36:\n    /* \"#utility.yul\":3183:3186   */\n  0x00\n    /* \"#utility.yul\":3204:3271   */\n  tag_67\n    /* \"#utility.yul\":3268:3270   */\n  0x18\n    /* \"#utility.yul\":3263:3266   */\n  dup4\n    /* \"#utility.yul\":3204:3271   */\n  tag_32\n  jump\t// in\ntag_67:\n    /* \"#utility.yul\":3197:3271   */\n  swap2\n  pop\n    /* \"#utility.yul\":3280:3373   */\n  tag_68\n    /* \"#utility.yul\":3369:3372   */\n  dup3\n    /* \"#utility.yul\":3280:3373   */\n  tag_35\n  jump\t// in\ntag_68:\n    /* \"#utility.yul\":3398:3400   */\n  0x20\n    /* \"#utility.yul\":3393:3396   */\n  dup3\n    /* \"#utility.yul\":3389:3401   */\n  add\n    /* \"#utility.yul\":3382:3401   */\n  swap1\n  pop\n    /* \"#utility.yul\":3041:3407   */\n  swap2\n  swap1\n  pop\n  jump\t// out\n    /* \"#utility.yul\":3413:3832   */\ntag_21:\n    /* \"#utility.yul\":3579:3583   */\n  0x00\n    /* \"#utility.yul\":3617:3619   */\n  0x20\n    /* \"#utility.yul\":3606:3615   */\n  dup3\n    /* \"#utility.yul\":3602:3620   */\n  add\n    /* \"#utility.yul\":3594:3620   */\n  swap1\n  pop\n    /* \"#utility.yul\":3666:3675   */\n  dup2\n    /* \"#utility.yul\":3660:3664   */\n  dup2\n    /* \"#utility.yul\":3656:3676   */\n  sub\n    /* \"#utility.yul\":3652:3653   */\n  0x00\n    /* \"#utility.yul\":3641:3650   */\n  dup4\n    /* \"#utility.yul\":3637:3654   */\n  add\n    /* \"#utility.yul\":3630:3677   */\n  mstore\n    /* \"#utility.yul\":3694:3825   */\n  tag_70\n    /* \"#utility.yul\":3820:3824   */\n  dup2\n    /* \"#utility.yul\":3694:3825   */\n  tag_36\n  jump\t// in\ntag_70:\n    /* \"#utility.yul\":3686:3825   */\n  swap1\n  pop\n    /* \"#utility.yul\":3413:3832   */\n  swap2\n  swap1\n  pop\n  jump\t// out\n    /* \"SimpleDex.sol\":236:8434  contract SimpleDEX is Ownable, ReentrancyGuard {... */\ntag_22:\n  dataSize(sub_0)\n  dup1\n  dataOffset(sub_0)\n  0x00\n  codecopy\n  0x00\n  return\nstop\n\nsub_0: assembly {\n        /* \"SimpleDex.sol\":236:8434  contract SimpleDEX is Ownable, ReentrancyGuard {... */\n      mstore(0x40, 0x80)\n      callvalue\n      dup1\n      iszero\n      tag_1\n      jumpi\n      revert(0x00, 0x00)\n    tag_1:\n      pop\n      jumpi(tag_2, lt(calldatasize, 0x04))\n      shr(0xe0, calldataload(0x00))\n      dup1\n      0x9cd441da\n      gt\n      tag_20\n      jumpi\n      dup1\n      0xdb2e21bc\n      gt\n      tag_21\n      jumpi\n      dup1\n      0xdb2e21bc\n      eq\n      tag_15\n      jumpi\n      dup1\n      0xdc5fa6c5\n      eq\n      tag_16\n      jumpi\n      dup1\n      0xe4f1f70a\n      eq\n      tag_17\n      jumpi\n      dup1\n      0xeaf98d23\n      eq\n      tag_18\n      jumpi\n      dup1\n      0xf2fde38b\n      eq\n      tag_19\n      jumpi\n      jump(tag_2)\n    tag_21:\n      dup1\n      0x9cd441da\n      eq\n      tag_11\n      jumpi\n      dup1\n      0x9d7de6b3\n      eq\n      tag_12\n      jumpi\n      dup1\n      0xca706bcf\n      eq\n      tag_13\n      jumpi\n      dup1\n      0xd73792a9\n      eq\n      tag_14\n      jumpi\n      jump(tag_2)\n    tag_20:\n      dup1\n      0x5f64b55b\n      gt\n      tag_22\n      jumpi\n      dup1\n      0x5f64b55b\n      eq\n      tag_7\n      jumpi\n      dup1\n      0x715018a6\n      eq\n      tag_8\n      jumpi\n      dup1\n      0x8014a7aa\n      eq\n      tag_9\n      jumpi\n      dup1\n      0x8da5cb5b\n      eq\n      tag_10\n      jumpi\n      jump(tag_2)\n    tag_22:\n      dup1\n      0x0902f1ac\n      eq\n      tag_3\n      jumpi\n      dup1\n      0x0fc63d10\n      eq\n      tag_4\n      jumpi\n      dup1\n      0x19e36f3b\n      eq\n      tag_5\n      jumpi\n      dup1\n      0x41976e09\n      eq\n      tag_6\n      jumpi\n    tag_2:\n      revert(0x00, 0x00)\n        /* \"SimpleDex.sol\":7764:7894  function getReserves() external view returns (uint256 _reserveA, uint256 _reserveB) {... */\n    tag_3:\n      tag_23\n      tag_24\n      jump\t// in\n    tag_23:\n      mload(0x40)\n      tag_25\n      swap3\n      swap2\n      swap1\n      tag_26\n      jump\t// in\n    tag_25:\n      mload(0x40)\n      dup1\n      swap2\n      sub\n      swap1\n      return\n        /* \"SimpleDex.sol\":290:310  IERC20 public tokenA */\n    tag_4:\n      tag_27\n      tag_28\n      jump\t// in\n    tag_27:\n      mload(0x40)\n      tag_29\n      swap2\n      swap1\n      tag_30\n      jump\t// in\n    tag_29:\n      mload(0x40)\n      dup1\n      swap2\n      sub\n      swap1\n      return\n        /* \"SimpleDex.sol\":380:403  uint256 public reserveB */\n    tag_5:\n      tag_31\n      tag_32\n      jump\t// in\n    tag_31:\n      mload(0x40)\n      tag_33\n      swap2\n      swap1\n      tag_34\n      jump\t// in\n    tag_33:\n      mload(0x40)\n      dup1\n      swap2\n      sub\n      swap1\n      return\n        /* \"SimpleDex.sol\":5941:6456  function getPrice(address _token) external view returns (uint256 price) {... */\n    tag_6:\n      tag_35\n      0x04\n      dup1\n      calldatasize\n      sub\n      dup2\n      add\n      swap1\n      tag_36\n      swap2\n      swap1\n      tag_37\n      jump\t// in\n    tag_36:\n      tag_38\n      jump\t// in\n    tag_35:\n      mload(0x40)\n      tag_39\n      swap2\n      swap1\n      tag_34\n      jump\t// in\n    tag_39:\n      mload(0x40)\n      dup1\n      swap2\n      sub\n      swap1\n      return\n        /* \"SimpleDex.sol\":317:337  IERC20 public tokenB */\n    tag_7:\n      tag_40\n      tag_41\n      jump\t// in\n    tag_40:\n      mload(0x40)\n      tag_42\n      swap2\n      swap1\n      tag_30\n      jump\t// in\n    tag_42:\n      mload(0x40)\n      dup1\n      swap2\n      sub\n      swap1\n      return\n        /* \"@openzeppelin/contracts/access/Ownable.sol\":2293:2394  function renounceOwnership() public virtual onlyOwner {... */\n    tag_8:\n      tag_43\n      tag_44\n      jump\t// in\n    tag_43:\n      stop\n        /* \"SimpleDex.sol\":3674:4887  function swapBforA(uint256 amountBIn) external nonReentrant {... */\n    tag_9:\n      tag_45\n      0x04\n      dup1\n      calldatasize\n      sub\n      dup2\n      add\n      swap1\n      tag_46\n      swap2\n      swap1\n      tag_47\n      jump\t// in\n    tag_46:\n      tag_48\n      jump\t// in\n    tag_45:\n      stop\n        /* \"@openzeppelin/contracts/access/Ownable.sol\":1638:1723  function owner() public view virtual returns (address) {... */\n    tag_10:\n      tag_49\n      tag_50\n      jump\t// in\n    tag_49:\n      mload(0x40)\n      tag_51\n      swap2\n      swap1\n      tag_52\n      jump\t// in\n    tag_51:\n      mload(0x40)\n      dup1\n      swap2\n      sub\n      swap1\n      return\n        /* \"SimpleDex.sol\":1619:2195  function addLiquidity(uint256 amountA, uint256 amountB) external onlyOwner nonReentrant {... */\n    tag_11:\n      tag_53\n      0x04\n      dup1\n      calldatasize\n      sub\n      dup2\n      add\n      swap1\n      tag_54\n      swap2\n      swap1\n      tag_55\n      jump\t// in\n    tag_54:\n      tag_56\n      jump\t// in\n    tag_53:\n      stop\n        /* \"SimpleDex.sol\":5060:5697  function removeLiquidity(uint256 amountA, uint256 amountB) external onlyOwner nonReentrant {... */\n    tag_12:\n      tag_57\n      0x04\n      dup1\n      calldatasize\n      sub\n      dup2\n      add\n      swap1\n      tag_58\n      swap2\n      swap1\n      tag_55\n      jump\t// in\n    tag_58:\n      tag_59\n      jump\t// in\n    tag_57:\n      stop\n        /* \"SimpleDex.sol\":6755:7580  function getAmountOut(address tokenIn, uint256 amountIn) external view returns (uint256 amountOut) {... */\n    tag_13:\n      tag_60\n      0x04\n      dup1\n      calldatasize\n      sub\n      dup2\n      add\n      swap1\n      tag_61\n      swap2\n      swap1\n      tag_62\n      jump\t// in\n    tag_61:\n      tag_63\n      jump\t// in\n    tag_60:\n      mload(0x40)\n      tag_64\n      swap2\n      swap1\n      tag_34\n      jump\t// in\n    tag_64:\n      mload(0x40)\n      dup1\n      swap2\n      sub\n      swap1\n      return\n        /* \"SimpleDex.sol\":502:549  uint256 public constant FEE_DENOMINATOR = 10000 */\n    tag_14:\n      tag_65\n      tag_66\n      jump\t// in\n    tag_65:\n      mload(0x40)\n      tag_67\n      swap2\n      swap1\n      tag_34\n      jump\t// in\n    tag_67:\n      mload(0x40)\n      dup1\n      swap2\n      sub\n      swap1\n      return\n        /* \"SimpleDex.sol\":8003:8431  function emergencyWithdraw() external onlyOwner {... */\n    tag_15:\n      tag_68\n      tag_69\n      jump\t// in\n    tag_68:\n      stop\n        /* \"SimpleDex.sol\":350:373  uint256 public reserveA */\n    tag_16:\n      tag_70\n      tag_71\n      jump\t// in\n    tag_70:\n      mload(0x40)\n      tag_72\n      swap2\n      swap1\n      tag_34\n      jump\t// in\n    tag_72:\n      mload(0x40)\n      dup1\n      swap2\n      sub\n      swap1\n      return\n        /* \"SimpleDex.sol\":2328:3541  function swapAforB(uint256 amountAIn) external nonReentrant {... */\n    tag_17:\n      tag_73\n      0x04\n      dup1\n      calldatasize\n      sub\n      dup2\n      add\n      swap1\n      tag_74\n      swap2\n      swap1\n      tag_47\n      jump\t// in\n    tag_74:\n      tag_75\n      jump\t// in\n    tag_73:\n      stop\n        /* \"SimpleDex.sol\":455:495  uint256 public constant FEE_PERCENT = 30 */\n    tag_18:\n      tag_76\n      tag_77\n      jump\t// in\n    tag_76:\n      mload(0x40)\n      tag_78\n      swap2\n      swap1\n      tag_34\n      jump\t// in\n    tag_78:\n      mload(0x40)\n      dup1\n      swap2\n      sub\n      swap1\n      return\n        /* \"@openzeppelin/contracts/access/Ownable.sol\":2543:2758  function transferOwnership(address newOwner) public virtual onlyOwner {... */\n    tag_19:\n      tag_79\n      0x04\n      dup1\n      calldatasize\n      sub\n      dup2\n      add\n      swap1\n      tag_80\n      swap2\n      swap1\n      tag_37\n      jump\t// in\n    tag_80:\n      tag_81\n      jump\t// in\n    tag_79:\n      stop\n        /* \"SimpleDex.sol\":7764:7894  function getReserves() external view returns (uint256 _reserveA, uint256 _reserveB) {... */\n    tag_24:\n        /* \"SimpleDex.sol\":7810:7827  uint256 _reserveA */\n      0x00\n        /* \"SimpleDex.sol\":7829:7846  uint256 _reserveB */\n      0x00\n        /* \"SimpleDex.sol\":7867:7875  reserveA */\n      sload(0x04)\n        /* \"SimpleDex.sol\":7877:7885  reserveB */\n      sload(0x05)\n        /* \"SimpleDex.sol\":7859:7886  return (reserveA, reserveB) */\n      swap2\n      pop\n      swap2\n      pop\n        /* \"SimpleDex.sol\":7764:7894  function getReserves() external view returns (uint256 _reserveA, uint256 _reserveB) {... */\n      swap1\n      swap2\n      jump\t// out\n        /* \"SimpleDex.sol\":290:310  IERC20 public tokenA */\n    tag_28:\n      0x02\n      0x00\n      swap1\n      sload\n      swap1\n      0x0100\n      exp\n      swap1\n      div\n      0xffffffffffffffffffffffffffffffffffffffff\n      and\n      dup2\n      jump\t// out\n        /* \"SimpleDex.sol\":380:403  uint256 public reserveB */\n    tag_32:\n      sload(0x05)\n      dup2\n      jump\t// out\n        /* \"SimpleDex.sol\":5941:6456  function getPrice(address _token) external view returns (uint256 price) {... */\n    tag_38:\n        /* \"SimpleDex.sol\":5998:6011  uint256 price */\n      0x00\n        /* \"SimpleDex.sol\":6040:6041  0 */\n      0x00\n        /* \"SimpleDex.sol\":6028:6036  reserveA */\n      sload(0x04)\n        /* \"SimpleDex.sol\":6028:6041  reserveA == 0 */\n      eq\n        /* \"SimpleDex.sol\":6028:6058  reserveA == 0 || reserveB == 0 */\n      dup1\n      tag_84\n      jumpi\n      pop\n        /* \"SimpleDex.sol\":6057:6058  0 */\n      0x00\n        /* \"SimpleDex.sol\":6045:6053  reserveB */\n      sload(0x05)\n        /* \"SimpleDex.sol\":6045:6058  reserveB == 0 */\n      eq\n        /* \"SimpleDex.sol\":6028:6058  reserveA == 0 || reserveB == 0 */\n    tag_84:\n        /* \"SimpleDex.sol\":6024:6068  if (reserveA == 0 || reserveB == 0) return 0 */\n      iszero\n      tag_85\n      jumpi\n        /* \"SimpleDex.sol\":6067:6068  0 */\n      0x00\n        /* \"SimpleDex.sol\":6060:6068  return 0 */\n      swap1\n      pop\n      jump(tag_83)\n        /* \"SimpleDex.sol\":6024:6068  if (reserveA == 0 || reserveB == 0) return 0 */\n    tag_85:\n        /* \"SimpleDex.sol\":6111:6117  tokenA */\n      0x02\n      0x00\n      swap1\n      sload\n      swap1\n      0x0100\n      exp\n      swap1\n      div\n      0xffffffffffffffffffffffffffffffffffffffff\n      and\n        /* \"SimpleDex.sol\":6093:6118  _token == address(tokenA) */\n      0xffffffffffffffffffffffffffffffffffffffff\n      and\n        /* \"SimpleDex.sol\":6093:6099  _token */\n      dup3\n        /* \"SimpleDex.sol\":6093:6118  _token == address(tokenA) */\n      0xffffffffffffffffffffffffffffffffffffffff\n      and\n      sub\n        /* \"SimpleDex.sol\":6089:6449  if (_token == address(tokenA)) {... */\n      tag_86\n      jumpi\n        /* \"SimpleDex.sol\":6219:6227  reserveA */\n      sload(0x04)\n        /* \"SimpleDex.sol\":6211:6215  1e18 */\n      0x0de0b6b3a7640000\n        /* \"SimpleDex.sol\":6200:6208  reserveB */\n      sload(0x05)\n        /* \"SimpleDex.sol\":6200:6215  reserveB * 1e18 */\n      tag_87\n      swap2\n      swap1\n      tag_88\n      jump\t// in\n    tag_87:\n        /* \"SimpleDex.sol\":6199:6227  (reserveB * 1e18) / reserveA */\n      tag_89\n      swap2\n      swap1\n      tag_90\n      jump\t// in\n    tag_89:\n        /* \"SimpleDex.sol\":6191:6227  price = (reserveB * 1e18) / reserveA */\n      swap1\n      pop\n        /* \"SimpleDex.sol\":6089:6449  if (_token == address(tokenA)) {... */\n      jump(tag_91)\n    tag_86:\n        /* \"SimpleDex.sol\":6267:6273  tokenB */\n      0x03\n      0x00\n      swap1\n      sload\n      swap1\n      0x0100\n      exp\n      swap1\n      div\n      0xffffffffffffffffffffffffffffffffffffffff\n      and\n        /* \"SimpleDex.sol\":6249:6274  _token == address(tokenB) */\n      0xffffffffffffffffffffffffffffffffffffffff\n      and\n        /* \"SimpleDex.sol\":6249:6255  _token */\n      dup3\n        /* \"SimpleDex.sol\":6249:6274  _token == address(tokenB) */\n      0xffffffffffffffffffffffffffffffffffffffff\n      and\n      sub\n        /* \"SimpleDex.sol\":6245:6449  if (_token == address(tokenB)) {... */\n      tag_92\n      jumpi\n        /* \"SimpleDex.sol\":6375:6383  reserveB */\n      sload(0x05)\n        /* \"SimpleDex.sol\":6367:6371  1e18 */\n      0x0de0b6b3a7640000\n        /* \"SimpleDex.sol\":6356:6364  reserveA */\n      sload(0x04)\n        /* \"SimpleDex.sol\":6356:6371  reserveA * 1e18 */\n      tag_93\n      swap2\n      swap1\n      tag_88\n      jump\t// in\n    tag_93:\n        /* \"SimpleDex.sol\":6355:6383  (reserveA * 1e18) / reserveB */\n      tag_94\n      swap2\n      swap1\n      tag_90\n      jump\t// in\n    tag_94:\n        /* \"SimpleDex.sol\":6347:6383  price = (reserveA * 1e18) / reserveB */\n      swap1\n      pop\n        /* \"SimpleDex.sol\":6245:6449  if (_token == address(tokenB)) {... */\n      jump(tag_95)\n    tag_92:\n        /* \"SimpleDex.sol\":6423:6437  InvalidToken() */\n      mload(0x40)\n      0xc1ab6dc100000000000000000000000000000000000000000000000000000000\n      dup2\n      mstore\n      0x04\n      add\n      mload(0x40)\n      dup1\n      swap2\n      sub\n      swap1\n      revert\n        /* \"SimpleDex.sol\":6245:6449  if (_token == address(tokenB)) {... */\n    tag_95:\n        /* \"SimpleDex.sol\":6089:6449  if (_token == address(tokenA)) {... */\n    tag_91:\n        /* \"SimpleDex.sol\":5941:6456  function getPrice(address _token) external view returns (uint256 price) {... */\n    tag_83:\n      swap2\n      swap1\n      pop\n      jump\t// out\n        /* \"SimpleDex.sol\":317:337  IERC20 public tokenB */\n    tag_41:\n      0x03\n      0x00\n      swap1\n      sload\n      swap1\n      0x0100\n      exp\n      swap1\n      div\n      0xffffffffffffffffffffffffffffffffffffffff\n      and\n      dup2\n      jump\t// out\n        /* \"@openzeppelin/contracts/access/Ownable.sol\":2293:2394  function renounceOwnership() public virtual onlyOwner {... */\n    tag_44:\n        /* \"@openzeppelin/contracts/access/Ownable.sol\":1531:1544  _checkOwner() */\n      tag_97\n        /* \"@openzeppelin/contracts/access/Ownable.sol\":1531:1542  _checkOwner */\n      tag_98\n        /* \"@openzeppelin/contracts/access/Ownable.sol\":1531:1544  _checkOwner() */\n      jump\t// in\n    tag_97:\n        /* \"@openzeppelin/contracts/access/Ownable.sol\":2357:2387  _transferOwnership(address(0)) */\n      tag_100\n        /* \"@openzeppelin/contracts/access/Ownable.sol\":2384:2385  0 */\n      0x00\n        /* \"@openzeppelin/contracts/access/Ownable.sol\":2357:2375  _transferOwnership */\n      tag_101\n        /* \"@openzeppelin/contracts/access/Ownable.sol\":2357:2387  _transferOwnership(address(0)) */\n      jump\t// in\n    tag_100:\n        /* \"@openzeppelin/contracts/access/Ownable.sol\":2293:2394  function renounceOwnership() public virtual onlyOwner {... */\n      jump\t// out\n        /* \"SimpleDex.sol\":3674:4887  function swapBforA(uint256 amountBIn) external nonReentrant {... */\n    tag_48:\n        /* \"@openzeppelin/contracts/utils/ReentrancyGuard.sol\":2500:2521  _nonReentrantBefore() */\n      tag_103\n        /* \"@openzeppelin/contracts/utils/ReentrancyGuard.sol\":2500:2519  _nonReentrantBefore */\n      tag_104\n        /* \"@openzeppelin/contracts/utils/ReentrancyGuard.sol\":2500:2521  _nonReentrantBefore() */\n      jump\t// in\n    tag_103:\n        /* \"SimpleDex.sol\":3762:3763  0 */\n      0x00\n        /* \"SimpleDex.sol\":3749:3758  amountBIn */\n      dup2\n        /* \"SimpleDex.sol\":3749:3763  amountBIn == 0 */\n      sub\n        /* \"SimpleDex.sol\":3745:3784  if (amountBIn == 0) revert ZeroAmount() */\n      tag_106\n      jumpi\n        /* \"SimpleDex.sol\":3772:3784  ZeroAmount() */\n      mload(0x40)\n      0x1f2a200500000000000000000000000000000000000000000000000000000000\n      dup2\n      mstore\n      0x04\n      add\n      mload(0x40)\n      dup1\n      swap2\n      sub\n      swap1\n      revert\n        /* \"SimpleDex.sol\":3745:3784  if (amountBIn == 0) revert ZeroAmount() */\n    tag_106:\n        /* \"SimpleDex.sol\":3811:3812  0 */\n      0x00\n        /* \"SimpleDex.sol\":3799:3807  reserveA */\n      sload(0x04)\n        /* \"SimpleDex.sol\":3799:3812  reserveA == 0 */\n      eq\n        /* \"SimpleDex.sol\":3799:3829  reserveA == 0 || reserveB == 0 */\n      dup1\n      tag_107\n      jumpi\n      pop\n        /* \"SimpleDex.sol\":3828:3829  0 */\n      0x00\n        /* \"SimpleDex.sol\":3816:3824  reserveB */\n      sload(0x05)\n        /* \"SimpleDex.sol\":3816:3829  reserveB == 0 */\n      eq\n        /* \"SimpleDex.sol\":3799:3829  reserveA == 0 || reserveB == 0 */\n    tag_107:\n        /* \"SimpleDex.sol\":3795:3861  if (reserveA == 0 || reserveB == 0) revert InsufficientLiquidity() */\n      iszero\n      tag_108\n      jumpi\n        /* \"SimpleDex.sol\":3838:3861  InsufficientLiquidity() */\n      mload(0x40)\n      0xbb55fd2700000000000000000000000000000000000000000000000000000000\n      dup2\n      mstore\n      0x04\n      add\n      mload(0x40)\n      dup1\n      swap2\n      sub\n      swap1\n      revert\n        /* \"SimpleDex.sol\":3795:3861  if (reserveA == 0 || reserveB == 0) revert InsufficientLiquidity() */\n    tag_108:\n        /* \"SimpleDex.sol\":4045:4069  uint256 amountBInWithFee */\n      0x00\n        /* \"SimpleDex.sol\":544:549  10000 */\n      0x2710\n        /* \"SimpleDex.sol\":493:495  30 */\n      0x1e\n        /* \"SimpleDex.sol\":544:549  10000 */\n      0x2710\n        /* \"SimpleDex.sol\":4086:4115  FEE_DENOMINATOR - FEE_PERCENT */\n      tag_109\n      swap2\n      swap1\n      tag_110\n      jump\t// in\n    tag_109:\n        /* \"SimpleDex.sol\":4073:4082  amountBIn */\n      dup4\n        /* \"SimpleDex.sol\":4073:4116  amountBIn * (FEE_DENOMINATOR - FEE_PERCENT) */\n      tag_111\n      swap2\n      swap1\n      tag_88\n      jump\t// in\n    tag_111:\n        /* \"SimpleDex.sol\":4072:4135  (amountBIn * (FEE_DENOMINATOR - FEE_PERCENT)) / FEE_DENOMINATOR */\n      tag_112\n      swap2\n      swap1\n      tag_90\n      jump\t// in\n    tag_112:\n        /* \"SimpleDex.sol\":4045:4135  uint256 amountBInWithFee = (amountBIn * (FEE_DENOMINATOR - FEE_PERCENT)) / FEE_DENOMINATOR */\n      swap1\n      pop\n        /* \"SimpleDex.sol\":4146:4163  uint256 numerator */\n      0x00\n        /* \"SimpleDex.sol\":4185:4193  reserveA */\n      sload(0x04)\n        /* \"SimpleDex.sol\":4166:4182  amountBInWithFee */\n      dup3\n        /* \"SimpleDex.sol\":4166:4193  amountBInWithFee * reserveA */\n      tag_113\n      swap2\n      swap1\n      tag_88\n      jump\t// in\n    tag_113:\n        /* \"SimpleDex.sol\":4146:4193  uint256 numerator = amountBInWithFee * reserveA */\n      swap1\n      pop\n        /* \"SimpleDex.sol\":4204:4223  uint256 denominator */\n      0x00\n        /* \"SimpleDex.sol\":4237:4253  amountBInWithFee */\n      dup3\n        /* \"SimpleDex.sol\":4226:4234  reserveB */\n      sload(0x05)\n        /* \"SimpleDex.sol\":4226:4253  reserveB + amountBInWithFee */\n      tag_114\n      swap2\n      swap1\n      tag_115\n      jump\t// in\n    tag_114:\n        /* \"SimpleDex.sol\":4204:4253  uint256 denominator = reserveB + amountBInWithFee */\n      swap1\n      pop\n        /* \"SimpleDex.sol\":4264:4282  uint256 amountAOut */\n      0x00\n        /* \"SimpleDex.sol\":4297:4308  denominator */\n      dup2\n        /* \"SimpleDex.sol\":4285:4294  numerator */\n      dup4\n        /* \"SimpleDex.sol\":4285:4308  numerator / denominator */\n      tag_116\n      swap2\n      swap1\n      tag_90\n      jump\t// in\n    tag_116:\n        /* \"SimpleDex.sol\":4264:4308  uint256 amountAOut = numerator / denominator */\n      swap1\n      pop\n        /* \"SimpleDex.sol\":4347:4348  0 */\n      0x00\n        /* \"SimpleDex.sol\":4333:4343  amountAOut */\n      dup2\n        /* \"SimpleDex.sol\":4333:4348  amountAOut == 0 */\n      sub\n        /* \"SimpleDex.sol\":4329:4377  if (amountAOut == 0) revert InsufficientAmount() */\n      tag_117\n      jumpi\n        /* \"SimpleDex.sol\":4357:4377  InsufficientAmount() */\n      mload(0x40)\n      0x5945ea5600000000000000000000000000000000000000000000000000000000\n      dup2\n      mstore\n      0x04\n      add\n      mload(0x40)\n      dup1\n      swap2\n      sub\n      swap1\n      revert\n        /* \"SimpleDex.sol\":4329:4377  if (amountAOut == 0) revert InsufficientAmount() */\n    tag_117:\n        /* \"SimpleDex.sol\":4406:4414  reserveA */\n      sload(0x04)\n        /* \"SimpleDex.sol\":4392:4402  amountAOut */\n      dup2\n        /* \"SimpleDex.sol\":4392:4414  amountAOut >= reserveA */\n      lt\n        /* \"SimpleDex.sol\":4388:4446  if (amountAOut >= reserveA) revert InsufficientLiquidity() */\n      tag_118\n      jumpi\n        /* \"SimpleDex.sol\":4423:4446  InsufficientLiquidity() */\n      mload(0x40)\n      0xbb55fd2700000000000000000000000000000000000000000000000000000000\n      dup2\n      mstore\n      0x04\n      add\n      mload(0x40)\n      dup1\n      swap2\n      sub\n      swap1\n      revert\n        /* \"SimpleDex.sol\":4388:4446  if (amountAOut >= reserveA) revert InsufficientLiquidity() */\n    tag_118:\n        /* \"SimpleDex.sol\":4502:4508  tokenB */\n      0x03\n      0x00\n      swap1\n      sload\n      swap1\n      0x0100\n      exp\n      swap1\n      div\n      0xffffffffffffffffffffffffffffffffffffffff\n      and\n        /* \"SimpleDex.sol\":4502:4521  tokenB.transferFrom */\n      0xffffffffffffffffffffffffffffffffffffffff\n      and\n      0x23b872dd\n        /* \"SimpleDex.sol\":4522:4532  msg.sender */\n      caller\n        /* \"SimpleDex.sol\":4542:4546  this */\n      address\n        /* \"SimpleDex.sol\":4549:4558  amountBIn */\n      dup9\n        /* \"SimpleDex.sol\":4502:4559  tokenB.transferFrom(msg.sender, address(this), amountBIn) */\n      mload(0x40)\n      dup5\n      0xffffffff\n      and\n      0xe0\n      shl\n      dup2\n      mstore\n      0x04\n      add\n      tag_119\n      swap4\n      swap3\n      swap2\n      swap1\n      tag_120\n      jump\t// in\n    tag_119:\n      0x20\n      mload(0x40)\n      dup1\n      dup4\n      sub\n      dup2\n      0x00\n      dup8\n      gas\n      call\n      iszero\n      dup1\n      iszero\n      tag_122\n      jumpi\n      returndatacopy(0x00, 0x00, returndatasize)\n      revert(0x00, returndatasize)\n    tag_122:\n      pop\n      pop\n      pop\n      pop\n      mload(0x40)\n      returndatasize\n      not(0x1f)\n      0x1f\n      dup3\n      add\n      and\n      dup3\n      add\n      dup1\n      0x40\n      mstore\n      pop\n      dup2\n      add\n      swap1\n      tag_123\n      swap2\n      swap1\n      tag_124\n      jump\t// in\n    tag_123:\n        /* \"SimpleDex.sol\":4497:4584  if (!tokenB.transferFrom(msg.sender, address(this), amountBIn)) revert TransferFailed() */\n      tag_125\n      jumpi\n        /* \"SimpleDex.sol\":4568:4584  TransferFailed() */\n      mload(0x40)\n      0x90b8ec1800000000000000000000000000000000000000000000000000000000\n      dup2\n      mstore\n      0x04\n      add\n      mload(0x40)\n      dup1\n      swap2\n      sub\n      swap1\n      revert\n        /* \"SimpleDex.sol\":4497:4584  if (!tokenB.transferFrom(msg.sender, address(this), amountBIn)) revert TransferFailed() */\n    tag_125:\n        /* \"SimpleDex.sol\":4600:4606  tokenA */\n      0x02\n      0x00\n      swap1\n      sload\n      swap1\n      0x0100\n      exp\n      swap1\n      div\n      0xffffffffffffffffffffffffffffffffffffffff\n      and\n        /* \"SimpleDex.sol\":4600:4615  tokenA.transfer */\n      0xffffffffffffffffffffffffffffffffffffffff\n      and\n      0xa9059cbb\n        /* \"SimpleDex.sol\":4616:4626  msg.sender */\n      caller\n        /* \"SimpleDex.sol\":4628:4638  amountAOut */\n      dup4\n        /* \"SimpleDex.sol\":4600:4639  tokenA.transfer(msg.sender, amountAOut) */\n      mload(0x40)\n      dup4\n      0xffffffff\n      and\n      0xe0\n      shl\n      dup2\n      mstore\n      0x04\n      add\n      tag_126\n      swap3\n      swap2\n      swap1\n      tag_127\n      jump\t// in\n    tag_126:\n      0x20\n      mload(0x40)\n      dup1\n      dup4\n      sub\n      dup2\n      0x00\n      dup8\n      gas\n      call\n      iszero\n      dup1\n      iszero\n      tag_129\n      jumpi\n      returndatacopy(0x00, 0x00, returndatasize)\n      revert(0x00, returndatasize)\n    tag_129:\n      pop\n      pop\n      pop\n      pop\n      mload(0x40)\n      returndatasize\n      not(0x1f)\n      0x1f\n      dup3\n      add\n      and\n      dup3\n      add\n      dup1\n      0x40\n      mstore\n      pop\n      dup2\n      add\n      swap1\n      tag_130\n      swap2\n      swap1\n      tag_124\n      jump\t// in\n    tag_130:\n        /* \"SimpleDex.sol\":4595:4664  if (!tokenA.transfer(msg.sender, amountAOut)) revert TransferFailed() */\n      tag_131\n      jumpi\n        /* \"SimpleDex.sol\":4648:4664  TransferFailed() */\n      mload(0x40)\n      0x90b8ec1800000000000000000000000000000000000000000000000000000000\n      dup2\n      mstore\n      0x04\n      add\n      mload(0x40)\n      dup1\n      swap2\n      sub\n      swap1\n      revert\n        /* \"SimpleDex.sol\":4595:4664  if (!tokenA.transfer(msg.sender, amountAOut)) revert TransferFailed() */\n    tag_131:\n        /* \"SimpleDex.sol\":4729:4738  amountBIn */\n      dup5\n        /* \"SimpleDex.sol\":4717:4725  reserveB */\n      0x05\n      0x00\n        /* \"SimpleDex.sol\":4717:4738  reserveB += amountBIn */\n      dup3\n      dup3\n      sload\n      tag_132\n      swap2\n      swap1\n      tag_115\n      jump\t// in\n    tag_132:\n      swap3\n      pop\n      pop\n      dup2\n      swap1\n      sstore\n      pop\n        /* \"SimpleDex.sol\":4761:4771  amountAOut */\n      dup1\n        /* \"SimpleDex.sol\":4749:4757  reserveA */\n      0x04\n      0x00\n        /* \"SimpleDex.sol\":4749:4771  reserveA -= amountAOut */\n      dup3\n      dup3\n      sload\n      tag_133\n      swap2\n      swap1\n      tag_110\n      jump\t// in\n    tag_133:\n      swap3\n      pop\n      pop\n      dup2\n      swap1\n      sstore\n      pop\n        /* \"SimpleDex.sol\":4811:4821  msg.sender */\n      caller\n        /* \"SimpleDex.sol\":4797:4879  TokensSwapped(msg.sender, address(tokenB), address(tokenA), amountBIn, amountAOut) */\n      0xffffffffffffffffffffffffffffffffffffffff\n      and\n      0xad56699d0f375866eb895ed27203058a36a713382aaded78eb6b67da266d4332\n        /* \"SimpleDex.sol\":4831:4837  tokenB */\n      0x03\n      0x00\n      swap1\n      sload\n      swap1\n      0x0100\n      exp\n      swap1\n      div\n      0xffffffffffffffffffffffffffffffffffffffff\n      and\n        /* \"SimpleDex.sol\":4848:4854  tokenA */\n      0x02\n      0x00\n      swap1\n      sload\n      swap1\n      0x0100\n      exp\n      swap1\n      div\n      0xffffffffffffffffffffffffffffffffffffffff\n      and\n        /* \"SimpleDex.sol\":4857:4866  amountBIn */\n      dup9\n        /* \"SimpleDex.sol\":4868:4878  amountAOut */\n      dup6\n        /* \"SimpleDex.sol\":4797:4879  TokensSwapped(msg.sender, address(tokenB), address(tokenA), amountBIn, amountAOut) */\n      mload(0x40)\n      tag_134\n      swap5\n      swap4\n      swap3\n      swap2\n      swap1\n      tag_135\n      jump\t// in\n    tag_134:\n      mload(0x40)\n      dup1\n      swap2\n      sub\n      swap1\n      log2\n        /* \"SimpleDex.sol\":3734:4887  {... */\n      pop\n      pop\n      pop\n      pop\n        /* \"@openzeppelin/contracts/utils/ReentrancyGuard.sol\":2542:2562  _nonReentrantAfter() */\n      tag_136\n        /* \"@openzeppelin/contracts/utils/ReentrancyGuard.sol\":2542:2560  _nonReentrantAfter */\n      tag_137\n        /* \"@openzeppelin/contracts/utils/ReentrancyGuard.sol\":2542:2562  _nonReentrantAfter() */\n      jump\t// in\n    tag_136:\n        /* \"SimpleDex.sol\":3674:4887  function swapBforA(uint256 amountBIn) external nonReentrant {... */\n      pop\n      jump\t// out\n        /* \"@openzeppelin/contracts/access/Ownable.sol\":1638:1723  function owner() public view virtual returns (address) {... */\n    tag_50:\n        /* \"@openzeppelin/contracts/access/Ownable.sol\":1684:1691  address */\n      0x00\n        /* \"@openzeppelin/contracts/access/Ownable.sol\":1710:1716  _owner */\n      0x00\n      0x00\n      swap1\n      sload\n      swap1\n      0x0100\n      exp\n      swap1\n      div\n      0xffffffffffffffffffffffffffffffffffffffff\n      and\n        /* \"@openzeppelin/contracts/access/Ownable.sol\":1703:1716  return _owner */\n      swap1\n      pop\n        /* \"@openzeppelin/contracts/access/Ownable.sol\":1638:1723  function owner() public view virtual returns (address) {... */\n      swap1\n      jump\t// out\n        /* \"SimpleDex.sol\":1619:2195  function addLiquidity(uint256 amountA, uint256 amountB) external onlyOwner nonReentrant {... */\n    tag_56:\n        /* \"@openzeppelin/contracts/access/Ownable.sol\":1531:1544  _checkOwner() */\n      tag_140\n        /* \"@openzeppelin/contracts/access/Ownable.sol\":1531:1542  _checkOwner */\n      tag_98\n        /* \"@openzeppelin/contracts/access/Ownable.sol\":1531:1544  _checkOwner() */\n      jump\t// in\n    tag_140:\n        /* \"@openzeppelin/contracts/utils/ReentrancyGuard.sol\":2500:2521  _nonReentrantBefore() */\n      tag_142\n        /* \"@openzeppelin/contracts/utils/ReentrancyGuard.sol\":2500:2519  _nonReentrantBefore */\n      tag_104\n        /* \"@openzeppelin/contracts/utils/ReentrancyGuard.sol\":2500:2521  _nonReentrantBefore() */\n      jump\t// in\n    tag_142:\n        /* \"SimpleDex.sol\":1733:1734  0 */\n      0x00\n        /* \"SimpleDex.sol\":1722:1729  amountA */\n      dup3\n        /* \"SimpleDex.sol\":1722:1734  amountA == 0 */\n      eq\n        /* \"SimpleDex.sol\":1722:1750  amountA == 0 || amountB == 0 */\n      dup1\n      tag_144\n      jumpi\n      pop\n        /* \"SimpleDex.sol\":1749:1750  0 */\n      0x00\n        /* \"SimpleDex.sol\":1738:1745  amountB */\n      dup2\n        /* \"SimpleDex.sol\":1738:1750  amountB == 0 */\n      eq\n        /* \"SimpleDex.sol\":1722:1750  amountA == 0 || amountB == 0 */\n    tag_144:\n        /* \"SimpleDex.sol\":1718:1771  if (amountA == 0 || amountB == 0) revert ZeroAmount() */\n      iszero\n      tag_145\n      jumpi\n        /* \"SimpleDex.sol\":1759:1771  ZeroAmount() */\n      mload(0x40)\n      0x1f2a200500000000000000000000000000000000000000000000000000000000\n      dup2\n      mstore\n      0x04\n      add\n      mload(0x40)\n      dup1\n      swap2\n      sub\n      swap1\n      revert\n        /* \"SimpleDex.sol\":1718:1771  if (amountA == 0 || amountB == 0) revert ZeroAmount() */\n    tag_145:\n        /* \"SimpleDex.sol\":1839:1845  tokenA */\n      0x02\n      0x00\n      swap1\n      sload\n      swap1\n      0x0100\n      exp\n      swap1\n      div\n      0xffffffffffffffffffffffffffffffffffffffff\n      and\n        /* \"SimpleDex.sol\":1839:1858  tokenA.transferFrom */\n      0xffffffffffffffffffffffffffffffffffffffff\n      and\n      0x23b872dd\n        /* \"SimpleDex.sol\":1859:1869  msg.sender */\n      caller\n        /* \"SimpleDex.sol\":1879:1883  this */\n      address\n        /* \"SimpleDex.sol\":1886:1893  amountA */\n      dup6\n        /* \"SimpleDex.sol\":1839:1894  tokenA.transferFrom(msg.sender, address(this), amountA) */\n      mload(0x40)\n      dup5\n      0xffffffff\n      and\n      0xe0\n      shl\n      dup2\n      mstore\n      0x04\n      add\n      tag_146\n      swap4\n      swap3\n      swap2\n      swap1\n      tag_120\n      jump\t// in\n    tag_146:\n      0x20\n      mload(0x40)\n      dup1\n      dup4\n      sub\n      dup2\n      0x00\n      dup8\n      gas\n      call\n      iszero\n      dup1\n      iszero\n      tag_148\n      jumpi\n      returndatacopy(0x00, 0x00, returndatasize)\n      revert(0x00, returndatasize)\n    tag_148:\n      pop\n      pop\n      pop\n      pop\n      mload(0x40)\n      returndatasize\n      not(0x1f)\n      0x1f\n      dup3\n      add\n      and\n      dup3\n      add\n      dup1\n      0x40\n      mstore\n      pop\n      dup2\n      add\n      swap1\n      tag_149\n      swap2\n      swap1\n      tag_124\n      jump\t// in\n    tag_149:\n        /* \"SimpleDex.sol\":1834:1919  if (!tokenA.transferFrom(msg.sender, address(this), amountA)) revert TransferFailed() */\n      tag_150\n      jumpi\n        /* \"SimpleDex.sol\":1903:1919  TransferFailed() */\n      mload(0x40)\n      0x90b8ec1800000000000000000000000000000000000000000000000000000000\n      dup2\n      mstore\n      0x04\n      add\n      mload(0x40)\n      dup1\n      swap2\n      sub\n      swap1\n      revert\n        /* \"SimpleDex.sol\":1834:1919  if (!tokenA.transferFrom(msg.sender, address(this), amountA)) revert TransferFailed() */\n    tag_150:\n        /* \"SimpleDex.sol\":1935:1941  tokenB */\n      0x03\n      0x00\n      swap1\n      sload\n      swap1\n      0x0100\n      exp\n      swap1\n      div\n      0xffffffffffffffffffffffffffffffffffffffff\n      and\n        /* \"SimpleDex.sol\":1935:1954  tokenB.transferFrom */\n      0xffffffffffffffffffffffffffffffffffffffff\n      and\n      0x23b872dd\n        /* \"SimpleDex.sol\":1955:1965  msg.sender */\n      caller\n        /* \"SimpleDex.sol\":1975:1979  this */\n      address\n        /* \"SimpleDex.sol\":1982:1989  amountB */\n      dup5\n        /* \"SimpleDex.sol\":1935:1990  tokenB.transferFrom(msg.sender, address(this), amountB) */\n      mload(0x40)\n      dup5\n      0xffffffff\n      and\n      0xe0\n      shl\n      dup2\n      mstore\n      0x04\n      add\n      tag_151\n      swap4\n      swap3\n      swap2\n      swap1\n      tag_120\n      jump\t// in\n    tag_151:\n      0x20\n      mload(0x40)\n      dup1\n      dup4\n      sub\n      dup2\n      0x00\n      dup8\n      gas\n      call\n      iszero\n      dup1\n      iszero\n      tag_153\n      jumpi\n      returndatacopy(0x00, 0x00, returndatasize)\n      revert(0x00, returndatasize)\n    tag_153:\n      pop\n      pop\n      pop\n      pop\n      mload(0x40)\n      returndatasize\n      not(0x1f)\n      0x1f\n      dup3\n      add\n      and\n      dup3\n      add\n      dup1\n      0x40\n      mstore\n      pop\n      dup2\n      add\n      swap1\n      tag_154\n      swap2\n      swap1\n      tag_124\n      jump\t// in\n    tag_154:\n        /* \"SimpleDex.sol\":1930:2015  if (!tokenB.transferFrom(msg.sender, address(this), amountB)) revert TransferFailed() */\n      tag_155\n      jumpi\n        /* \"SimpleDex.sol\":1999:2015  TransferFailed() */\n      mload(0x40)\n      0x90b8ec1800000000000000000000000000000000000000000000000000000000\n      dup2\n      mstore\n      0x04\n      add\n      mload(0x40)\n      dup1\n      swap2\n      sub\n      swap1\n      revert\n        /* \"SimpleDex.sol\":1930:2015  if (!tokenB.transferFrom(msg.sender, address(this), amountB)) revert TransferFailed() */\n    tag_155:\n        /* \"SimpleDex.sol\":2080:2087  amountA */\n      dup2\n        /* \"SimpleDex.sol\":2068:2076  reserveA */\n      0x04\n      0x00\n        /* \"SimpleDex.sol\":2068:2087  reserveA += amountA */\n      dup3\n      dup3\n      sload\n      tag_156\n      swap2\n      swap1\n      tag_115\n      jump\t// in\n    tag_156:\n      swap3\n      pop\n      pop\n      dup2\n      swap1\n      sstore\n      pop\n        /* \"SimpleDex.sol\":2110:2117  amountB */\n      dup1\n        /* \"SimpleDex.sol\":2098:2106  reserveB */\n      0x05\n      0x00\n        /* \"SimpleDex.sol\":2098:2117  reserveB += amountB */\n      dup3\n      dup3\n      sload\n      tag_157\n      swap2\n      swap1\n      tag_115\n      jump\t// in\n    tag_157:\n      swap3\n      pop\n      pop\n      dup2\n      swap1\n      sstore\n      pop\n        /* \"SimpleDex.sol\":2158:2168  msg.sender */\n      caller\n        /* \"SimpleDex.sol\":2143:2187  LiquidityAdded(msg.sender, amountA, amountB) */\n      0xffffffffffffffffffffffffffffffffffffffff\n      and\n      0xac1d76749e5447b7b16f5ab61447e1bd502f3bb4807af3b28e620d1700a6ee45\n        /* \"SimpleDex.sol\":2170:2177  amountA */\n      dup4\n        /* \"SimpleDex.sol\":2179:2186  amountB */\n      dup4\n        /* \"SimpleDex.sol\":2143:2187  LiquidityAdded(msg.sender, amountA, amountB) */\n      mload(0x40)\n      tag_158\n      swap3\n      swap2\n      swap1\n      tag_26\n      jump\t// in\n    tag_158:\n      mload(0x40)\n      dup1\n      swap2\n      sub\n      swap1\n      log2\n        /* \"@openzeppelin/contracts/utils/ReentrancyGuard.sol\":2542:2562  _nonReentrantAfter() */\n      tag_159\n        /* \"@openzeppelin/contracts/utils/ReentrancyGuard.sol\":2542:2560  _nonReentrantAfter */\n      tag_137\n        /* \"@openzeppelin/contracts/utils/ReentrancyGuard.sol\":2542:2562  _nonReentrantAfter() */\n      jump\t// in\n    tag_159:\n        /* \"SimpleDex.sol\":1619:2195  function addLiquidity(uint256 amountA, uint256 amountB) external onlyOwner nonReentrant {... */\n      pop\n      pop\n      jump\t// out\n        /* \"SimpleDex.sol\":5060:5697  function removeLiquidity(uint256 amountA, uint256 amountB) external onlyOwner nonReentrant {... */\n    tag_59:\n        /* \"@openzeppelin/contracts/access/Ownable.sol\":1531:1544  _checkOwner() */\n      tag_161\n        /* \"@openzeppelin/contracts/access/Ownable.sol\":1531:1542  _checkOwner */\n      tag_98\n        /* \"@openzeppelin/contracts/access/Ownable.sol\":1531:1544  _checkOwner() */\n      jump\t// in\n    tag_161:\n        /* \"@openzeppelin/contracts/utils/ReentrancyGuard.sol\":2500:2521  _nonReentrantBefore() */\n      tag_163\n        /* \"@openzeppelin/contracts/utils/ReentrancyGuard.sol\":2500:2519  _nonReentrantBefore */\n      tag_104\n        /* \"@openzeppelin/contracts/utils/ReentrancyGuard.sol\":2500:2521  _nonReentrantBefore() */\n      jump\t// in\n    tag_163:\n        /* \"SimpleDex.sol\":5177:5178  0 */\n      0x00\n        /* \"SimpleDex.sol\":5166:5173  amountA */\n      dup3\n        /* \"SimpleDex.sol\":5166:5178  amountA == 0 */\n      eq\n        /* \"SimpleDex.sol\":5166:5194  amountA == 0 || amountB == 0 */\n      dup1\n      tag_165\n      jumpi\n      pop\n        /* \"SimpleDex.sol\":5193:5194  0 */\n      0x00\n        /* \"SimpleDex.sol\":5182:5189  amountB */\n      dup2\n        /* \"SimpleDex.sol\":5182:5194  amountB == 0 */\n      eq\n        /* \"SimpleDex.sol\":5166:5194  amountA == 0 || amountB == 0 */\n    tag_165:\n        /* \"SimpleDex.sol\":5162:5215  if (amountA == 0 || amountB == 0) revert ZeroAmount() */\n      iszero\n      tag_166\n      jumpi\n        /* \"SimpleDex.sol\":5203:5215  ZeroAmount() */\n      mload(0x40)\n      0x1f2a200500000000000000000000000000000000000000000000000000000000\n      dup2\n      mstore\n      0x04\n      add\n      mload(0x40)\n      dup1\n      swap2\n      sub\n      swap1\n      revert\n        /* \"SimpleDex.sol\":5162:5215  if (amountA == 0 || amountB == 0) revert ZeroAmount() */\n    tag_166:\n        /* \"SimpleDex.sol\":5240:5248  reserveA */\n      sload(0x04)\n        /* \"SimpleDex.sol\":5230:5237  amountA */\n      dup3\n        /* \"SimpleDex.sol\":5230:5248  amountA > reserveA */\n      gt\n        /* \"SimpleDex.sol\":5230:5270  amountA > reserveA || amountB > reserveB */\n      dup1\n      tag_167\n      jumpi\n      pop\n        /* \"SimpleDex.sol\":5262:5270  reserveB */\n      sload(0x05)\n        /* \"SimpleDex.sol\":5252:5259  amountB */\n      dup2\n        /* \"SimpleDex.sol\":5252:5270  amountB > reserveB */\n      gt\n        /* \"SimpleDex.sol\":5230:5270  amountA > reserveA || amountB > reserveB */\n    tag_167:\n        /* \"SimpleDex.sol\":5226:5302  if (amountA > reserveA || amountB > reserveB) revert InsufficientLiquidity() */\n      iszero\n      tag_168\n      jumpi\n        /* \"SimpleDex.sol\":5279:5302  InsufficientLiquidity() */\n      mload(0x40)\n      0xbb55fd2700000000000000000000000000000000000000000000000000000000\n      dup2\n      mstore\n      0x04\n      add\n      mload(0x40)\n      dup1\n      swap2\n      sub\n      swap1\n      revert\n        /* \"SimpleDex.sol\":5226:5302  if (amountA > reserveA || amountB > reserveB) revert InsufficientLiquidity() */\n    tag_168:\n        /* \"SimpleDex.sol\":5377:5383  tokenA */\n      0x02\n      0x00\n      swap1\n      sload\n      swap1\n      0x0100\n      exp\n      swap1\n      div\n      0xffffffffffffffffffffffffffffffffffffffff\n      and\n        /* \"SimpleDex.sol\":5377:5392  tokenA.transfer */\n      0xffffffffffffffffffffffffffffffffffffffff\n      and\n      0xa9059cbb\n        /* \"SimpleDex.sol\":5393:5403  msg.sender */\n      caller\n        /* \"SimpleDex.sol\":5405:5412  amountA */\n      dup5\n        /* \"SimpleDex.sol\":5377:5413  tokenA.transfer(msg.sender, amountA) */\n      mload(0x40)\n      dup4\n      0xffffffff\n      and\n      0xe0\n      shl\n      dup2\n      mstore\n      0x04\n      add\n      tag_169\n      swap3\n      swap2\n      swap1\n      tag_127\n      jump\t// in\n    tag_169:\n      0x20\n      mload(0x40)\n      dup1\n      dup4\n      sub\n      dup2\n      0x00\n      dup8\n      gas\n      call\n      iszero\n      dup1\n      iszero\n      tag_171\n      jumpi\n      returndatacopy(0x00, 0x00, returndatasize)\n      revert(0x00, returndatasize)\n    tag_171:\n      pop\n      pop\n      pop\n      pop\n      mload(0x40)\n      returndatasize\n      not(0x1f)\n      0x1f\n      dup3\n      add\n      and\n      dup3\n      add\n      dup1\n      0x40\n      mstore\n      pop\n      dup2\n      add\n      swap1\n      tag_172\n      swap2\n      swap1\n      tag_124\n      jump\t// in\n    tag_172:\n        /* \"SimpleDex.sol\":5372:5438  if (!tokenA.transfer(msg.sender, amountA)) revert TransferFailed() */\n      tag_173\n      jumpi\n        /* \"SimpleDex.sol\":5422:5438  TransferFailed() */\n      mload(0x40)\n      0x90b8ec1800000000000000000000000000000000000000000000000000000000\n      dup2\n      mstore\n      0x04\n      add\n      mload(0x40)\n      dup1\n      swap2\n      sub\n      swap1\n      revert\n        /* \"SimpleDex.sol\":5372:5438  if (!tokenA.transfer(msg.sender, amountA)) revert TransferFailed() */\n    tag_173:\n        /* \"SimpleDex.sol\":5454:5460  tokenB */\n      0x03\n      0x00\n      swap1\n      sload\n      swap1\n      0x0100\n      exp\n      swap1\n      div\n      0xffffffffffffffffffffffffffffffffffffffff\n      and\n        /* \"SimpleDex.sol\":5454:5469  tokenB.transfer */\n      0xffffffffffffffffffffffffffffffffffffffff\n      and\n      0xa9059cbb\n        /* \"SimpleDex.sol\":5470:5480  msg.sender */\n      caller\n        /* \"SimpleDex.sol\":5482:5489  amountB */\n      dup4\n        /* \"SimpleDex.sol\":5454:5490  tokenB.transfer(msg.sender, amountB) */\n      mload(0x40)\n      dup4\n      0xffffffff\n      and\n      0xe0\n      shl\n      dup2\n      mstore\n      0x04\n      add\n      tag_174\n      swap3\n      swap2\n      swap1\n      tag_127\n      jump\t// in\n    tag_174:\n      0x20\n      mload(0x40)\n      dup1\n      dup4\n      sub\n      dup2\n      0x00\n      dup8\n      gas\n      call\n      iszero\n      dup1\n      iszero\n      tag_176\n      jumpi\n      returndatacopy(0x00, 0x00, returndatasize)\n      revert(0x00, returndatasize)\n    tag_176:\n      pop\n      pop\n      pop\n      pop\n      mload(0x40)\n      returndatasize\n      not(0x1f)\n      0x1f\n      dup3\n      add\n      and\n      dup3\n      add\n      dup1\n      0x40\n      mstore\n      pop\n      dup2\n      add\n      swap1\n      tag_177\n      swap2\n      swap1\n      tag_124\n      jump\t// in\n    tag_177:\n        /* \"SimpleDex.sol\":5449:5515  if (!tokenB.transfer(msg.sender, amountB)) revert TransferFailed() */\n      tag_178\n      jumpi\n        /* \"SimpleDex.sol\":5499:5515  TransferFailed() */\n      mload(0x40)\n      0x90b8ec1800000000000000000000000000000000000000000000000000000000\n      dup2\n      mstore\n      0x04\n      add\n      mload(0x40)\n      dup1\n      swap2\n      sub\n      swap1\n      revert\n        /* \"SimpleDex.sol\":5449:5515  if (!tokenB.transfer(msg.sender, amountB)) revert TransferFailed() */\n    tag_178:\n        /* \"SimpleDex.sol\":5580:5587  amountA */\n      dup2\n        /* \"SimpleDex.sol\":5568:5576  reserveA */\n      0x04\n      0x00\n        /* \"SimpleDex.sol\":5568:5587  reserveA -= amountA */\n      dup3\n      dup3\n      sload\n      tag_179\n      swap2\n      swap1\n      tag_110\n      jump\t// in\n    tag_179:\n      swap3\n      pop\n      pop\n      dup2\n      swap1\n      sstore\n      pop\n        /* \"SimpleDex.sol\":5610:5617  amountB */\n      dup1\n        /* \"SimpleDex.sol\":5598:5606  reserveB */\n      0x05\n      0x00\n        /* \"SimpleDex.sol\":5598:5617  reserveB -= amountB */\n      dup3\n      dup3\n      sload\n      tag_180\n      swap2\n      swap1\n      tag_110\n      jump\t// in\n    tag_180:\n      swap3\n      pop\n      pop\n      dup2\n      swap1\n      sstore\n      pop\n        /* \"SimpleDex.sol\":5660:5670  msg.sender */\n      caller\n        /* \"SimpleDex.sol\":5643:5689  LiquidityRemoved(msg.sender, amountA, amountB) */\n      0xffffffffffffffffffffffffffffffffffffffff\n      and\n      0x96cd817c6329656790ef8fba7675405193677d39619571282f5e21f3a98cd059\n        /* \"SimpleDex.sol\":5672:5679  amountA */\n      dup4\n        /* \"SimpleDex.sol\":5681:5688  amountB */\n      dup4\n        /* \"SimpleDex.sol\":5643:5689  LiquidityRemoved(msg.sender, amountA, amountB) */\n      mload(0x40)\n      tag_181\n      swap3\n      swap2\n      swap1\n      tag_26\n      jump\t// in\n    tag_181:\n      mload(0x40)\n      dup1\n      swap2\n      sub\n      swap1\n      log2\n        /* \"@openzeppelin/contracts/utils/ReentrancyGuard.sol\":2542:2562  _nonReentrantAfter() */\n      tag_182\n        /* \"@openzeppelin/contracts/utils/ReentrancyGuard.sol\":2542:2560  _nonReentrantAfter */\n      tag_137\n        /* \"@openzeppelin/contracts/utils/ReentrancyGuard.sol\":2542:2562  _nonReentrantAfter() */\n      jump\t// in\n    tag_182:\n        /* \"SimpleDex.sol\":5060:5697  function removeLiquidity(uint256 amountA, uint256 amountB) external onlyOwner nonReentrant {... */\n      pop\n      pop\n      jump\t// out\n        /* \"SimpleDex.sol\":6755:7580  function getAmountOut(address tokenIn, uint256 amountIn) external view returns (uint256 amountOut) {... */\n    tag_63:\n        /* \"SimpleDex.sol\":6835:6852  uint256 amountOut */\n      0x00\n        /* \"SimpleDex.sol\":6881:6882  0 */\n      0x00\n        /* \"SimpleDex.sol\":6869:6877  amountIn */\n      dup3\n        /* \"SimpleDex.sol\":6869:6882  amountIn == 0 */\n      sub\n        /* \"SimpleDex.sol\":6865:6892  if (amountIn == 0) return 0 */\n      tag_184\n      jumpi\n        /* \"SimpleDex.sol\":6891:6892  0 */\n      0x00\n        /* \"SimpleDex.sol\":6884:6892  return 0 */\n      swap1\n      pop\n      jump(tag_183)\n        /* \"SimpleDex.sol\":6865:6892  if (amountIn == 0) return 0 */\n    tag_184:\n        /* \"SimpleDex.sol\":6919:6920  0 */\n      0x00\n        /* \"SimpleDex.sol\":6907:6915  reserveA */\n      sload(0x04)\n        /* \"SimpleDex.sol\":6907:6920  reserveA == 0 */\n      eq\n        /* \"SimpleDex.sol\":6907:6937  reserveA == 0 || reserveB == 0 */\n      dup1\n      tag_185\n      jumpi\n      pop\n        /* \"SimpleDex.sol\":6936:6937  0 */\n      0x00\n        /* \"SimpleDex.sol\":6924:6932  reserveB */\n      sload(0x05)\n        /* \"SimpleDex.sol\":6924:6937  reserveB == 0 */\n      eq\n        /* \"SimpleDex.sol\":6907:6937  reserveA == 0 || reserveB == 0 */\n    tag_185:\n        /* \"SimpleDex.sol\":6903:6947  if (reserveA == 0 || reserveB == 0) return 0 */\n      iszero\n      tag_186\n      jumpi\n        /* \"SimpleDex.sol\":6946:6947  0 */\n      0x00\n        /* \"SimpleDex.sol\":6939:6947  return 0 */\n      swap1\n      pop\n      jump(tag_183)\n        /* \"SimpleDex.sol\":6903:6947  if (reserveA == 0 || reserveB == 0) return 0 */\n    tag_186:\n        /* \"SimpleDex.sol\":6968:6991  uint256 amountInWithFee */\n      0x00\n        /* \"SimpleDex.sol\":544:549  10000 */\n      0x2710\n        /* \"SimpleDex.sol\":493:495  30 */\n      0x1e\n        /* \"SimpleDex.sol\":544:549  10000 */\n      0x2710\n        /* \"SimpleDex.sol\":7007:7036  FEE_DENOMINATOR - FEE_PERCENT */\n      tag_187\n      swap2\n      swap1\n      tag_110\n      jump\t// in\n    tag_187:\n        /* \"SimpleDex.sol\":6995:7003  amountIn */\n      dup5\n        /* \"SimpleDex.sol\":6995:7037  amountIn * (FEE_DENOMINATOR - FEE_PERCENT) */\n      tag_188\n      swap2\n      swap1\n      tag_88\n      jump\t// in\n    tag_188:\n        /* \"SimpleDex.sol\":6994:7056  (amountIn * (FEE_DENOMINATOR - FEE_PERCENT)) / FEE_DENOMINATOR */\n      tag_189\n      swap2\n      swap1\n      tag_90\n      jump\t// in\n    tag_189:\n        /* \"SimpleDex.sol\":6968:7056  uint256 amountInWithFee = (amountIn * (FEE_DENOMINATOR - FEE_PERCENT)) / FEE_DENOMINATOR */\n      swap1\n      pop\n        /* \"SimpleDex.sol\":7100:7106  tokenA */\n      0x02\n      0x00\n      swap1\n      sload\n      swap1\n      0x0100\n      exp\n      swap1\n      div\n      0xffffffffffffffffffffffffffffffffffffffff\n      and\n        /* \"SimpleDex.sol\":7081:7107  tokenIn == address(tokenA) */\n      0xffffffffffffffffffffffffffffffffffffffff\n      and\n        /* \"SimpleDex.sol\":7081:7088  tokenIn */\n      dup5\n        /* \"SimpleDex.sol\":7081:7107  tokenIn == address(tokenA) */\n      0xffffffffffffffffffffffffffffffffffffffff\n      and\n      sub\n        /* \"SimpleDex.sol\":7077:7573  if (tokenIn == address(tokenA)) {... */\n      tag_190\n      jumpi\n        /* \"SimpleDex.sol\":7124:7141  uint256 numerator */\n      0x00\n        /* \"SimpleDex.sol\":7162:7170  reserveB */\n      sload(0x05)\n        /* \"SimpleDex.sol\":7144:7159  amountInWithFee */\n      dup3\n        /* \"SimpleDex.sol\":7144:7170  amountInWithFee * reserveB */\n      tag_191\n      swap2\n      swap1\n      tag_88\n      jump\t// in\n    tag_191:\n        /* \"SimpleDex.sol\":7124:7170  uint256 numerator = amountInWithFee * reserveB */\n      swap1\n      pop\n        /* \"SimpleDex.sol\":7185:7204  uint256 denominator */\n      0x00\n        /* \"SimpleDex.sol\":7218:7233  amountInWithFee */\n      dup3\n        /* \"SimpleDex.sol\":7207:7215  reserveA */\n      sload(0x04)\n        /* \"SimpleDex.sol\":7207:7233  reserveA + amountInWithFee */\n      tag_192\n      swap2\n      swap1\n      tag_115\n      jump\t// in\n    tag_192:\n        /* \"SimpleDex.sol\":7185:7233  uint256 denominator = reserveA + amountInWithFee */\n      swap1\n      pop\n        /* \"SimpleDex.sol\":7272:7283  denominator */\n      dup1\n        /* \"SimpleDex.sol\":7260:7269  numerator */\n      dup3\n        /* \"SimpleDex.sol\":7260:7283  numerator / denominator */\n      tag_193\n      swap2\n      swap1\n      tag_90\n      jump\t// in\n    tag_193:\n        /* \"SimpleDex.sol\":7248:7283  amountOut = numerator / denominator */\n      swap4\n      pop\n        /* \"SimpleDex.sol\":7109:7295  {... */\n      pop\n      pop\n        /* \"SimpleDex.sol\":7077:7573  if (tokenIn == address(tokenA)) {... */\n      jump(tag_194)\n    tag_190:\n        /* \"SimpleDex.sol\":7324:7330  tokenB */\n      0x03\n      0x00\n      swap1\n      sload\n      swap1\n      0x0100\n      exp\n      swap1\n      div\n      0xffffffffffffffffffffffffffffffffffffffff\n      and\n        /* \"SimpleDex.sol\":7305:7331  tokenIn == address(tokenB) */\n      0xffffffffffffffffffffffffffffffffffffffff\n      and\n        /* \"SimpleDex.sol\":7305:7312  tokenIn */\n      dup5\n        /* \"SimpleDex.sol\":7305:7331  tokenIn == address(tokenB) */\n      0xffffffffffffffffffffffffffffffffffffffff\n      and\n      sub\n        /* \"SimpleDex.sol\":7301:7573  if (tokenIn == address(tokenB)) {... */\n      tag_195\n      jumpi\n        /* \"SimpleDex.sol\":7348:7365  uint256 numerator */\n      0x00\n        /* \"SimpleDex.sol\":7386:7394  reserveA */\n      sload(0x04)\n        /* \"SimpleDex.sol\":7368:7383  amountInWithFee */\n      dup3\n        /* \"SimpleDex.sol\":7368:7394  amountInWithFee * reserveA */\n      tag_196\n      swap2\n      swap1\n      tag_88\n      jump\t// in\n    tag_196:\n        /* \"SimpleDex.sol\":7348:7394  uint256 numerator = amountInWithFee * reserveA */\n      swap1\n      pop\n        /* \"SimpleDex.sol\":7409:7428  uint256 denominator */\n      0x00\n        /* \"SimpleDex.sol\":7442:7457  amountInWithFee */\n      dup3\n        /* \"SimpleDex.sol\":7431:7439  reserveB */\n      sload(0x05)\n        /* \"SimpleDex.sol\":7431:7457  reserveB + amountInWithFee */\n      tag_197\n      swap2\n      swap1\n      tag_115\n      jump\t// in\n    tag_197:\n        /* \"SimpleDex.sol\":7409:7457  uint256 denominator = reserveB + amountInWithFee */\n      swap1\n      pop\n        /* \"SimpleDex.sol\":7496:7507  denominator */\n      dup1\n        /* \"SimpleDex.sol\":7484:7493  numerator */\n      dup3\n        /* \"SimpleDex.sol\":7484:7507  numerator / denominator */\n      tag_198\n      swap2\n      swap1\n      tag_90\n      jump\t// in\n    tag_198:\n        /* \"SimpleDex.sol\":7472:7507  amountOut = numerator / denominator */\n      swap4\n      pop\n        /* \"SimpleDex.sol\":7333:7519  {... */\n      pop\n      pop\n        /* \"SimpleDex.sol\":7301:7573  if (tokenIn == address(tokenB)) {... */\n      jump(tag_199)\n    tag_195:\n        /* \"SimpleDex.sol\":7547:7561  InvalidToken() */\n      mload(0x40)\n      0xc1ab6dc100000000000000000000000000000000000000000000000000000000\n      dup2\n      mstore\n      0x04\n      add\n      mload(0x40)\n      dup1\n      swap2\n      sub\n      swap1\n      revert\n        /* \"SimpleDex.sol\":7301:7573  if (tokenIn == address(tokenB)) {... */\n    tag_199:\n        /* \"SimpleDex.sol\":7077:7573  if (tokenIn == address(tokenA)) {... */\n    tag_194:\n        /* \"SimpleDex.sol\":6854:7580  {... */\n      pop\n        /* \"SimpleDex.sol\":6755:7580  function getAmountOut(address tokenIn, uint256 amountIn) external view returns (uint256 amountOut) {... */\n    tag_183:\n      swap3\n      swap2\n      pop\n      pop\n      jump\t// out\n        /* \"SimpleDex.sol\":502:549  uint256 public constant FEE_DENOMINATOR = 10000 */\n    tag_66:\n        /* \"SimpleDex.sol\":544:549  10000 */\n      0x2710\n        /* \"SimpleDex.sol\":502:549  uint256 public constant FEE_DENOMINATOR = 10000 */\n      dup2\n      jump\t// out\n        /* \"SimpleDex.sol\":8003:8431  function emergencyWithdraw() external onlyOwner {... */\n    tag_69:\n        /* \"@openzeppelin/contracts/access/Ownable.sol\":1531:1544  _checkOwner() */\n      tag_201\n        /* \"@openzeppelin/contracts/access/Ownable.sol\":1531:1542  _checkOwner */\n      tag_98\n        /* \"@openzeppelin/contracts/access/Ownable.sol\":1531:1544  _checkOwner() */\n      jump\t// in\n    tag_201:\n        /* \"SimpleDex.sol\":8062:8078  uint256 balanceA */\n      0x00\n        /* \"SimpleDex.sol\":8081:8087  tokenA */\n      0x02\n      0x00\n      swap1\n      sload\n      swap1\n      0x0100\n      exp\n      swap1\n      div\n      0xffffffffffffffffffffffffffffffffffffffff\n      and\n        /* \"SimpleDex.sol\":8081:8097  tokenA.balanceOf */\n      0xffffffffffffffffffffffffffffffffffffffff\n      and\n      0x70a08231\n        /* \"SimpleDex.sol\":8106:8110  this */\n      address\n        /* \"SimpleDex.sol\":8081:8112  tokenA.balanceOf(address(this)) */\n      mload(0x40)\n      dup3\n      0xffffffff\n      and\n      0xe0\n      shl\n      dup2\n      mstore\n      0x04\n      add\n      tag_203\n      swap2\n      swap1\n      tag_52\n      jump\t// in\n    tag_203:\n      0x20\n      mload(0x40)\n      dup1\n      dup4\n      sub\n      dup2\n      dup7\n      gas\n      staticcall\n      iszero\n      dup1\n      iszero\n      tag_205\n      jumpi\n      returndatacopy(0x00, 0x00, returndatasize)\n      revert(0x00, returndatasize)\n    tag_205:\n      pop\n      pop\n      pop\n      pop\n      mload(0x40)\n      returndatasize\n      not(0x1f)\n      0x1f\n      dup3\n      add\n      and\n      dup3\n      add\n      dup1\n      0x40\n      mstore\n      pop\n      dup2\n      add\n      swap1\n      tag_206\n      swap2\n      swap1\n      tag_207\n      jump\t// in\n    tag_206:\n        /* \"SimpleDex.sol\":8062:8112  uint256 balanceA = tokenA.balanceOf(address(this)) */\n      swap1\n      pop\n        /* \"SimpleDex.sol\":8123:8139  uint256 balanceB */\n      0x00\n        /* \"SimpleDex.sol\":8142:8148  tokenB */\n      0x03\n      0x00\n      swap1\n      sload\n      swap1\n      0x0100\n      exp\n      swap1\n      div\n      0xffffffffffffffffffffffffffffffffffffffff\n      and\n        /* \"SimpleDex.sol\":8142:8158  tokenB.balanceOf */\n      0xffffffffffffffffffffffffffffffffffffffff\n      and\n      0x70a08231\n        /* \"SimpleDex.sol\":8167:8171  this */\n      address\n        /* \"SimpleDex.sol\":8142:8173  tokenB.balanceOf(address(this)) */\n      mload(0x40)\n      dup3\n      0xffffffff\n      and\n      0xe0\n      shl\n      dup2\n      mstore\n      0x04\n      add\n      tag_208\n      swap2\n      swap1\n      tag_52\n      jump\t// in\n    tag_208:\n      0x20\n      mload(0x40)\n      dup1\n      dup4\n      sub\n      dup2\n      dup7\n      gas\n      staticcall\n      iszero\n      dup1\n      iszero\n      tag_210\n      jumpi\n      returndatacopy(0x00, 0x00, returndatasize)\n      revert(0x00, returndatasize)\n    tag_210:\n      pop\n      pop\n      pop\n      pop\n      mload(0x40)\n      returndatasize\n      not(0x1f)\n      0x1f\n      dup3\n      add\n      and\n      dup3\n      add\n      dup1\n      0x40\n      mstore\n      pop\n      dup2\n      add\n      swap1\n      tag_211\n      swap2\n      swap1\n      tag_207\n      jump\t// in\n    tag_211:\n        /* \"SimpleDex.sol\":8123:8173  uint256 balanceB = tokenB.balanceOf(address(this)) */\n      swap1\n      pop\n        /* \"SimpleDex.sol\":8209:8210  0 */\n      0x00\n        /* \"SimpleDex.sol\":8198:8206  balanceA */\n      dup3\n        /* \"SimpleDex.sol\":8198:8210  balanceA > 0 */\n      gt\n        /* \"SimpleDex.sol\":8194:8276  if (balanceA > 0) {... */\n      iszero\n      tag_212\n      jumpi\n        /* \"SimpleDex.sol\":8227:8233  tokenA */\n      0x02\n      0x00\n      swap1\n      sload\n      swap1\n      0x0100\n      exp\n      swap1\n      div\n      0xffffffffffffffffffffffffffffffffffffffff\n      and\n        /* \"SimpleDex.sol\":8227:8242  tokenA.transfer */\n      0xffffffffffffffffffffffffffffffffffffffff\n      and\n      0xa9059cbb\n        /* \"SimpleDex.sol\":8243:8253  msg.sender */\n      caller\n        /* \"SimpleDex.sol\":8255:8263  balanceA */\n      dup5\n        /* \"SimpleDex.sol\":8227:8264  tokenA.transfer(msg.sender, balanceA) */\n      mload(0x40)\n      dup4\n      0xffffffff\n      and\n      0xe0\n      shl\n      dup2\n      mstore\n      0x04\n      add\n      tag_213\n      swap3\n      swap2\n      swap1\n      tag_127\n      jump\t// in\n    tag_213:\n      0x20\n      mload(0x40)\n      dup1\n      dup4\n      sub\n      dup2\n      0x00\n      dup8\n      gas\n      call\n      iszero\n      dup1\n      iszero\n      tag_215\n      jumpi\n      returndatacopy(0x00, 0x00, returndatasize)\n      revert(0x00, returndatasize)\n    tag_215:\n      pop\n      pop\n      pop\n      pop\n      mload(0x40)\n      returndatasize\n      not(0x1f)\n      0x1f\n      dup3\n      add\n      and\n      dup3\n      add\n      dup1\n      0x40\n      mstore\n      pop\n      dup2\n      add\n      swap1\n      tag_216\n      swap2\n      swap1\n      tag_124\n      jump\t// in\n    tag_216:\n      pop\n        /* \"SimpleDex.sol\":8194:8276  if (balanceA > 0) {... */\n    tag_212:\n        /* \"SimpleDex.sol\":8301:8302  0 */\n      0x00\n        /* \"SimpleDex.sol\":8290:8298  balanceB */\n      dup2\n        /* \"SimpleDex.sol\":8290:8302  balanceB > 0 */\n      gt\n        /* \"SimpleDex.sol\":8286:8368  if (balanceB > 0) {... */\n      iszero\n      tag_217\n      jumpi\n        /* \"SimpleDex.sol\":8319:8325  tokenB */\n      0x03\n      0x00\n      swap1\n      sload\n      swap1\n      0x0100\n      exp\n      swap1\n      div\n      0xffffffffffffffffffffffffffffffffffffffff\n      and\n        /* \"SimpleDex.sol\":8319:8334  tokenB.transfer */\n      0xffffffffffffffffffffffffffffffffffffffff\n      and\n      0xa9059cbb\n        /* \"SimpleDex.sol\":8335:8345  msg.sender */\n      caller\n        /* \"SimpleDex.sol\":8347:8355  balanceB */\n      dup4\n        /* \"SimpleDex.sol\":8319:8356  tokenB.transfer(msg.sender, balanceB) */\n      mload(0x40)\n      dup4\n      0xffffffff\n      and\n      0xe0\n      shl\n      dup2\n      mstore\n      0x04\n      add\n      tag_218\n      swap3\n      swap2\n      swap1\n      tag_127\n      jump\t// in\n    tag_218:\n      0x20\n      mload(0x40)\n      dup1\n      dup4\n      sub\n      dup2\n      0x00\n      dup8\n      gas\n      call\n      iszero\n      dup1\n      iszero\n      tag_220\n      jumpi\n      returndatacopy(0x00, 0x00, returndatasize)\n      revert(0x00, returndatasize)\n    tag_220:\n      pop\n      pop\n      pop\n      pop\n      mload(0x40)\n      returndatasize\n      not(0x1f)\n      0x1f\n      dup3\n      add\n      and\n      dup3\n      add\n      dup1\n      0x40\n      mstore\n      pop\n      dup2\n      add\n      swap1\n      tag_221\n      swap2\n      swap1\n      tag_124\n      jump\t// in\n    tag_221:\n      pop\n        /* \"SimpleDex.sol\":8286:8368  if (balanceB > 0) {... */\n    tag_217:\n        /* \"SimpleDex.sol\":8399:8400  0 */\n      0x00\n        /* \"SimpleDex.sol\":8388:8396  reserveA */\n      0x04\n        /* \"SimpleDex.sol\":8388:8400  reserveA = 0 */\n      dup2\n      swap1\n      sstore\n      pop\n        /* \"SimpleDex.sol\":8422:8423  0 */\n      0x00\n        /* \"SimpleDex.sol\":8411:8419  reserveB */\n      0x05\n        /* \"SimpleDex.sol\":8411:8423  reserveB = 0 */\n      dup2\n      swap1\n      sstore\n      pop\n        /* \"SimpleDex.sol\":8051:8431  {... */\n      pop\n      pop\n        /* \"SimpleDex.sol\":8003:8431  function emergencyWithdraw() external onlyOwner {... */\n      jump\t// out\n        /* \"SimpleDex.sol\":350:373  uint256 public reserveA */\n    tag_71:\n      sload(0x04)\n      dup2\n      jump\t// out\n        /* \"SimpleDex.sol\":2328:3541  function swapAforB(uint256 amountAIn) external nonReentrant {... */\n    tag_75:\n        /* \"@openzeppelin/contracts/utils/ReentrancyGuard.sol\":2500:2521  _nonReentrantBefore() */\n      tag_223\n        /* \"@openzeppelin/contracts/utils/ReentrancyGuard.sol\":2500:2519  _nonReentrantBefore */\n      tag_104\n        /* \"@openzeppelin/contracts/utils/ReentrancyGuard.sol\":2500:2521  _nonReentrantBefore() */\n      jump\t// in\n    tag_223:\n        /* \"SimpleDex.sol\":2416:2417  0 */\n      0x00\n        /* \"SimpleDex.sol\":2403:2412  amountAIn */\n      dup2\n        /* \"SimpleDex.sol\":2403:2417  amountAIn == 0 */\n      sub\n        /* \"SimpleDex.sol\":2399:2438  if (amountAIn == 0) revert ZeroAmount() */\n      tag_225\n      jumpi\n        /* \"SimpleDex.sol\":2426:2438  ZeroAmount() */\n      mload(0x40)\n      0x1f2a200500000000000000000000000000000000000000000000000000000000\n      dup2\n      mstore\n      0x04\n      add\n      mload(0x40)\n      dup1\n      swap2\n      sub\n      swap1\n      revert\n        /* \"SimpleDex.sol\":2399:2438  if (amountAIn == 0) revert ZeroAmount() */\n    tag_225:\n        /* \"SimpleDex.sol\":2465:2466  0 */\n      0x00\n        /* \"SimpleDex.sol\":2453:2461  reserveA */\n      sload(0x04)\n        /* \"SimpleDex.sol\":2453:2466  reserveA == 0 */\n      eq\n        /* \"SimpleDex.sol\":2453:2483  reserveA == 0 || reserveB == 0 */\n      dup1\n      tag_226\n      jumpi\n      pop\n        /* \"SimpleDex.sol\":2482:2483  0 */\n      0x00\n        /* \"SimpleDex.sol\":2470:2478  reserveB */\n      sload(0x05)\n        /* \"SimpleDex.sol\":2470:2483  reserveB == 0 */\n      eq\n        /* \"SimpleDex.sol\":2453:2483  reserveA == 0 || reserveB == 0 */\n    tag_226:\n        /* \"SimpleDex.sol\":2449:2515  if (reserveA == 0 || reserveB == 0) revert InsufficientLiquidity() */\n      iszero\n      tag_227\n      jumpi\n        /* \"SimpleDex.sol\":2492:2515  InsufficientLiquidity() */\n      mload(0x40)\n      0xbb55fd2700000000000000000000000000000000000000000000000000000000\n      dup2\n      mstore\n      0x04\n      add\n      mload(0x40)\n      dup1\n      swap2\n      sub\n      swap1\n      revert\n        /* \"SimpleDex.sol\":2449:2515  if (reserveA == 0 || reserveB == 0) revert InsufficientLiquidity() */\n    tag_227:\n        /* \"SimpleDex.sol\":2699:2723  uint256 amountAInWithFee */\n      0x00\n        /* \"SimpleDex.sol\":544:549  10000 */\n      0x2710\n        /* \"SimpleDex.sol\":493:495  30 */\n      0x1e\n        /* \"SimpleDex.sol\":544:549  10000 */\n      0x2710\n        /* \"SimpleDex.sol\":2740:2769  FEE_DENOMINATOR - FEE_PERCENT */\n      tag_228\n      swap2\n      swap1\n      tag_110\n      jump\t// in\n    tag_228:\n        /* \"SimpleDex.sol\":2727:2736  amountAIn */\n      dup4\n        /* \"SimpleDex.sol\":2727:2770  amountAIn * (FEE_DENOMINATOR - FEE_PERCENT) */\n      tag_229\n      swap2\n      swap1\n      tag_88\n      jump\t// in\n    tag_229:\n        /* \"SimpleDex.sol\":2726:2789  (amountAIn * (FEE_DENOMINATOR - FEE_PERCENT)) / FEE_DENOMINATOR */\n      tag_230\n      swap2\n      swap1\n      tag_90\n      jump\t// in\n    tag_230:\n        /* \"SimpleDex.sol\":2699:2789  uint256 amountAInWithFee = (amountAIn * (FEE_DENOMINATOR - FEE_PERCENT)) / FEE_DENOMINATOR */\n      swap1\n      pop\n        /* \"SimpleDex.sol\":2800:2817  uint256 numerator */\n      0x00\n        /* \"SimpleDex.sol\":2839:2847  reserveB */\n      sload(0x05)\n        /* \"SimpleDex.sol\":2820:2836  amountAInWithFee */\n      dup3\n        /* \"SimpleDex.sol\":2820:2847  amountAInWithFee * reserveB */\n      tag_231\n      swap2\n      swap1\n      tag_88\n      jump\t// in\n    tag_231:\n        /* \"SimpleDex.sol\":2800:2847  uint256 numerator = amountAInWithFee * reserveB */\n      swap1\n      pop\n        /* \"SimpleDex.sol\":2858:2877  uint256 denominator */\n      0x00\n        /* \"SimpleDex.sol\":2891:2907  amountAInWithFee */\n      dup3\n        /* \"SimpleDex.sol\":2880:2888  reserveA */\n      sload(0x04)\n        /* \"SimpleDex.sol\":2880:2907  reserveA + amountAInWithFee */\n      tag_232\n      swap2\n      swap1\n      tag_115\n      jump\t// in\n    tag_232:\n        /* \"SimpleDex.sol\":2858:2907  uint256 denominator = reserveA + amountAInWithFee */\n      swap1\n      pop\n        /* \"SimpleDex.sol\":2918:2936  uint256 amountBOut */\n      0x00\n        /* \"SimpleDex.sol\":2951:2962  denominator */\n      dup2\n        /* \"SimpleDex.sol\":2939:2948  numerator */\n      dup4\n        /* \"SimpleDex.sol\":2939:2962  numerator / denominator */\n      tag_233\n      swap2\n      swap1\n      tag_90\n      jump\t// in\n    tag_233:\n        /* \"SimpleDex.sol\":2918:2962  uint256 amountBOut = numerator / denominator */\n      swap1\n      pop\n        /* \"SimpleDex.sol\":3001:3002  0 */\n      0x00\n        /* \"SimpleDex.sol\":2987:2997  amountBOut */\n      dup2\n        /* \"SimpleDex.sol\":2987:3002  amountBOut == 0 */\n      sub\n        /* \"SimpleDex.sol\":2983:3031  if (amountBOut == 0) revert InsufficientAmount() */\n      tag_234\n      jumpi\n        /* \"SimpleDex.sol\":3011:3031  InsufficientAmount() */\n      mload(0x40)\n      0x5945ea5600000000000000000000000000000000000000000000000000000000\n      dup2\n      mstore\n      0x04\n      add\n      mload(0x40)\n      dup1\n      swap2\n      sub\n      swap1\n      revert\n        /* \"SimpleDex.sol\":2983:3031  if (amountBOut == 0) revert InsufficientAmount() */\n    tag_234:\n        /* \"SimpleDex.sol\":3060:3068  reserveB */\n      sload(0x05)\n        /* \"SimpleDex.sol\":3046:3056  amountBOut */\n      dup2\n        /* \"SimpleDex.sol\":3046:3068  amountBOut >= reserveB */\n      lt\n        /* \"SimpleDex.sol\":3042:3100  if (amountBOut >= reserveB) revert InsufficientLiquidity() */\n      tag_235\n      jumpi\n        /* \"SimpleDex.sol\":3077:3100  InsufficientLiquidity() */\n      mload(0x40)\n      0xbb55fd2700000000000000000000000000000000000000000000000000000000\n      dup2\n      mstore\n      0x04\n      add\n      mload(0x40)\n      dup1\n      swap2\n      sub\n      swap1\n      revert\n        /* \"SimpleDex.sol\":3042:3100  if (amountBOut >= reserveB) revert InsufficientLiquidity() */\n    tag_235:\n        /* \"SimpleDex.sol\":3156:3162  tokenA */\n      0x02\n      0x00\n      swap1\n      sload\n      swap1\n      0x0100\n      exp\n      swap1\n      div\n      0xffffffffffffffffffffffffffffffffffffffff\n      and\n        /* \"SimpleDex.sol\":3156:3175  tokenA.transferFrom */\n      0xffffffffffffffffffffffffffffffffffffffff\n      and\n      0x23b872dd\n        /* \"SimpleDex.sol\":3176:3186  msg.sender */\n      caller\n        /* \"SimpleDex.sol\":3196:3200  this */\n      address\n        /* \"SimpleDex.sol\":3203:3212  amountAIn */\n      dup9\n        /* \"SimpleDex.sol\":3156:3213  tokenA.transferFrom(msg.sender, address(this), amountAIn) */\n      mload(0x40)\n      dup5\n      0xffffffff\n      and\n      0xe0\n      shl\n      dup2\n      mstore\n      0x04\n      add\n      tag_236\n      swap4\n      swap3\n      swap2\n      swap1\n      tag_120\n      jump\t// in\n    tag_236:\n      0x20\n      mload(0x40)\n      dup1\n      dup4\n      sub\n      dup2\n      0x00\n      dup8\n      gas\n      call\n      iszero\n      dup1\n      iszero\n      tag_238\n      jumpi\n      returndatacopy(0x00, 0x00, returndatasize)\n      revert(0x00, returndatasize)\n    tag_238:\n      pop\n      pop\n      pop\n      pop\n      mload(0x40)\n      returndatasize\n      not(0x1f)\n      0x1f\n      dup3\n      add\n      and\n      dup3\n      add\n      dup1\n      0x40\n      mstore\n      pop\n      dup2\n      add\n      swap1\n      tag_239\n      swap2\n      swap1\n      tag_124\n      jump\t// in\n    tag_239:\n        /* \"SimpleDex.sol\":3151:3238  if (!tokenA.transferFrom(msg.sender, address(this), amountAIn)) revert TransferFailed() */\n      tag_240\n      jumpi\n        /* \"SimpleDex.sol\":3222:3238  TransferFailed() */\n      mload(0x40)\n      0x90b8ec1800000000000000000000000000000000000000000000000000000000\n      dup2\n      mstore\n      0x04\n      add\n      mload(0x40)\n      dup1\n      swap2\n      sub\n      swap1\n      revert\n        /* \"SimpleDex.sol\":3151:3238  if (!tokenA.transferFrom(msg.sender, address(this), amountAIn)) revert TransferFailed() */\n    tag_240:\n        /* \"SimpleDex.sol\":3254:3260  tokenB */\n      0x03\n      0x00\n      swap1\n      sload\n      swap1\n      0x0100\n      exp\n      swap1\n      div\n      0xffffffffffffffffffffffffffffffffffffffff\n      and\n        /* \"SimpleDex.sol\":3254:3269  tokenB.transfer */\n      0xffffffffffffffffffffffffffffffffffffffff\n      and\n      0xa9059cbb\n        /* \"SimpleDex.sol\":3270:3280  msg.sender */\n      caller\n        /* \"SimpleDex.sol\":3282:3292  amountBOut */\n      dup4\n        /* \"SimpleDex.sol\":3254:3293  tokenB.transfer(msg.sender, amountBOut) */\n      mload(0x40)\n      dup4\n      0xffffffff\n      and\n      0xe0\n      shl\n      dup2\n      mstore\n      0x04\n      add\n      tag_241\n      swap3\n      swap2\n      swap1\n      tag_127\n      jump\t// in\n    tag_241:\n      0x20\n      mload(0x40)\n      dup1\n      dup4\n      sub\n      dup2\n      0x00\n      dup8\n      gas\n      call\n      iszero\n      dup1\n      iszero\n      tag_243\n      jumpi\n      returndatacopy(0x00, 0x00, returndatasize)\n      revert(0x00, returndatasize)\n    tag_243:\n      pop\n      pop\n      pop\n      pop\n      mload(0x40)\n      returndatasize\n      not(0x1f)\n      0x1f\n      dup3\n      add\n      and\n      dup3\n      add\n      dup1\n      0x40\n      mstore\n      pop\n      dup2\n      add\n      swap1\n      tag_244\n      swap2\n      swap1\n      tag_124\n      jump\t// in\n    tag_244:\n        /* \"SimpleDex.sol\":3249:3318  if (!tokenB.transfer(msg.sender, amountBOut)) revert TransferFailed() */\n      tag_245\n      jumpi\n        /* \"SimpleDex.sol\":3302:3318  TransferFailed() */\n      mload(0x40)\n      0x90b8ec1800000000000000000000000000000000000000000000000000000000\n      dup2\n      mstore\n      0x04\n      add\n      mload(0x40)\n      dup1\n      swap2\n      sub\n      swap1\n      revert\n        /* \"SimpleDex.sol\":3249:3318  if (!tokenB.transfer(msg.sender, amountBOut)) revert TransferFailed() */\n    tag_245:\n        /* \"SimpleDex.sol\":3383:3392  amountAIn */\n      dup5\n        /* \"SimpleDex.sol\":3371:3379  reserveA */\n      0x04\n      0x00\n        /* \"SimpleDex.sol\":3371:3392  reserveA += amountAIn */\n      dup3\n      dup3\n      sload\n      tag_246\n      swap2\n      swap1\n      tag_115\n      jump\t// in\n    tag_246:\n      swap3\n      pop\n      pop\n      dup2\n      swap1\n      sstore\n      pop\n        /* \"SimpleDex.sol\":3415:3425  amountBOut */\n      dup1\n        /* \"SimpleDex.sol\":3403:3411  reserveB */\n      0x05\n      0x00\n        /* \"SimpleDex.sol\":3403:3425  reserveB -= amountBOut */\n      dup3\n      dup3\n      sload\n      tag_247\n      swap2\n      swap1\n      tag_110\n      jump\t// in\n    tag_247:\n      swap3\n      pop\n      pop\n      dup2\n      swap1\n      sstore\n      pop\n        /* \"SimpleDex.sol\":3465:3475  msg.sender */\n      caller\n        /* \"SimpleDex.sol\":3451:3533  TokensSwapped(msg.sender, address(tokenA), address(tokenB), amountAIn, amountBOut) */\n      0xffffffffffffffffffffffffffffffffffffffff\n      and\n      0xad56699d0f375866eb895ed27203058a36a713382aaded78eb6b67da266d4332\n        /* \"SimpleDex.sol\":3485:3491  tokenA */\n      0x02\n      0x00\n      swap1\n      sload\n      swap1\n      0x0100\n      exp\n      swap1\n      div\n      0xffffffffffffffffffffffffffffffffffffffff\n      and\n        /* \"SimpleDex.sol\":3502:3508  tokenB */\n      0x03\n      0x00\n      swap1\n      sload\n      swap1\n      0x0100\n      exp\n      swap1\n      div\n      0xffffffffffffffffffffffffffffffffffffffff\n      and\n        /* \"SimpleDex.sol\":3511:3520  amountAIn */\n      dup9\n        /* \"SimpleDex.sol\":3522:3532  amountBOut */\n      dup6\n        /* \"SimpleDex.sol\":3451:3533  TokensSwapped(msg.sender, address(tokenA), address(tokenB), amountAIn, amountBOut) */\n      mload(0x40)\n      tag_248\n      swap5\n      swap4\n      swap3\n      swap2\n      swap1\n      tag_135\n      jump\t// in\n    tag_248:\n      mload(0x40)\n      dup1\n      swap2\n      sub\n      swap1\n      log2\n        /* \"SimpleDex.sol\":2388:3541  {... */\n      pop\n      pop\n      pop\n      pop\n        /* \"@openzeppelin/contracts/utils/ReentrancyGuard.sol\":2542:2562  _nonReentrantAfter() */\n      tag_249\n        /* \"@openzeppelin/contracts/utils/ReentrancyGuard.sol\":2542:2560  _nonReentrantAfter */\n      tag_137\n        /* \"@openzeppelin/contracts/utils/ReentrancyGuard.sol\":2542:2562  _nonReentrantAfter() */\n      jump\t// in\n    tag_249:\n        /* \"SimpleDex.sol\":2328:3541  function swapAforB(uint256 amountAIn) external nonReentrant {... */\n      pop\n      jump\t// out\n        /* \"SimpleDex.sol\":455:495  uint256 public constant FEE_PERCENT = 30 */\n    tag_77:\n        /* \"SimpleDex.sol\":493:495  30 */\n      0x1e\n        /* \"SimpleDex.sol\":455:495  uint256 public constant FEE_PERCENT = 30 */\n      dup2\n      jump\t// out\n        /* \"@openzeppelin/contracts/access/Ownable.sol\":2543:2758  function transferOwnership(address newOwner) public virtual onlyOwner {... */\n    tag_81:\n        /* \"@openzeppelin/contracts/access/Ownable.sol\":1531:1544  _checkOwner() */\n      tag_251\n        /* \"@openzeppelin/contracts/access/Ownable.sol\":1531:1542  _checkOwner */\n      tag_98\n        /* \"@openzeppelin/contracts/access/Ownable.sol\":1531:1544  _checkOwner() */\n      jump\t// in\n    tag_251:\n        /* \"@openzeppelin/contracts/access/Ownable.sol\":2647:2648  0 */\n      0x00\n        /* \"@openzeppelin/contracts/access/Ownable.sol\":2627:2649  newOwner == address(0) */\n      0xffffffffffffffffffffffffffffffffffffffff\n      and\n        /* \"@openzeppelin/contracts/access/Ownable.sol\":2627:2635  newOwner */\n      dup2\n        /* \"@openzeppelin/contracts/access/Ownable.sol\":2627:2649  newOwner == address(0) */\n      0xffffffffffffffffffffffffffffffffffffffff\n      and\n      sub\n        /* \"@openzeppelin/contracts/access/Ownable.sol\":2623:2714  if (newOwner == address(0)) {... */\n      tag_253\n      jumpi\n        /* \"@openzeppelin/contracts/access/Ownable.sol\":2700:2701  0 */\n      0x00\n        /* \"@openzeppelin/contracts/access/Ownable.sol\":2672:2703  OwnableInvalidOwner(address(0)) */\n      mload(0x40)\n      0x1e4fbdf700000000000000000000000000000000000000000000000000000000\n      dup2\n      mstore\n      0x04\n      add\n      tag_254\n      swap2\n      swap1\n      tag_52\n      jump\t// in\n    tag_254:\n      mload(0x40)\n      dup1\n      swap2\n      sub\n      swap1\n      revert\n        /* \"@openzeppelin/contracts/access/Ownable.sol\":2623:2714  if (newOwner == address(0)) {... */\n    tag_253:\n        /* \"@openzeppelin/contracts/access/Ownable.sol\":2723:2751  _transferOwnership(newOwner) */\n      tag_255\n        /* \"@openzeppelin/contracts/access/Ownable.sol\":2742:2750  newOwner */\n      dup2\n        /* \"@openzeppelin/contracts/access/Ownable.sol\":2723:2741  _transferOwnership */\n      tag_101\n        /* \"@openzeppelin/contracts/access/Ownable.sol\":2723:2751  _transferOwnership(newOwner) */\n      jump\t// in\n    tag_255:\n        /* \"@openzeppelin/contracts/access/Ownable.sol\":2543:2758  function transferOwnership(address newOwner) public virtual onlyOwner {... */\n      pop\n      jump\t// out\n        /* \"@openzeppelin/contracts/access/Ownable.sol\":1796:1958  function _checkOwner() internal view virtual {... */\n    tag_98:\n        /* \"@openzeppelin/contracts/access/Ownable.sol\":1866:1878  _msgSender() */\n      tag_257\n        /* \"@openzeppelin/contracts/access/Ownable.sol\":1866:1876  _msgSender */\n      tag_258\n        /* \"@openzeppelin/contracts/access/Ownable.sol\":1866:1878  _msgSender() */\n      jump\t// in\n    tag_257:\n        /* \"@openzeppelin/contracts/access/Ownable.sol\":1855:1878  owner() != _msgSender() */\n      0xffffffffffffffffffffffffffffffffffffffff\n      and\n        /* \"@openzeppelin/contracts/access/Ownable.sol\":1855:1862  owner() */\n      tag_259\n        /* \"@openzeppelin/contracts/access/Ownable.sol\":1855:1860  owner */\n      tag_50\n        /* \"@openzeppelin/contracts/access/Ownable.sol\":1855:1862  owner() */\n      jump\t// in\n    tag_259:\n        /* \"@openzeppelin/contracts/access/Ownable.sol\":1855:1878  owner() != _msgSender() */\n      0xffffffffffffffffffffffffffffffffffffffff\n      and\n      eq\n        /* \"@openzeppelin/contracts/access/Ownable.sol\":1851:1952  if (owner() != _msgSender()) {... */\n      tag_260\n      jumpi\n        /* \"@openzeppelin/contracts/access/Ownable.sol\":1928:1940  _msgSender() */\n      tag_261\n        /* \"@openzeppelin/contracts/access/Ownable.sol\":1928:1938  _msgSender */\n      tag_258\n        /* \"@openzeppelin/contracts/access/Ownable.sol\":1928:1940  _msgSender() */\n      jump\t// in\n    tag_261:\n        /* \"@openzeppelin/contracts/access/Ownable.sol\":1901:1941  OwnableUnauthorizedAccount(_msgSender()) */\n      mload(0x40)\n      0x118cdaa700000000000000000000000000000000000000000000000000000000\n      dup2\n      mstore\n      0x04\n      add\n      tag_262\n      swap2\n      swap1\n      tag_52\n      jump\t// in\n    tag_262:\n      mload(0x40)\n      dup1\n      swap2\n      sub\n      swap1\n      revert\n        /* \"@openzeppelin/contracts/access/Ownable.sol\":1851:1952  if (owner() != _msgSender()) {... */\n    tag_260:\n        /* \"@openzeppelin/contracts/access/Ownable.sol\":1796:1958  function _checkOwner() internal view virtual {... */\n      jump\t// out\n        /* \"@openzeppelin/contracts/access/Ownable.sol\":2912:3099  function _transferOwnership(address newOwner) internal virtual {... */\n    tag_101:\n        /* \"@openzeppelin/contracts/access/Ownable.sol\":2985:3001  address oldOwner */\n      0x00\n        /* \"@openzeppelin/contracts/access/Ownable.sol\":3004:3010  _owner */\n      0x00\n      0x00\n      swap1\n      sload\n      swap1\n      0x0100\n      exp\n      swap1\n      div\n      0xffffffffffffffffffffffffffffffffffffffff\n      and\n        /* \"@openzeppelin/contracts/access/Ownable.sol\":2985:3010  address oldOwner = _owner */\n      swap1\n      pop\n        /* \"@openzeppelin/contracts/access/Ownable.sol\":3029:3037  newOwner */\n      dup2\n        /* \"@openzeppelin/contracts/access/Ownable.sol\":3020:3026  _owner */\n      0x00\n      0x00\n        /* \"@openzeppelin/contracts/access/Ownable.sol\":3020:3037  _owner = newOwner */\n      0x0100\n      exp\n      dup2\n      sload\n      dup2\n      0xffffffffffffffffffffffffffffffffffffffff\n      mul\n      not\n      and\n      swap1\n      dup4\n      0xffffffffffffffffffffffffffffffffffffffff\n      and\n      mul\n      or\n      swap1\n      sstore\n      pop\n        /* \"@openzeppelin/contracts/access/Ownable.sol\":3083:3091  newOwner */\n      dup2\n        /* \"@openzeppelin/contracts/access/Ownable.sol\":3052:3092  OwnershipTransferred(oldOwner, newOwner) */\n      0xffffffffffffffffffffffffffffffffffffffff\n      and\n        /* \"@openzeppelin/contracts/access/Ownable.sol\":3073:3081  oldOwner */\n      dup2\n        /* \"@openzeppelin/contracts/access/Ownable.sol\":3052:3092  OwnershipTransferred(oldOwner, newOwner) */\n      0xffffffffffffffffffffffffffffffffffffffff\n      and\n      0x8be0079c531659141344cd1fd0a4f28419497f9722a3daafe3b4186f6b6457e0\n      mload(0x40)\n      mload(0x40)\n      dup1\n      swap2\n      sub\n      swap1\n      log3\n        /* \"@openzeppelin/contracts/access/Ownable.sol\":2975:3099  {... */\n      pop\n        /* \"@openzeppelin/contracts/access/Ownable.sol\":2912:3099  function _transferOwnership(address newOwner) internal virtual {... */\n      pop\n      jump\t// out\n        /* \"@openzeppelin/contracts/utils/ReentrancyGuard.sol\":2575:2882  function _nonReentrantBefore() private {... */\n    tag_104:\n        /* \"@openzeppelin/contracts/utils/ReentrancyGuard.sol\":1899:1900  2 */\n      0x02\n        /* \"@openzeppelin/contracts/utils/ReentrancyGuard.sol\":2702:2709  _status */\n      sload(0x01)\n        /* \"@openzeppelin/contracts/utils/ReentrancyGuard.sol\":2702:2720  _status == ENTERED */\n      sub\n        /* \"@openzeppelin/contracts/utils/ReentrancyGuard.sol\":2698:2784  if (_status == ENTERED) {... */\n      tag_265\n      jumpi\n        /* \"@openzeppelin/contracts/utils/ReentrancyGuard.sol\":2743:2773  ReentrancyGuardReentrantCall() */\n      mload(0x40)\n      0x3ee5aeb500000000000000000000000000000000000000000000000000000000\n      dup2\n      mstore\n      0x04\n      add\n      mload(0x40)\n      dup1\n      swap2\n      sub\n      swap1\n      revert\n        /* \"@openzeppelin/contracts/utils/ReentrancyGuard.sol\":2698:2784  if (_status == ENTERED) {... */\n    tag_265:\n        /* \"@openzeppelin/contracts/utils/ReentrancyGuard.sol\":1899:1900  2 */\n      0x02\n        /* \"@openzeppelin/contracts/utils/ReentrancyGuard.sol\":2858:2865  _status */\n      0x01\n        /* \"@openzeppelin/contracts/utils/ReentrancyGuard.sol\":2858:2875  _status = ENTERED */\n      dup2\n      swap1\n      sstore\n      pop\n        /* \"@openzeppelin/contracts/utils/ReentrancyGuard.sol\":2575:2882  function _nonReentrantBefore() private {... */\n      jump\t// out\n        /* \"@openzeppelin/contracts/utils/ReentrancyGuard.sol\":2888:3096  function _nonReentrantAfter() private {... */\n    tag_137:\n        /* \"@openzeppelin/contracts/utils/ReentrancyGuard.sol\":1857:1858  1 */\n      0x01\n        /* \"@openzeppelin/contracts/utils/ReentrancyGuard.sol\":3068:3075  _status */\n      dup1\n        /* \"@openzeppelin/contracts/utils/ReentrancyGuard.sol\":3068:3089  _status = NOT_ENTERED */\n      dup2\n      swap1\n      sstore\n      pop\n        /* \"@openzeppelin/contracts/utils/ReentrancyGuard.sol\":2888:3096  function _nonReentrantAfter() private {... */\n      jump\t// out\n        /* \"@openzeppelin/contracts/utils/Context.sol\":656:752  function _msgSender() internal view virtual returns (address) {... */\n    tag_258:\n        /* \"@openzeppelin/contracts/utils/Context.sol\":709:716  address */\n      0x00\n        /* \"@openzeppelin/contracts/utils/Context.sol\":735:745  msg.sender */\n      caller\n        /* \"@openzeppelin/contracts/utils/Context.sol\":728:745  return msg.sender */\n      swap1\n      pop\n        /* \"@openzeppelin/contracts/utils/Context.sol\":656:752  function _msgSender() internal view virtual returns (address) {... */\n      swap1\n      jump\t// out\n        /* \"#utility.yul\":7:84   */\n    tag_268:\n        /* \"#utility.yul\":44:51   */\n      0x00\n        /* \"#utility.yul\":73:78   */\n      dup2\n        /* \"#utility.yul\":62:78   */\n      swap1\n      pop\n        /* \"#utility.yul\":7:84   */\n      swap2\n      swap1\n      pop\n      jump\t// out\n        /* \"#utility.yul\":90:208   */\n    tag_269:\n        /* \"#utility.yul\":177:201   */\n      tag_294\n        /* \"#utility.yul\":195:200   */\n      dup2\n        /* \"#utility.yul\":177:201   */\n      tag_268\n      jump\t// in\n    tag_294:\n        /* \"#utility.yul\":172:175   */\n      dup3\n        /* \"#utility.yul\":165:202   */\n      mstore\n        /* \"#utility.yul\":90:208   */\n      pop\n      pop\n      jump\t// out\n        /* \"#utility.yul\":214:546   */\n    tag_26:\n        /* \"#utility.yul\":335:339   */\n      0x00\n        /* \"#utility.yul\":373:375   */\n      0x40\n        /* \"#utility.yul\":362:371   */\n      dup3\n        /* \"#utility.yul\":358:376   */\n      add\n        /* \"#utility.yul\":350:376   */\n      swap1\n      pop\n        /* \"#utility.yul\":386:457   */\n      tag_296\n        /* \"#utility.yul\":454:455   */\n      0x00\n        /* \"#utility.yul\":443:452   */\n      dup4\n        /* \"#utility.yul\":439:456   */\n      add\n        /* \"#utility.yul\":430:436   */\n      dup6\n        /* \"#utility.yul\":386:457   */\n      tag_269\n      jump\t// in\n    tag_296:\n        /* \"#utility.yul\":467:539   */\n      tag_297\n        /* \"#utility.yul\":535:537   */\n      0x20\n        /* \"#utility.yul\":524:533   */\n      dup4\n        /* \"#utility.yul\":520:538   */\n      add\n        /* \"#utility.yul\":511:517   */\n      dup5\n        /* \"#utility.yul\":467:539   */\n      tag_269\n      jump\t// in\n    tag_297:\n        /* \"#utility.yul\":214:546   */\n      swap4\n      swap3\n      pop\n      pop\n      pop\n      jump\t// out\n        /* \"#utility.yul\":552:678   */\n    tag_270:\n        /* \"#utility.yul\":589:596   */\n      0x00\n        /* \"#utility.yul\":629:671   */\n      0xffffffffffffffffffffffffffffffffffffffff\n        /* \"#utility.yul\":622:627   */\n      dup3\n        /* \"#utility.yul\":618:672   */\n      and\n        /* \"#utility.yul\":607:672   */\n      swap1\n      pop\n        /* \"#utility.yul\":552:678   */\n      swap2\n      swap1\n      pop\n      jump\t// out\n        /* \"#utility.yul\":684:744   */\n    tag_271:\n        /* \"#utility.yul\":712:715   */\n      0x00\n        /* \"#utility.yul\":733:738   */\n      dup2\n        /* \"#utility.yul\":726:738   */\n      swap1\n      pop\n        /* \"#utility.yul\":684:744   */\n      swap2\n      swap1\n      pop\n      jump\t// out\n        /* \"#utility.yul\":750:892   */\n    tag_272:\n        /* \"#utility.yul\":800:809   */\n      0x00\n        /* \"#utility.yul\":833:886   */\n      tag_301\n        /* \"#utility.yul\":851:885   */\n      tag_302\n        /* \"#utility.yul\":860:884   */\n      tag_303\n        /* \"#utility.yul\":878:883   */\n      dup5\n        /* \"#utility.yul\":860:884   */\n      tag_270\n      jump\t// in\n    tag_303:\n        /* \"#utility.yul\":851:885   */\n      tag_271\n      jump\t// in\n    tag_302:\n        /* \"#utility.yul\":833:886   */\n      tag_270\n      jump\t// in\n    tag_301:\n        /* \"#utility.yul\":820:886   */\n      swap1\n      pop\n        /* \"#utility.yul\":750:892   */\n      swap2\n      swap1\n      pop\n      jump\t// out\n        /* \"#utility.yul\":898:1024   */\n    tag_273:\n        /* \"#utility.yul\":948:957   */\n      0x00\n        /* \"#utility.yul\":981:1018   */\n      tag_305\n        /* \"#utility.yul\":1012:1017   */\n      dup3\n        /* \"#utility.yul\":981:1018   */\n      tag_272\n      jump\t// in\n    tag_305:\n        /* \"#utility.yul\":968:1018   */\n      swap1\n      pop\n        /* \"#utility.yul\":898:1024   */\n      swap2\n      swap1\n      pop\n      jump\t// out\n        /* \"#utility.yul\":1030:1170   */\n    tag_274:\n        /* \"#utility.yul\":1094:1103   */\n      0x00\n        /* \"#utility.yul\":1127:1164   */\n      tag_307\n        /* \"#utility.yul\":1158:1163   */\n      dup3\n        /* \"#utility.yul\":1127:1164   */\n      tag_273\n      jump\t// in\n    tag_307:\n        /* \"#utility.yul\":1114:1164   */\n      swap1\n      pop\n        /* \"#utility.yul\":1030:1170   */\n      swap2\n      swap1\n      pop\n      jump\t// out\n        /* \"#utility.yul\":1176:1335   */\n    tag_275:\n        /* \"#utility.yul\":1277:1328   */\n      tag_309\n        /* \"#utility.yul\":1322:1327   */\n      dup2\n        /* \"#utility.yul\":1277:1328   */\n      tag_274\n      jump\t// in\n    tag_309:\n        /* \"#utility.yul\":1272:1275   */\n      dup3\n        /* \"#utility.yul\":1265:1329   */\n      mstore\n        /* \"#utility.yul\":1176:1335   */\n      pop\n      pop\n      jump\t// out\n        /* \"#utility.yul\":1341:1591   */\n    tag_30:\n        /* \"#utility.yul\":1448:1452   */\n      0x00\n        /* \"#utility.yul\":1486:1488   */\n      0x20\n        /* \"#utility.yul\":1475:1484   */\n      dup3\n        /* \"#utility.yul\":1471:1489   */\n      add\n        /* \"#utility.yul\":1463:1489   */\n      swap1\n      pop\n        /* \"#utility.yul\":1499:1584   */\n      tag_311\n        /* \"#utility.yul\":1581:1582   */\n      0x00\n        /* \"#utility.yul\":1570:1579   */\n      dup4\n        /* \"#utility.yul\":1566:1583   */\n      add\n        /* \"#utility.yul\":1557:1563   */\n      dup5\n        /* \"#utility.yul\":1499:1584   */\n      tag_275\n      jump\t// in\n    tag_311:\n        /* \"#utility.yul\":1341:1591   */\n      swap3\n      swap2\n      pop\n      pop\n      jump\t// out\n        /* \"#utility.yul\":1597:1819   */\n    tag_34:\n        /* \"#utility.yul\":1690:1694   */\n      0x00\n        /* \"#utility.yul\":1728:1730   */\n      0x20\n        /* \"#utility.yul\":1717:1726   */\n      dup3\n        /* \"#utility.yul\":1713:1731   */\n      add\n        /* \"#utility.yul\":1705:1731   */\n      swap1\n      pop\n        /* \"#utility.yul\":1741:1812   */\n      tag_313\n        /* \"#utility.yul\":1809:1810   */\n      0x00\n        /* \"#utility.yul\":1798:1807   */\n      dup4\n        /* \"#utility.yul\":1794:1811   */\n      add\n        /* \"#utility.yul\":1785:1791   */\n      dup5\n        /* \"#utility.yul\":1741:1812   */\n      tag_269\n      jump\t// in\n    tag_313:\n        /* \"#utility.yul\":1597:1819   */\n      swap3\n      swap2\n      pop\n      pop\n      jump\t// out\n        /* \"#utility.yul\":1906:2023   */\n    tag_277:\n        /* \"#utility.yul\":2015:2016   */\n      0x00\n        /* \"#utility.yul\":2012:2013   */\n      0x00\n        /* \"#utility.yul\":2005:2017   */\n      revert\n        /* \"#utility.yul\":2152:2248   */\n    tag_279:\n        /* \"#utility.yul\":2189:2196   */\n      0x00\n        /* \"#utility.yul\":2218:2242   */\n      tag_318\n        /* \"#utility.yul\":2236:2241   */\n      dup3\n        /* \"#utility.yul\":2218:2242   */\n      tag_270\n      jump\t// in\n    tag_318:\n        /* \"#utility.yul\":2207:2242   */\n      swap1\n      pop\n        /* \"#utility.yul\":2152:2248   */\n      swap2\n      swap1\n      pop\n      jump\t// out\n        /* \"#utility.yul\":2254:2376   */\n    tag_280:\n        /* \"#utility.yul\":2327:2351   */\n      tag_320\n        /* \"#utility.yul\":2345:2350   */\n      dup2\n        /* \"#utility.yul\":2327:2351   */\n      tag_279\n      jump\t// in\n    tag_320:\n        /* \"#utility.yul\":2320:2325   */\n      dup2\n        /* \"#utility.yul\":2317:2352   */\n      eq\n        /* \"#utility.yul\":2307:2370   */\n      tag_321\n      jumpi\n        /* \"#utility.yul\":2366:2367   */\n      0x00\n        /* \"#utility.yul\":2363:2364   */\n      0x00\n        /* \"#utility.yul\":2356:2368   */\n      revert\n        /* \"#utility.yul\":2307:2370   */\n    tag_321:\n        /* \"#utility.yul\":2254:2376   */\n      pop\n      jump\t// out\n        /* \"#utility.yul\":2382:2521   */\n    tag_281:\n        /* \"#utility.yul\":2428:2433   */\n      0x00\n        /* \"#utility.yul\":2466:2472   */\n      dup2\n        /* \"#utility.yul\":2453:2473   */\n      calldataload\n        /* \"#utility.yul\":2444:2473   */\n      swap1\n      pop\n        /* \"#utility.yul\":2482:2515   */\n      tag_323\n        /* \"#utility.yul\":2509:2514   */\n      dup2\n        /* \"#utility.yul\":2482:2515   */\n      tag_280\n      jump\t// in\n    tag_323:\n        /* \"#utility.yul\":2382:2521   */\n      swap3\n      swap2\n      pop\n      pop\n      jump\t// out\n        /* \"#utility.yul\":2527:2856   */\n    tag_37:\n        /* \"#utility.yul\":2586:2592   */\n      0x00\n        /* \"#utility.yul\":2635:2637   */\n      0x20\n        /* \"#utility.yul\":2623:2632   */\n      dup3\n        /* \"#utility.yul\":2614:2621   */\n      dup5\n        /* \"#utility.yul\":2610:2633   */\n      sub\n        /* \"#utility.yul\":2606:2638   */\n      slt\n        /* \"#utility.yul\":2603:2722   */\n      iszero\n      tag_325\n      jumpi\n        /* \"#utility.yul\":2641:2720   */\n      tag_326\n      tag_277\n      jump\t// in\n    tag_326:\n        /* \"#utility.yul\":2603:2722   */\n    tag_325:\n        /* \"#utility.yul\":2761:2762   */\n      0x00\n        /* \"#utility.yul\":2786:2839   */\n      tag_327\n        /* \"#utility.yul\":2831:2838   */\n      dup5\n        /* \"#utility.yul\":2822:2828   */\n      dup3\n        /* \"#utility.yul\":2811:2820   */\n      dup6\n        /* \"#utility.yul\":2807:2829   */\n      add\n        /* \"#utility.yul\":2786:2839   */\n      tag_281\n      jump\t// in\n    tag_327:\n        /* \"#utility.yul\":2776:2839   */\n      swap2\n      pop\n        /* \"#utility.yul\":2732:2849   */\n      pop\n        /* \"#utility.yul\":2527:2856   */\n      swap3\n      swap2\n      pop\n      pop\n      jump\t// out\n        /* \"#utility.yul\":2862:2984   */\n    tag_282:\n        /* \"#utility.yul\":2935:2959   */\n      tag_329\n        /* \"#utility.yul\":2953:2958   */\n      dup2\n        /* \"#utility.yul\":2935:2959   */\n      tag_268\n      jump\t// in\n    tag_329:\n        /* \"#utility.yul\":2928:2933   */\n      dup2\n        /* \"#utility.yul\":2925:2960   */\n      eq\n        /* \"#utility.yul\":2915:2978   */\n      tag_330\n      jumpi\n        /* \"#utility.yul\":2974:2975   */\n      0x00\n        /* \"#utility.yul\":2971:2972   */\n      0x00\n        /* \"#utility.yul\":2964:2976   */\n      revert\n        /* \"#utility.yul\":2915:2978   */\n    tag_330:\n        /* \"#utility.yul\":2862:2984   */\n      pop\n      jump\t// out\n        /* \"#utility.yul\":2990:3129   */\n    tag_283:\n        /* \"#utility.yul\":3036:3041   */\n      0x00\n        /* \"#utility.yul\":3074:3080   */\n      dup2\n        /* \"#utility.yul\":3061:3081   */\n      calldataload\n        /* \"#utility.yul\":3052:3081   */\n      swap1\n      pop\n        /* \"#utility.yul\":3090:3123   */\n      tag_332\n        /* \"#utility.yul\":3117:3122   */\n      dup2\n        /* \"#utility.yul\":3090:3123   */\n      tag_282\n      jump\t// in\n    tag_332:\n        /* \"#utility.yul\":2990:3129   */\n      swap3\n      swap2\n      pop\n      pop\n      jump\t// out\n        /* \"#utility.yul\":3135:3464   */\n    tag_47:\n        /* \"#utility.yul\":3194:3200   */\n      0x00\n        /* \"#utility.yul\":3243:3245   */\n      0x20\n        /* \"#utility.yul\":3231:3240   */\n      dup3\n        /* \"#utility.yul\":3222:3229   */\n      dup5\n        /* \"#utility.yul\":3218:3241   */\n      sub\n        /* \"#utility.yul\":3214:3246   */\n      slt\n        /* \"#utility.yul\":3211:3330   */\n      iszero\n      tag_334\n      jumpi\n        /* \"#utility.yul\":3249:3328   */\n      tag_335\n      tag_277\n      jump\t// in\n    tag_335:\n        /* \"#utility.yul\":3211:3330   */\n    tag_334:\n        /* \"#utility.yul\":3369:3370   */\n      0x00\n        /* \"#utility.yul\":3394:3447   */\n      tag_336\n        /* \"#utility.yul\":3439:3446   */\n      dup5\n        /* \"#utility.yul\":3430:3436   */\n      dup3\n        /* \"#utility.yul\":3419:3428   */\n      dup6\n        /* \"#utility.yul\":3415:3437   */\n      add\n        /* \"#utility.yul\":3394:3447   */\n      tag_283\n      jump\t// in\n    tag_336:\n        /* \"#utility.yul\":3384:3447   */\n      swap2\n      pop\n        /* \"#utility.yul\":3340:3457   */\n      pop\n        /* \"#utility.yul\":3135:3464   */\n      swap3\n      swap2\n      pop\n      pop\n      jump\t// out\n        /* \"#utility.yul\":3470:3588   */\n    tag_284:\n        /* \"#utility.yul\":3557:3581   */\n      tag_338\n        /* \"#utility.yul\":3575:3580   */\n      dup2\n        /* \"#utility.yul\":3557:3581   */\n      tag_279\n      jump\t// in\n    tag_338:\n        /* \"#utility.yul\":3552:3555   */\n      dup3\n        /* \"#utility.yul\":3545:3582   */\n      mstore\n        /* \"#utility.yul\":3470:3588   */\n      pop\n      pop\n      jump\t// out\n        /* \"#utility.yul\":3594:3816   */\n    tag_52:\n        /* \"#utility.yul\":3687:3691   */\n      0x00\n        /* \"#utility.yul\":3725:3727   */\n      0x20\n        /* \"#utility.yul\":3714:3723   */\n      dup3\n        /* \"#utility.yul\":3710:3728   */\n      add\n        /* \"#utility.yul\":3702:3728   */\n      swap1\n      pop\n        /* \"#utility.yul\":3738:3809   */\n      tag_340\n        /* \"#utility.yul\":3806:3807   */\n      0x00\n        /* \"#utility.yul\":3795:3804   */\n      dup4\n        /* \"#utility.yul\":3791:3808   */\n      add\n        /* \"#utility.yul\":3782:3788   */\n      dup5\n        /* \"#utility.yul\":3738:3809   */\n      tag_284\n      jump\t// in\n    tag_340:\n        /* \"#utility.yul\":3594:3816   */\n      swap3\n      swap2\n      pop\n      pop\n      jump\t// out\n        /* \"#utility.yul\":3822:4296   */\n    tag_55:\n        /* \"#utility.yul\":3890:3896   */\n      0x00\n        /* \"#utility.yul\":3898:3904   */\n      0x00\n        /* \"#utility.yul\":3947:3949   */\n      0x40\n        /* \"#utility.yul\":3935:3944   */\n      dup4\n        /* \"#utility.yul\":3926:3933   */\n      dup6\n        /* \"#utility.yul\":3922:3945   */\n      sub\n        /* \"#utility.yul\":3918:3950   */\n      slt\n        /* \"#utility.yul\":3915:4034   */\n      iszero\n      tag_342\n      jumpi\n        /* \"#utility.yul\":3953:4032   */\n      tag_343\n      tag_277\n      jump\t// in\n    tag_343:\n        /* \"#utility.yul\":3915:4034   */\n    tag_342:\n        /* \"#utility.yul\":4073:4074   */\n      0x00\n        /* \"#utility.yul\":4098:4151   */\n      tag_344\n        /* \"#utility.yul\":4143:4150   */\n      dup6\n        /* \"#utility.yul\":4134:4140   */\n      dup3\n        /* \"#utility.yul\":4123:4132   */\n      dup7\n        /* \"#utility.yul\":4119:4141   */\n      add\n        /* \"#utility.yul\":4098:4151   */\n      tag_283\n      jump\t// in\n    tag_344:\n        /* \"#utility.yul\":4088:4151   */\n      swap3\n      pop\n        /* \"#utility.yul\":4044:4161   */\n      pop\n        /* \"#utility.yul\":4200:4202   */\n      0x20\n        /* \"#utility.yul\":4226:4279   */\n      tag_345\n        /* \"#utility.yul\":4271:4278   */\n      dup6\n        /* \"#utility.yul\":4262:4268   */\n      dup3\n        /* \"#utility.yul\":4251:4260   */\n      dup7\n        /* \"#utility.yul\":4247:4269   */\n      add\n        /* \"#utility.yul\":4226:4279   */\n      tag_283\n      jump\t// in\n    tag_345:\n        /* \"#utility.yul\":4216:4279   */\n      swap2\n      pop\n        /* \"#utility.yul\":4171:4289   */\n      pop\n        /* \"#utility.yul\":3822:4296   */\n      swap3\n      pop\n      swap3\n      swap1\n      pop\n      jump\t// out\n        /* \"#utility.yul\":4302:4776   */\n    tag_62:\n        /* \"#utility.yul\":4370:4376   */\n      0x00\n        /* \"#utility.yul\":4378:4384   */\n      0x00\n        /* \"#utility.yul\":4427:4429   */\n      0x40\n        /* \"#utility.yul\":4415:4424   */\n      dup4\n        /* \"#utility.yul\":4406:4413   */\n      dup6\n        /* \"#utility.yul\":4402:4425   */\n      sub\n        /* \"#utility.yul\":4398:4430   */\n      slt\n        /* \"#utility.yul\":4395:4514   */\n      iszero\n      tag_347\n      jumpi\n        /* \"#utility.yul\":4433:4512   */\n      tag_348\n      tag_277\n      jump\t// in\n    tag_348:\n        /* \"#utility.yul\":4395:4514   */\n    tag_347:\n        /* \"#utility.yul\":4553:4554   */\n      0x00\n        /* \"#utility.yul\":4578:4631   */\n      tag_349\n        /* \"#utility.yul\":4623:4630   */\n      dup6\n        /* \"#utility.yul\":4614:4620   */\n      dup3\n        /* \"#utility.yul\":4603:4612   */\n      dup7\n        /* \"#utility.yul\":4599:4621   */\n      add\n        /* \"#utility.yul\":4578:4631   */\n      tag_281\n      jump\t// in\n    tag_349:\n        /* \"#utility.yul\":4568:4631   */\n      swap3\n      pop\n        /* \"#utility.yul\":4524:4641   */\n      pop\n        /* \"#utility.yul\":4680:4682   */\n      0x20\n        /* \"#utility.yul\":4706:4759   */\n      tag_350\n        /* \"#utility.yul\":4751:4758   */\n      dup6\n        /* \"#utility.yul\":4742:4748   */\n      dup3\n        /* \"#utility.yul\":4731:4740   */\n      dup7\n        /* \"#utility.yul\":4727:4749   */\n      add\n        /* \"#utility.yul\":4706:4759   */\n      tag_283\n      jump\t// in\n    tag_350:\n        /* \"#utility.yul\":4696:4759   */\n      swap2\n      pop\n        /* \"#utility.yul\":4651:4769   */\n      pop\n        /* \"#utility.yul\":4302:4776   */\n      swap3\n      pop\n      swap3\n      swap1\n      pop\n      jump\t// out\n        /* \"#utility.yul\":4782:4962   */\n    tag_285:\n        /* \"#utility.yul\":4830:4907   */\n      0x4e487b7100000000000000000000000000000000000000000000000000000000\n        /* \"#utility.yul\":4827:4828   */\n      0x00\n        /* \"#utility.yul\":4820:4908   */\n      mstore\n        /* \"#utility.yul\":4927:4931   */\n      0x11\n        /* \"#utility.yul\":4924:4925   */\n      0x04\n        /* \"#utility.yul\":4917:4932   */\n      mstore\n        /* \"#utility.yul\":4951:4955   */\n      0x24\n        /* \"#utility.yul\":4948:4949   */\n      0x00\n        /* \"#utility.yul\":4941:4956   */\n      revert\n        /* \"#utility.yul\":4968:5378   */\n    tag_88:\n        /* \"#utility.yul\":5008:5015   */\n      0x00\n        /* \"#utility.yul\":5031:5051   */\n      tag_353\n        /* \"#utility.yul\":5049:5050   */\n      dup3\n        /* \"#utility.yul\":5031:5051   */\n      tag_268\n      jump\t// in\n    tag_353:\n        /* \"#utility.yul\":5026:5051   */\n      swap2\n      pop\n        /* \"#utility.yul\":5065:5085   */\n      tag_354\n        /* \"#utility.yul\":5083:5084   */\n      dup4\n        /* \"#utility.yul\":5065:5085   */\n      tag_268\n      jump\t// in\n    tag_354:\n        /* \"#utility.yul\":5060:5085   */\n      swap3\n      pop\n        /* \"#utility.yul\":5120:5121   */\n      dup3\n        /* \"#utility.yul\":5117:5118   */\n      dup3\n        /* \"#utility.yul\":5113:5122   */\n      mul\n        /* \"#utility.yul\":5142:5172   */\n      tag_355\n        /* \"#utility.yul\":5160:5171   */\n      dup2\n        /* \"#utility.yul\":5142:5172   */\n      tag_268\n      jump\t// in\n    tag_355:\n        /* \"#utility.yul\":5131:5172   */\n      swap2\n      pop\n        /* \"#utility.yul\":5321:5322   */\n      dup3\n        /* \"#utility.yul\":5312:5319   */\n      dup3\n        /* \"#utility.yul\":5308:5323   */\n      div\n        /* \"#utility.yul\":5305:5306   */\n      dup5\n        /* \"#utility.yul\":5302:5324   */\n      eq\n        /* \"#utility.yul\":5282:5283   */\n      dup4\n        /* \"#utility.yul\":5275:5284   */\n      iszero\n        /* \"#utility.yul\":5255:5338   */\n      or\n        /* \"#utility.yul\":5232:5371   */\n      tag_356\n      jumpi\n        /* \"#utility.yul\":5351:5369   */\n      tag_357\n      tag_285\n      jump\t// in\n    tag_357:\n        /* \"#utility.yul\":5232:5371   */\n    tag_356:\n        /* \"#utility.yul\":5016:5378   */\n      pop\n        /* \"#utility.yul\":4968:5378   */\n      swap3\n      swap2\n      pop\n      pop\n      jump\t// out\n        /* \"#utility.yul\":5384:5564   */\n    tag_286:\n        /* \"#utility.yul\":5432:5509   */\n      0x4e487b7100000000000000000000000000000000000000000000000000000000\n        /* \"#utility.yul\":5429:5430   */\n      0x00\n        /* \"#utility.yul\":5422:5510   */\n      mstore\n        /* \"#utility.yul\":5529:5533   */\n      0x12\n        /* \"#utility.yul\":5526:5527   */\n      0x04\n        /* \"#utility.yul\":5519:5534   */\n      mstore\n        /* \"#utility.yul\":5553:5557   */\n      0x24\n        /* \"#utility.yul\":5550:5551   */\n      0x00\n        /* \"#utility.yul\":5543:5558   */\n      revert\n        /* \"#utility.yul\":5570:5755   */\n    tag_90:\n        /* \"#utility.yul\":5610:5611   */\n      0x00\n        /* \"#utility.yul\":5627:5647   */\n      tag_360\n        /* \"#utility.yul\":5645:5646   */\n      dup3\n        /* \"#utility.yul\":5627:5647   */\n      tag_268\n      jump\t// in\n    tag_360:\n        /* \"#utility.yul\":5622:5647   */\n      swap2\n      pop\n        /* \"#utility.yul\":5661:5681   */\n      tag_361\n        /* \"#utility.yul\":5679:5680   */\n      dup4\n        /* \"#utility.yul\":5661:5681   */\n      tag_268\n      jump\t// in\n    tag_361:\n        /* \"#utility.yul\":5656:5681   */\n      swap3\n      pop\n        /* \"#utility.yul\":5700:5701   */\n      dup3\n        /* \"#utility.yul\":5690:5725   */\n      tag_362\n      jumpi\n        /* \"#utility.yul\":5705:5723   */\n      tag_363\n      tag_286\n      jump\t// in\n    tag_363:\n        /* \"#utility.yul\":5690:5725   */\n    tag_362:\n        /* \"#utility.yul\":5747:5748   */\n      dup3\n        /* \"#utility.yul\":5744:5745   */\n      dup3\n        /* \"#utility.yul\":5740:5749   */\n      div\n        /* \"#utility.yul\":5735:5749   */\n      swap1\n      pop\n        /* \"#utility.yul\":5570:5755   */\n      swap3\n      swap2\n      pop\n      pop\n      jump\t// out\n        /* \"#utility.yul\":5761:5955   */\n    tag_110:\n        /* \"#utility.yul\":5801:5805   */\n      0x00\n        /* \"#utility.yul\":5821:5841   */\n      tag_365\n        /* \"#utility.yul\":5839:5840   */\n      dup3\n        /* \"#utility.yul\":5821:5841   */\n      tag_268\n      jump\t// in\n    tag_365:\n        /* \"#utility.yul\":5816:5841   */\n      swap2\n      pop\n        /* \"#utility.yul\":5855:5875   */\n      tag_366\n        /* \"#utility.yul\":5873:5874   */\n      dup4\n        /* \"#utility.yul\":5855:5875   */\n      tag_268\n      jump\t// in\n    tag_366:\n        /* \"#utility.yul\":5850:5875   */\n      swap3\n      pop\n        /* \"#utility.yul\":5899:5900   */\n      dup3\n        /* \"#utility.yul\":5896:5897   */\n      dup3\n        /* \"#utility.yul\":5892:5901   */\n      sub\n        /* \"#utility.yul\":5884:5901   */\n      swap1\n      pop\n        /* \"#utility.yul\":5923:5924   */\n      dup2\n        /* \"#utility.yul\":5917:5921   */\n      dup2\n        /* \"#utility.yul\":5914:5925   */\n      gt\n        /* \"#utility.yul\":5911:5948   */\n      iszero\n      tag_367\n      jumpi\n        /* \"#utility.yul\":5928:5946   */\n      tag_368\n      tag_285\n      jump\t// in\n    tag_368:\n        /* \"#utility.yul\":5911:5948   */\n    tag_367:\n        /* \"#utility.yul\":5761:5955   */\n      swap3\n      swap2\n      pop\n      pop\n      jump\t// out\n        /* \"#utility.yul\":5961:6152   */\n    tag_115:\n        /* \"#utility.yul\":6001:6004   */\n      0x00\n        /* \"#utility.yul\":6020:6040   */\n      tag_370\n        /* \"#utility.yul\":6038:6039   */\n      dup3\n        /* \"#utility.yul\":6020:6040   */\n      tag_268\n      jump\t// in\n    tag_370:\n        /* \"#utility.yul\":6015:6040   */\n      swap2\n      pop\n        /* \"#utility.yul\":6054:6074   */\n      tag_371\n        /* \"#utility.yul\":6072:6073   */\n      dup4\n        /* \"#utility.yul\":6054:6074   */\n      tag_268\n      jump\t// in\n    tag_371:\n        /* \"#utility.yul\":6049:6074   */\n      swap3\n      pop\n        /* \"#utility.yul\":6097:6098   */\n      dup3\n        /* \"#utility.yul\":6094:6095   */\n      dup3\n        /* \"#utility.yul\":6090:6099   */\n      add\n        /* \"#utility.yul\":6083:6099   */\n      swap1\n      pop\n        /* \"#utility.yul\":6118:6121   */\n      dup1\n        /* \"#utility.yul\":6115:6116   */\n      dup3\n        /* \"#utility.yul\":6112:6122   */\n      gt\n        /* \"#utility.yul\":6109:6145   */\n      iszero\n      tag_372\n      jumpi\n        /* \"#utility.yul\":6125:6143   */\n      tag_373\n      tag_285\n      jump\t// in\n    tag_373:\n        /* \"#utility.yul\":6109:6145   */\n    tag_372:\n        /* \"#utility.yul\":5961:6152   */\n      swap3\n      swap2\n      pop\n      pop\n      jump\t// out\n        /* \"#utility.yul\":6158:6600   */\n    tag_120:\n        /* \"#utility.yul\":6307:6311   */\n      0x00\n        /* \"#utility.yul\":6345:6347   */\n      0x60\n        /* \"#utility.yul\":6334:6343   */\n      dup3\n        /* \"#utility.yul\":6330:6348   */\n      add\n        /* \"#utility.yul\":6322:6348   */\n      swap1\n      pop\n        /* \"#utility.yul\":6358:6429   */\n      tag_375\n        /* \"#utility.yul\":6426:6427   */\n      0x00\n        /* \"#utility.yul\":6415:6424   */\n      dup4\n        /* \"#utility.yul\":6411:6428   */\n      add\n        /* \"#utility.yul\":6402:6408   */\n      dup7\n        /* \"#utility.yul\":6358:6429   */\n      tag_284\n      jump\t// in\n    tag_375:\n        /* \"#utility.yul\":6439:6511   */\n      tag_376\n        /* \"#utility.yul\":6507:6509   */\n      0x20\n        /* \"#utility.yul\":6496:6505   */\n      dup4\n        /* \"#utility.yul\":6492:6510   */\n      add\n        /* \"#utility.yul\":6483:6489   */\n      dup6\n        /* \"#utility.yul\":6439:6511   */\n      tag_284\n      jump\t// in\n    tag_376:\n        /* \"#utility.yul\":6521:6593   */\n      tag_377\n        /* \"#utility.yul\":6589:6591   */\n      0x40\n        /* \"#utility.yul\":6578:6587   */\n      dup4\n        /* \"#utility.yul\":6574:6592   */\n      add\n        /* \"#utility.yul\":6565:6571   */\n      dup5\n        /* \"#utility.yul\":6521:6593   */\n      tag_269\n      jump\t// in\n    tag_377:\n        /* \"#utility.yul\":6158:6600   */\n      swap5\n      swap4\n      pop\n      pop\n      pop\n      pop\n      jump\t// out\n        /* \"#utility.yul\":6606:6696   */\n    tag_287:\n        /* \"#utility.yul\":6640:6647   */\n      0x00\n        /* \"#utility.yul\":6683:6688   */\n      dup2\n        /* \"#utility.yul\":6676:6689   */\n      iszero\n        /* \"#utility.yul\":6669:6690   */\n      iszero\n        /* \"#utility.yul\":6658:6690   */\n      swap1\n      pop\n        /* \"#utility.yul\":6606:6696   */\n      swap2\n      swap1\n      pop\n      jump\t// out\n        /* \"#utility.yul\":6702:6818   */\n    tag_288:\n        /* \"#utility.yul\":6772:6793   */\n      tag_380\n        /* \"#utility.yul\":6787:6792   */\n      dup2\n        /* \"#utility.yul\":6772:6793   */\n      tag_287\n      jump\t// in\n    tag_380:\n        /* \"#utility.yul\":6765:6770   */\n      dup2\n        /* \"#utility.yul\":6762:6794   */\n      eq\n        /* \"#utility.yul\":6752:6812   */\n      tag_381\n      jumpi\n        /* \"#utility.yul\":6808:6809   */\n      0x00\n        /* \"#utility.yul\":6805:6806   */\n      0x00\n        /* \"#utility.yul\":6798:6810   */\n      revert\n        /* \"#utility.yul\":6752:6812   */\n    tag_381:\n        /* \"#utility.yul\":6702:6818   */\n      pop\n      jump\t// out\n        /* \"#utility.yul\":6824:6961   */\n    tag_289:\n        /* \"#utility.yul\":6878:6883   */\n      0x00\n        /* \"#utility.yul\":6909:6915   */\n      dup2\n        /* \"#utility.yul\":6903:6916   */\n      mload\n        /* \"#utility.yul\":6894:6916   */\n      swap1\n      pop\n        /* \"#utility.yul\":6925:6955   */\n      tag_383\n        /* \"#utility.yul\":6949:6954   */\n      dup2\n        /* \"#utility.yul\":6925:6955   */\n      tag_288\n      jump\t// in\n    tag_383:\n        /* \"#utility.yul\":6824:6961   */\n      swap3\n      swap2\n      pop\n      pop\n      jump\t// out\n        /* \"#utility.yul\":6967:7312   */\n    tag_124:\n        /* \"#utility.yul\":7034:7040   */\n      0x00\n        /* \"#utility.yul\":7083:7085   */\n      0x20\n        /* \"#utility.yul\":7071:7080   */\n      dup3\n        /* \"#utility.yul\":7062:7069   */\n      dup5\n        /* \"#utility.yul\":7058:7081   */\n      sub\n        /* \"#utility.yul\":7054:7086   */\n      slt\n        /* \"#utility.yul\":7051:7170   */\n      iszero\n      tag_385\n      jumpi\n        /* \"#utility.yul\":7089:7168   */\n      tag_386\n      tag_277\n      jump\t// in\n    tag_386:\n        /* \"#utility.yul\":7051:7170   */\n    tag_385:\n        /* \"#utility.yul\":7209:7210   */\n      0x00\n        /* \"#utility.yul\":7234:7295   */\n      tag_387\n        /* \"#utility.yul\":7287:7294   */\n      dup5\n        /* \"#utility.yul\":7278:7284   */\n      dup3\n        /* \"#utility.yul\":7267:7276   */\n      dup6\n        /* \"#utility.yul\":7263:7285   */\n      add\n        /* \"#utility.yul\":7234:7295   */\n      tag_289\n      jump\t// in\n    tag_387:\n        /* \"#utility.yul\":7224:7295   */\n      swap2\n      pop\n        /* \"#utility.yul\":7180:7305   */\n      pop\n        /* \"#utility.yul\":6967:7312   */\n      swap3\n      swap2\n      pop\n      pop\n      jump\t// out\n        /* \"#utility.yul\":7318:7650   */\n    tag_127:\n        /* \"#utility.yul\":7439:7443   */\n      0x00\n        /* \"#utility.yul\":7477:7479   */\n      0x40\n        /* \"#utility.yul\":7466:7475   */\n      dup3\n        /* \"#utility.yul\":7462:7480   */\n      add\n        /* \"#utility.yul\":7454:7480   */\n      swap1\n      pop\n        /* \"#utility.yul\":7490:7561   */\n      tag_389\n        /* \"#utility.yul\":7558:7559   */\n      0x00\n        /* \"#utility.yul\":7547:7556   */\n      dup4\n        /* \"#utility.yul\":7543:7560   */\n      add\n        /* \"#utility.yul\":7534:7540   */\n      dup6\n        /* \"#utility.yul\":7490:7561   */\n      tag_284\n      jump\t// in\n    tag_389:\n        /* \"#utility.yul\":7571:7643   */\n      tag_390\n        /* \"#utility.yul\":7639:7641   */\n      0x20\n        /* \"#utility.yul\":7628:7637   */\n      dup4\n        /* \"#utility.yul\":7624:7642   */\n      add\n        /* \"#utility.yul\":7615:7621   */\n      dup5\n        /* \"#utility.yul\":7571:7643   */\n      tag_269\n      jump\t// in\n    tag_390:\n        /* \"#utility.yul\":7318:7650   */\n      swap4\n      swap3\n      pop\n      pop\n      pop\n      jump\t// out\n        /* \"#utility.yul\":7656:8209   */\n    tag_135:\n        /* \"#utility.yul\":7833:7837   */\n      0x00\n        /* \"#utility.yul\":7871:7874   */\n      0x80\n        /* \"#utility.yul\":7860:7869   */\n      dup3\n        /* \"#utility.yul\":7856:7875   */\n      add\n        /* \"#utility.yul\":7848:7875   */\n      swap1\n      pop\n        /* \"#utility.yul\":7885:7956   */\n      tag_392\n        /* \"#utility.yul\":7953:7954   */\n      0x00\n        /* \"#utility.yul\":7942:7951   */\n      dup4\n        /* \"#utility.yul\":7938:7955   */\n      add\n        /* \"#utility.yul\":7929:7935   */\n      dup8\n        /* \"#utility.yul\":7885:7956   */\n      tag_284\n      jump\t// in\n    tag_392:\n        /* \"#utility.yul\":7966:8038   */\n      tag_393\n        /* \"#utility.yul\":8034:8036   */\n      0x20\n        /* \"#utility.yul\":8023:8032   */\n      dup4\n        /* \"#utility.yul\":8019:8037   */\n      add\n        /* \"#utility.yul\":8010:8016   */\n      dup7\n        /* \"#utility.yul\":7966:8038   */\n      tag_284\n      jump\t// in\n    tag_393:\n        /* \"#utility.yul\":8048:8120   */\n      tag_394\n        /* \"#utility.yul\":8116:8118   */\n      0x40\n        /* \"#utility.yul\":8105:8114   */\n      dup4\n        /* \"#utility.yul\":8101:8119   */\n      add\n        /* \"#utility.yul\":8092:8098   */\n      dup6\n        /* \"#utility.yul\":8048:8120   */\n      tag_269\n      jump\t// in\n    tag_394:\n        /* \"#utility.yul\":8130:8202   */\n      tag_395\n        /* \"#utility.yul\":8198:8200   */\n      0x60\n        /* \"#utility.yul\":8187:8196   */\n      dup4\n        /* \"#utility.yul\":8183:8201   */\n      add\n        /* \"#utility.yul\":8174:8180   */\n      dup5\n        /* \"#utility.yul\":8130:8202   */\n      tag_269\n      jump\t// in\n    tag_395:\n        /* \"#utility.yul\":7656:8209   */\n      swap6\n      swap5\n      pop\n      pop\n      pop\n      pop\n      pop\n      jump\t// out\n        /* \"#utility.yul\":8215:8358   */\n    tag_290:\n        /* \"#utility.yul\":8272:8277   */\n      0x00\n        /* \"#utility.yul\":8303:8309   */\n      dup2\n        /* \"#utility.yul\":8297:8310   */\n      mload\n        /* \"#utility.yul\":8288:8310   */\n      swap1\n      pop\n        /* \"#utility.yul\":8319:8352   */\n      tag_397\n        /* \"#utility.yul\":8346:8351   */\n      dup2\n        /* \"#utility.yul\":8319:8352   */\n      tag_282\n      jump\t// in\n    tag_397:\n        /* \"#utility.yul\":8215:8358   */\n      swap3\n      swap2\n      pop\n      pop\n      jump\t// out\n        /* \"#utility.yul\":8364:8715   */\n    tag_207:\n        /* \"#utility.yul\":8434:8440   */\n      0x00\n        /* \"#utility.yul\":8483:8485   */\n      0x20\n        /* \"#utility.yul\":8471:8480   */\n      dup3\n        /* \"#utility.yul\":8462:8469   */\n      dup5\n        /* \"#utility.yul\":8458:8481   */\n      sub\n        /* \"#utility.yul\":8454:8486   */\n      slt\n        /* \"#utility.yul\":8451:8570   */\n      iszero\n      tag_399\n      jumpi\n        /* \"#utility.yul\":8489:8568   */\n      tag_400\n      tag_277\n      jump\t// in\n    tag_400:\n        /* \"#utility.yul\":8451:8570   */\n    tag_399:\n        /* \"#utility.yul\":8609:8610   */\n      0x00\n        /* \"#utility.yul\":8634:8698   */\n      tag_401\n        /* \"#utility.yul\":8690:8697   */\n      dup5\n        /* \"#utility.yul\":8681:8687   */\n      dup3\n        /* \"#utility.yul\":8670:8679   */\n      dup6\n        /* \"#utility.yul\":8666:8688   */\n      add\n        /* \"#utility.yul\":8634:8698   */\n      tag_290\n      jump\t// in\n    tag_401:\n        /* \"#utility.yul\":8624:8698   */\n      swap2\n      pop\n        /* \"#utility.yul\":8580:8708   */\n      pop\n        /* \"#utility.yul\":8364:8715   */\n      swap3\n      swap2\n      pop\n      pop\n      jump\t// out\n\n    auxdata: 0xa26469706673582212207fc61f5b4e505fef271389cd12f97d3fae6fae2daba1b226362dc0d05b72b9fd64736f6c634300081e0033\n}\n",
				"bytecode": {
					"linkReferences": {},
					"object": "608060405234801561000f575f5ffd5b5060405161221a38038061221a83398181016040528101906100319190610374565b335f73ffffffffffffffffffffffffffffffffffffffff168173ffffffffffffffffffffffffffffffffffffffff16036100a2575f6040517f1e4fbdf700000000000000000000000000000000000000000000000000000000815260040161009991906103c1565b60405180910390fd5b6100b18161025560201b60201c565b50600180819055505f73ffffffffffffffffffffffffffffffffffffffff168273ffffffffffffffffffffffffffffffffffffffff161415801561012157505f73ffffffffffffffffffffffffffffffffffffffff168173ffffffffffffffffffffffffffffffffffffffff1614155b610160576040517f08c379a000000000000000000000000000000000000000000000000000000000815260040161015790610434565b60405180910390fd5b8073ffffffffffffffffffffffffffffffffffffffff168273ffffffffffffffffffffffffffffffffffffffff16036101ce576040517f08c379a00000000000000000000000000000000000000000000000000000000081526004016101c59061049c565b60405180910390fd5b8160025f6101000a81548173ffffffffffffffffffffffffffffffffffffffff021916908373ffffffffffffffffffffffffffffffffffffffff1602179055508060035f6101000a81548173ffffffffffffffffffffffffffffffffffffffff021916908373ffffffffffffffffffffffffffffffffffffffff16021790555050506104ba565b5f5f5f9054906101000a900473ffffffffffffffffffffffffffffffffffffffff169050815f5f6101000a81548173ffffffffffffffffffffffffffffffffffffffff021916908373ffffffffffffffffffffffffffffffffffffffff1602179055508173ffffffffffffffffffffffffffffffffffffffff168173ffffffffffffffffffffffffffffffffffffffff167f8be0079c531659141344cd1fd0a4f28419497f9722a3daafe3b4186f6b6457e060405160405180910390a35050565b5f5ffd5b5f73ffffffffffffffffffffffffffffffffffffffff82169050919050565b5f6103438261031a565b9050919050565b61035381610339565b811461035d575f5ffd5b50565b5f8151905061036e8161034a565b92915050565b5f5f6040838503121561038a57610389610316565b5b5f61039785828601610360565b92505060206103a885828601610360565b9150509250929050565b6103bb81610339565b82525050565b5f6020820190506103d45f8301846103b2565b92915050565b5f82825260208201905092915050565b7f496e76616c696420746f6b656e206164647265737365730000000000000000005f82015250565b5f61041e6017836103da565b9150610429826103ea565b602082019050919050565b5f6020820190508181035f83015261044b81610412565b9050919050565b7f546f6b656e73206d75737420626520646966666572656e7400000000000000005f82015250565b5f6104866018836103da565b915061049182610452565b602082019050919050565b5f6020820190508181035f8301526104b38161047a565b9050919050565b611d53806104c75f395ff3fe608060405234801561000f575f5ffd5b5060043610610109575f3560e01c80639cd441da116100a0578063db2e21bc1161006f578063db2e21bc14610280578063dc5fa6c51461028a578063e4f1f70a146102a8578063eaf98d23146102c4578063f2fde38b146102e257610109565b80639cd441da146101fa5780639d7de6b314610216578063ca706bcf14610232578063d73792a91461026257610109565b80635f64b55b116100dc5780635f64b55b14610198578063715018a6146101b65780638014a7aa146101c05780638da5cb5b146101dc57610109565b80630902f1ac1461010d5780630fc63d101461012c57806319e36f3b1461014a57806341976e0914610168575b5f5ffd5b6101156102fe565b604051610123929190611878565b60405180910390f35b61013461030e565b6040516101419190611919565b60405180910390f35b610152610333565b60405161015f9190611932565b60405180910390f35b610182600480360381019061017d919061198a565b610339565b60405161018f9190611932565b60405180910390f35b6101a061048d565b6040516101ad9190611919565b60405180910390f35b6101be6104b2565b005b6101da60048036038101906101d591906119df565b6104c5565b005b6101e4610898565b6040516101f19190611a19565b60405180910390f35b610214600480360381019061020f9190611a32565b6108bf565b005b610230600480360381019061022b9190611a32565b610b47565b005b61024c60048036038101906102479190611a70565b610e13565b6040516102599190611932565b60405180910390f35b61026a610fbc565b6040516102779190611932565b60405180910390f35b610288610fc2565b005b610292611260565b60405161029f9190611932565b60405180910390f35b6102c260048036038101906102bd91906119df565b611266565b005b6102cc611639565b6040516102d99190611932565b60405180910390f35b6102fc60048036038101906102f7919061198a565b61163e565b005b5f5f600454600554915091509091565b60025f9054906101000a900473ffffffffffffffffffffffffffffffffffffffff1681565b60055481565b5f5f600454148061034b57505f600554145b15610358575f9050610488565b60025f9054906101000a900473ffffffffffffffffffffffffffffffffffffffff1673ffffffffffffffffffffffffffffffffffffffff168273ffffffffffffffffffffffffffffffffffffffff16036103d657600454670de0b6b3a76400006005546103c59190611adb565b6103cf9190611b49565b9050610487565b60035f9054906101000a900473ffffffffffffffffffffffffffffffffffffffff1673ffffffffffffffffffffffffffffffffffffffff168273ffffffffffffffffffffffffffffffffffffffff160361045457600554670de0b6b3a76400006004546104439190611adb565b61044d9190611b49565b9050610486565b6040517fc1ab6dc100000000000000000000000000000000000000000000000000000000815260040160405180910390fd5b5b5b919050565b60035f9054906101000a900473ffffffffffffffffffffffffffffffffffffffff1681565b6104ba6116c2565b6104c35f611749565b565b6104cd61180a565b5f8103610506576040517f1f2a200500000000000000000000000000000000000000000000000000000000815260040160405180910390fd5b5f600454148061051757505f600554145b1561054e576040517fbb55fd2700000000000000000000000000000000000000000000000000000000815260040160405180910390fd5b5f612710601e6127106105619190611b79565b8361056c9190611adb565b6105769190611b49565b90505f600454826105879190611adb565b90505f826005546105989190611bac565b90505f81836105a79190611b49565b90505f81036105e2576040517f5945ea5600000000000000000000000000000000000000000000000000000000815260040160405180910390fd5b600454811061061d576040517fbb55fd2700000000000000000000000000000000000000000000000000000000815260040160405180910390fd5b60035f9054906101000a900473ffffffffffffffffffffffffffffffffffffffff1673ffffffffffffffffffffffffffffffffffffffff166323b872dd3330886040518463ffffffff1660e01b815260040161067b93929190611bdf565b6020604051808303815f875af1158015610697573d5f5f3e3d5ffd5b505050506040513d601f19601f820116820180604052508101906106bb9190611c49565b6106f1576040517f90b8ec1800000000000000000000000000000000000000000000000000000000815260040160405180910390fd5b60025f9054906101000a900473ffffffffffffffffffffffffffffffffffffffff1673ffffffffffffffffffffffffffffffffffffffff1663a9059cbb33836040518363ffffffff1660e01b815260040161074d929190611c74565b6020604051808303815f875af1158015610769573d5f5f3e3d5ffd5b505050506040513d601f19601f8201168201806040525081019061078d9190611c49565b6107c3576040517f90b8ec1800000000000000000000000000000000000000000000000000000000815260040160405180910390fd5b8460055f8282546107d49190611bac565b925050819055508060045f8282546107ec9190611b79565b925050819055503373ffffffffffffffffffffffffffffffffffffffff167fad56699d0f375866eb895ed27203058a36a713382aaded78eb6b67da266d433260035f9054906101000a900473ffffffffffffffffffffffffffffffffffffffff1660025f9054906101000a900473ffffffffffffffffffffffffffffffffffffffff1688856040516108819493929190611c9b565b60405180910390a250505050610895611850565b50565b5f5f5f9054906101000a900473ffffffffffffffffffffffffffffffffffffffff16905090565b6108c76116c2565b6108cf61180a565b5f8214806108dc57505f81145b15610913576040517f1f2a200500000000000000000000000000000000000000000000000000000000815260040160405180910390fd5b60025f9054906101000a900473ffffffffffffffffffffffffffffffffffffffff1673ffffffffffffffffffffffffffffffffffffffff166323b872dd3330856040518463ffffffff1660e01b815260040161097193929190611bdf565b6020604051808303815f875af115801561098d573d5f5f3e3d5ffd5b505050506040513d601f19601f820116820180604052508101906109b19190611c49565b6109e7576040517f90b8ec1800000000000000000000000000000000000000000000000000000000815260040160405180910390fd5b60035f9054906101000a900473ffffffffffffffffffffffffffffffffffffffff1673ffffffffffffffffffffffffffffffffffffffff166323b872dd3330846040518463ffffffff1660e01b8152600401610a4593929190611bdf565b6020604051808303815f875af1158015610a61573d5f5f3e3d5ffd5b505050506040513d601f19601f82011682018060405250810190610a859190611c49565b610abb576040517f90b8ec1800000000000000000000000000000000000000000000000000000000815260040160405180910390fd5b8160045f828254610acc9190611bac565b925050819055508060055f828254610ae49190611bac565b925050819055503373ffffffffffffffffffffffffffffffffffffffff167fac1d76749e5447b7b16f5ab61447e1bd502f3bb4807af3b28e620d1700a6ee458383604051610b33929190611878565b60405180910390a2610b43611850565b5050565b610b4f6116c2565b610b5761180a565b5f821480610b6457505f81145b15610b9b576040517f1f2a200500000000000000000000000000000000000000000000000000000000815260040160405180910390fd5b600454821180610bac575060055481115b15610be3576040517fbb55fd2700000000000000000000000000000000000000000000000000000000815260040160405180910390fd5b60025f9054906101000a900473ffffffffffffffffffffffffffffffffffffffff1673ffffffffffffffffffffffffffffffffffffffff1663a9059cbb33846040518363ffffffff1660e01b8152600401610c3f929190611c74565b6020604051808303815f875af1158015610c5b573d5f5f3e3d5ffd5b505050506040513d601f19601f82011682018060405250810190610c7f9190611c49565b610cb5576040517f90b8ec1800000000000000000000000000000000000000000000000000000000815260040160405180910390fd5b60035f9054906101000a900473ffffffffffffffffffffffffffffffffffffffff1673ffffffffffffffffffffffffffffffffffffffff1663a9059cbb33836040518363ffffffff1660e01b8152600401610d11929190611c74565b6020604051808303815f875af1158015610d2d573d5f5f3e3d5ffd5b505050506040513d601f19601f82011682018060405250810190610d519190611c49565b610d87576040517f90b8ec1800000000000000000000000000000000000000000000000000000000815260040160405180910390fd5b8160045f828254610d989190611b79565b925050819055508060055f828254610db09190611b79565b925050819055503373ffffffffffffffffffffffffffffffffffffffff167f96cd817c6329656790ef8fba7675405193677d39619571282f5e21f3a98cd0598383604051610dff929190611878565b60405180910390a2610e0f611850565b5050565b5f5f8203610e23575f9050610fb6565b5f6004541480610e3457505f600554145b15610e41575f9050610fb6565b5f612710601e612710610e549190611b79565b84610e5f9190611adb565b610e699190611b49565b905060025f9054906101000a900473ffffffffffffffffffffffffffffffffffffffff1673ffffffffffffffffffffffffffffffffffffffff168473ffffffffffffffffffffffffffffffffffffffff1603610ef6575f60055482610ece9190611adb565b90505f82600454610edf9190611bac565b90508082610eed9190611b49565b93505050610fb4565b60035f9054906101000a900473ffffffffffffffffffffffffffffffffffffffff1673ffffffffffffffffffffffffffffffffffffffff168473ffffffffffffffffffffffffffffffffffffffff1603610f81575f60045482610f599190611adb565b90505f82600554610f6a9190611bac565b90508082610f789190611b49565b93505050610fb3565b6040517fc1ab6dc100000000000000000000000000000000000000000000000000000000815260040160405180910390fd5b5b505b92915050565b61271081565b610fca6116c2565b5f60025f9054906101000a900473ffffffffffffffffffffffffffffffffffffffff1673ffffffffffffffffffffffffffffffffffffffff166370a08231306040518263ffffffff1660e01b81526004016110259190611a19565b602060405180830381865afa158015611040573d5f5f3e3d5ffd5b505050506040513d601f19601f820116820180604052508101906110649190611cf2565b90505f60035f9054906101000a900473ffffffffffffffffffffffffffffffffffffffff1673ffffffffffffffffffffffffffffffffffffffff166370a08231306040518263ffffffff1660e01b81526004016110c19190611a19565b602060405180830381865afa1580156110dc573d5f5f3e3d5ffd5b505050506040513d601f19601f820116820180604052508101906111009190611cf2565b90505f8211156111a85760025f9054906101000a900473ffffffffffffffffffffffffffffffffffffffff1673ffffffffffffffffffffffffffffffffffffffff1663a9059cbb33846040518363ffffffff1660e01b8152600401611166929190611c74565b6020604051808303815f875af1158015611182573d5f5f3e3d5ffd5b505050506040513d601f19601f820116820180604052508101906111a69190611c49565b505b5f81111561124e5760035f9054906101000a900473ffffffffffffffffffffffffffffffffffffffff1673ffffffffffffffffffffffffffffffffffffffff1663a9059cbb33836040518363ffffffff1660e01b815260040161120c929190611c74565b6020604051808303815f875af1158015611228573d5f5f3e3d5ffd5b505050506040513d601f19601f8201168201806040525081019061124c9190611c49565b505b5f6004819055505f6005819055505050565b60045481565b61126e61180a565b5f81036112a7576040517f1f2a200500000000000000000000000000000000000000000000000000000000815260040160405180910390fd5b5f60045414806112b857505f600554145b156112ef576040517fbb55fd2700000000000000000000000000000000000000000000000000000000815260040160405180910390fd5b5f612710601e6127106113029190611b79565b8361130d9190611adb565b6113179190611b49565b90505f600554826113289190611adb565b90505f826004546113399190611bac565b90505f81836113489190611b49565b90505f8103611383576040517f5945ea5600000000000000000000000000000000000000000000000000000000815260040160405180910390fd5b60055481106113be576040517fbb55fd2700000000000000000000000000000000000000000000000000000000815260040160405180910390fd5b60025f9054906101000a900473ffffffffffffffffffffffffffffffffffffffff1673ffffffffffffffffffffffffffffffffffffffff166323b872dd3330886040518463ffffffff1660e01b815260040161141c93929190611bdf565b6020604051808303815f875af1158015611438573d5f5f3e3d5ffd5b505050506040513d601f19601f8201168201806040525081019061145c9190611c49565b611492576040517f90b8ec1800000000000000000000000000000000000000000000000000000000815260040160405180910390fd5b60035f9054906101000a900473ffffffffffffffffffffffffffffffffffffffff1673ffffffffffffffffffffffffffffffffffffffff1663a9059cbb33836040518363ffffffff1660e01b81526004016114ee929190611c74565b6020604051808303815f875af115801561150a573d5f5f3e3d5ffd5b505050506040513d601f19601f8201168201806040525081019061152e9190611c49565b611564576040517f90b8ec1800000000000000000000000000000000000000000000000000000000815260040160405180910390fd5b8460045f8282546115759190611bac565b925050819055508060055f82825461158d9190611b79565b925050819055503373ffffffffffffffffffffffffffffffffffffffff167fad56699d0f375866eb895ed27203058a36a713382aaded78eb6b67da266d433260025f9054906101000a900473ffffffffffffffffffffffffffffffffffffffff1660035f9054906101000a900473ffffffffffffffffffffffffffffffffffffffff1688856040516116229493929190611c9b565b60405180910390a250505050611636611850565b50565b601e81565b6116466116c2565b5f73ffffffffffffffffffffffffffffffffffffffff168173ffffffffffffffffffffffffffffffffffffffff16036116b6575f6040517f1e4fbdf70000000000000000000000000000000000000000000000000000000081526004016116ad9190611a19565b60405180910390fd5b6116bf81611749565b50565b6116ca611859565b73ffffffffffffffffffffffffffffffffffffffff166116e8610898565b73ffffffffffffffffffffffffffffffffffffffff16146117475761170b611859565b6040517f118cdaa700000000000000000000000000000000000000000000000000000000815260040161173e9190611a19565b60405180910390fd5b565b5f5f5f9054906101000a900473ffffffffffffffffffffffffffffffffffffffff169050815f5f6101000a81548173ffffffffffffffffffffffffffffffffffffffff021916908373ffffffffffffffffffffffffffffffffffffffff1602179055508173ffffffffffffffffffffffffffffffffffffffff168173ffffffffffffffffffffffffffffffffffffffff167f8be0079c531659141344cd1fd0a4f28419497f9722a3daafe3b4186f6b6457e060405160405180910390a35050565b600260015403611846576040517f3ee5aeb500000000000000000000000000000000000000000000000000000000815260040160405180910390fd5b6002600181905550565b60018081905550565b5f33905090565b5f819050919050565b61187281611860565b82525050565b5f60408201905061188b5f830185611869565b6118986020830184611869565b9392505050565b5f73ffffffffffffffffffffffffffffffffffffffff82169050919050565b5f819050919050565b5f6118e16118dc6118d78461189f565b6118be565b61189f565b9050919050565b5f6118f2826118c7565b9050919050565b5f611903826118e8565b9050919050565b611913816118f9565b82525050565b5f60208201905061192c5f83018461190a565b92915050565b5f6020820190506119455f830184611869565b92915050565b5f5ffd5b5f6119598261189f565b9050919050565b6119698161194f565b8114611973575f5ffd5b50565b5f8135905061198481611960565b92915050565b5f6020828403121561199f5761199e61194b565b5b5f6119ac84828501611976565b91505092915050565b6119be81611860565b81146119c8575f5ffd5b50565b5f813590506119d9816119b5565b92915050565b5f602082840312156119f4576119f361194b565b5b5f611a01848285016119cb565b91505092915050565b611a138161194f565b82525050565b5f602082019050611a2c5f830184611a0a565b92915050565b5f5f60408385031215611a4857611a4761194b565b5b5f611a55858286016119cb565b9250506020611a66858286016119cb565b9150509250929050565b5f5f60408385031215611a8657611a8561194b565b5b5f611a9385828601611976565b9250506020611aa4858286016119cb565b9150509250929050565b7f4e487b71000000000000000000000000000000000000000000000000000000005f52601160045260245ffd5b5f611ae582611860565b9150611af083611860565b9250828202611afe81611860565b91508282048414831517611b1557611b14611aae565b5b5092915050565b7f4e487b71000000000000000000000000000000000000000000000000000000005f52601260045260245ffd5b5f611b5382611860565b9150611b5e83611860565b925082611b6e57611b6d611b1c565b5b828204905092915050565b5f611b8382611860565b9150611b8e83611860565b9250828203905081811115611ba657611ba5611aae565b5b92915050565b5f611bb682611860565b9150611bc183611860565b9250828201905080821115611bd957611bd8611aae565b5b92915050565b5f606082019050611bf25f830186611a0a565b611bff6020830185611a0a565b611c0c6040830184611869565b949350505050565b5f8115159050919050565b611c2881611c14565b8114611c32575f5ffd5b50565b5f81519050611c4381611c1f565b92915050565b5f60208284031215611c5e57611c5d61194b565b5b5f611c6b84828501611c35565b91505092915050565b5f604082019050611c875f830185611a0a565b611c946020830184611869565b9392505050565b5f608082019050611cae5f830187611a0a565b611cbb6020830186611a0a565b611cc86040830185611869565b611cd56060830184611869565b95945050505050565b5f81519050611cec816119b5565b92915050565b5f60208284031215611d0757611d0661194b565b5b5f611d1484828501611cde565b9150509291505056fea26469706673582212207fc61f5b4e505fef271389cd12f97d3fae6fae2daba1b226362dc0d05b72b9fd64736f6c634300081e0033",
					"opcodes": "PUSH1 0x80 PUSH1 0x40 MSTORE CALLVALUE DUP1 ISZERO PUSH2 0xF JUMPI PUSH0 PUSH0 REVERT JUMPDEST POP PUSH1 0x40 MLOAD PUSH2 0x221A CODESIZE SUB DUP1 PUSH2 0x221A DUP4 CODECOPY DUP2 DUP2 ADD PUSH1 0x40 MSTORE DUP2 ADD SWAP1 PUSH2 0x31 SWAP2 SWAP1 PUSH2 0x374 JUMP JUMPDEST CALLER PUSH0 PUSH20 0xFFFFFFFFFFFFFFFFFFFFFFFFFFFFFFFFFFFFFFFF AND DUP2 PUSH20 0xFFFFFFFFFFFFFFFFFFFFFFFFFFFFFFFFFFFFFFFF AND SUB PUSH2 0xA2 JUMPI PUSH0 PUSH1 0x40 MLOAD PUSH32 0x1E4FBDF700000000000000000000000000000000000000000000000000000000 DUP2 MSTORE PUSH1 0x4 ADD PUSH2 0x99 SWAP2 SWAP1 PUSH2 0x3C1 JUMP JUMPDEST PUSH1 0x40 MLOAD DUP1 SWAP2 SUB SWAP1 REVERT JUMPDEST PUSH2 0xB1 DUP2 PUSH2 0x255 PUSH1 0x20 SHL PUSH1 0x20 SHR JUMP JUMPDEST POP PUSH1 0x1 DUP1 DUP2 SWAP1 SSTORE POP PUSH0 PUSH20 0xFFFFFFFFFFFFFFFFFFFFFFFFFFFFFFFFFFFFFFFF AND DUP3 PUSH20 0xFFFFFFFFFFFFFFFFFFFFFFFFFFFFFFFFFFFFFFFF AND EQ ISZERO DUP1 ISZERO PUSH2 0x121 JUMPI POP PUSH0 PUSH20 0xFFFFFFFFFFFFFFFFFFFFFFFFFFFFFFFFFFFFFFFF AND DUP2 PUSH20 0xFFFFFFFFFFFFFFFFFFFFFFFFFFFFFFFFFFFFFFFF AND EQ ISZERO JUMPDEST PUSH2 0x160 JUMPI PUSH1 0x40 MLOAD PUSH32 0x8C379A000000000000000000000000000000000000000000000000000000000 DUP2 MSTORE PUSH1 0x4 ADD PUSH2 0x157 SWAP1 PUSH2 0x434 JUMP JUMPDEST PUSH1 0x40 MLOAD DUP1 SWAP2 SUB SWAP1 REVERT JUMPDEST DUP1 PUSH20 0xFFFFFFFFFFFFFFFFFFFFFFFFFFFFFFFFFFFFFFFF AND DUP3 PUSH20 0xFFFFFFFFFFFFFFFFFFFFFFFFFFFFFFFFFFFFFFFF AND SUB PUSH2 0x1CE JUMPI PUSH1 0x40 MLOAD PUSH32 0x8C379A000000000000000000000000000000000000000000000000000000000 DUP2 MSTORE PUSH1 0x4 ADD PUSH2 0x1C5 SWAP1 PUSH2 0x49C JUMP JUMPDEST PUSH1 0x40 MLOAD DUP1 SWAP2 SUB SWAP1 REVERT JUMPDEST DUP2 PUSH1 0x2 PUSH0 PUSH2 0x100 EXP DUP2 SLOAD DUP2 PUSH20 0xFFFFFFFFFFFFFFFFFFFFFFFFFFFFFFFFFFFFFFFF MUL NOT AND SWAP1 DUP4 PUSH20 0xFFFFFFFFFFFFFFFFFFFFFFFFFFFFFFFFFFFFFFFF AND MUL OR SWAP1 SSTORE POP DUP1 PUSH1 0x3 PUSH0 PUSH2 0x100 EXP DUP2 SLOAD DUP2 PUSH20 0xFFFFFFFFFFFFFFFFFFFFFFFFFFFFFFFFFFFFFFFF MUL NOT AND SWAP1 DUP4 PUSH20 0xFFFFFFFFFFFFFFFFFFFFFFFFFFFFFFFFFFFFFFFF AND MUL OR SWAP1 SSTORE POP POP POP PUSH2 0x4BA JUMP JUMPDEST PUSH0 PUSH0 PUSH0 SWAP1 SLOAD SWAP1 PUSH2 0x100 EXP SWAP1 DIV PUSH20 0xFFFFFFFFFFFFFFFFFFFFFFFFFFFFFFFFFFFFFFFF AND SWAP1 POP DUP2 PUSH0 PUSH0 PUSH2 0x100 EXP DUP2 SLOAD DUP2 PUSH20 0xFFFFFFFFFFFFFFFFFFFFFFFFFFFFFFFFFFFFFFFF MUL NOT AND SWAP1 DUP4 PUSH20 0xFFFFFFFFFFFFFFFFFFFFFFFFFFFFFFFFFFFFFFFF AND MUL OR SWAP1 SSTORE POP DUP2 PUSH20 0xFFFFFFFFFFFFFFFFFFFFFFFFFFFFFFFFFFFFFFFF AND DUP2 PUSH20 0xFFFFFFFFFFFFFFFFFFFFFFFFFFFFFFFFFFFFFFFF AND PUSH32 0x8BE0079C531659141344CD1FD0A4F28419497F9722A3DAAFE3B4186F6B6457E0 PUSH1 0x40 MLOAD PUSH1 0x40 MLOAD DUP1 SWAP2 SUB SWAP1 LOG3 POP POP JUMP JUMPDEST PUSH0 PUSH0 REVERT JUMPDEST PUSH0 PUSH20 0xFFFFFFFFFFFFFFFFFFFFFFFFFFFFFFFFFFFFFFFF DUP3 AND SWAP1 POP SWAP2 SWAP1 POP JUMP JUMPDEST PUSH0 PUSH2 0x343 DUP3 PUSH2 0x31A JUMP JUMPDEST SWAP1 POP SWAP2 SWAP1 POP JUMP JUMPDEST PUSH2 0x353 DUP2 PUSH2 0x339 JUMP JUMPDEST DUP2 EQ PUSH2 0x35D JUMPI PUSH0 PUSH0 REVERT JUMPDEST POP JUMP JUMPDEST PUSH0 DUP2 MLOAD SWAP1 POP PUSH2 0x36E DUP2 PUSH2 0x34A JUMP JUMPDEST SWAP3 SWAP2 POP POP JUMP JUMPDEST PUSH0 PUSH0 PUSH1 0x40 DUP4 DUP6 SUB SLT ISZERO PUSH2 0x38A JUMPI PUSH2 0x389 PUSH2 0x316 JUMP JUMPDEST JUMPDEST PUSH0 PUSH2 0x397 DUP6 DUP3 DUP7 ADD PUSH2 0x360 JUMP JUMPDEST SWAP3 POP POP PUSH1 0x20 PUSH2 0x3A8 DUP6 DUP3 DUP7 ADD PUSH2 0x360 JUMP JUMPDEST SWAP2 POP POP SWAP3 POP SWAP3 SWAP1 POP JUMP JUMPDEST PUSH2 0x3BB DUP2 PUSH2 0x339 JUMP JUMPDEST DUP3 MSTORE POP POP JUMP JUMPDEST PUSH0 PUSH1 0x20 DUP3 ADD SWAP1 POP PUSH2 0x3D4 PUSH0 DUP4 ADD DUP5 PUSH2 0x3B2 JUMP JUMPDEST SWAP3 SWAP2 POP POP JUMP JUMPDEST PUSH0 DUP3 DUP3 MSTORE PUSH1 0x20 DUP3 ADD SWAP1 POP SWAP3 SWAP2 POP POP JUMP JUMPDEST PUSH32 0x496E76616C696420746F6B656E20616464726573736573000000000000000000 PUSH0 DUP3 ADD MSTORE POP JUMP JUMPDEST PUSH0 PUSH2 0x41E PUSH1 0x17 DUP4 PUSH2 0x3DA JUMP JUMPDEST SWAP2 POP PUSH2 0x429 DUP3 PUSH2 0x3EA JUMP JUMPDEST PUSH1 0x20 DUP3 ADD SWAP1 POP SWAP2 SWAP1 POP JUMP JUMPDEST PUSH0 PUSH1 0x20 DUP3 ADD SWAP1 POP DUP2 DUP2 SUB PUSH0 DUP4 ADD MSTORE PUSH2 0x44B DUP2 PUSH2 0x412 JUMP JUMPDEST SWAP1 POP SWAP2 SWAP1 POP JUMP JUMPDEST PUSH32 0x546F6B656E73206D75737420626520646966666572656E740000000000000000 PUSH0 DUP3 ADD MSTORE POP JUMP JUMPDEST PUSH0 PUSH2 0x486 PUSH1 0x18 DUP4 PUSH2 0x3DA JUMP JUMPDEST SWAP2 POP PUSH2 0x491 DUP3 PUSH2 0x452 JUMP JUMPDEST PUSH1 0x20 DUP3 ADD SWAP1 POP SWAP2 SWAP1 POP JUMP JUMPDEST PUSH0 PUSH1 0x20 DUP3 ADD SWAP1 POP DUP2 DUP2 SUB PUSH0 DUP4 ADD MSTORE PUSH2 0x4B3 DUP2 PUSH2 0x47A JUMP JUMPDEST SWAP1 POP SWAP2 SWAP1 POP JUMP JUMPDEST PUSH2 0x1D53 DUP1 PUSH2 0x4C7 PUSH0 CODECOPY PUSH0 RETURN INVALID PUSH1 0x80 PUSH1 0x40 MSTORE CALLVALUE DUP1 ISZERO PUSH2 0xF JUMPI PUSH0 PUSH0 REVERT JUMPDEST POP PUSH1 0x4 CALLDATASIZE LT PUSH2 0x109 JUMPI PUSH0 CALLDATALOAD PUSH1 0xE0 SHR DUP1 PUSH4 0x9CD441DA GT PUSH2 0xA0 JUMPI DUP1 PUSH4 0xDB2E21BC GT PUSH2 0x6F JUMPI DUP1 PUSH4 0xDB2E21BC EQ PUSH2 0x280 JUMPI DUP1 PUSH4 0xDC5FA6C5 EQ PUSH2 0x28A JUMPI DUP1 PUSH4 0xE4F1F70A EQ PUSH2 0x2A8 JUMPI DUP1 PUSH4 0xEAF98D23 EQ PUSH2 0x2C4 JUMPI DUP1 PUSH4 0xF2FDE38B EQ PUSH2 0x2E2 JUMPI PUSH2 0x109 JUMP JUMPDEST DUP1 PUSH4 0x9CD441DA EQ PUSH2 0x1FA JUMPI DUP1 PUSH4 0x9D7DE6B3 EQ PUSH2 0x216 JUMPI DUP1 PUSH4 0xCA706BCF EQ PUSH2 0x232 JUMPI DUP1 PUSH4 0xD73792A9 EQ PUSH2 0x262 JUMPI PUSH2 0x109 JUMP JUMPDEST DUP1 PUSH4 0x5F64B55B GT PUSH2 0xDC JUMPI DUP1 PUSH4 0x5F64B55B EQ PUSH2 0x198 JUMPI DUP1 PUSH4 0x715018A6 EQ PUSH2 0x1B6 JUMPI DUP1 PUSH4 0x8014A7AA EQ PUSH2 0x1C0 JUMPI DUP1 PUSH4 0x8DA5CB5B EQ PUSH2 0x1DC JUMPI PUSH2 0x109 JUMP JUMPDEST DUP1 PUSH4 0x902F1AC EQ PUSH2 0x10D JUMPI DUP1 PUSH4 0xFC63D10 EQ PUSH2 0x12C JUMPI DUP1 PUSH4 0x19E36F3B EQ PUSH2 0x14A JUMPI DUP1 PUSH4 0x41976E09 EQ PUSH2 0x168 JUMPI JUMPDEST PUSH0 PUSH0 REVERT JUMPDEST PUSH2 0x115 PUSH2 0x2FE JUMP JUMPDEST PUSH1 0x40 MLOAD PUSH2 0x123 SWAP3 SWAP2 SWAP1 PUSH2 0x1878 JUMP JUMPDEST PUSH1 0x40 MLOAD DUP1 SWAP2 SUB SWAP1 RETURN JUMPDEST PUSH2 0x134 PUSH2 0x30E JUMP JUMPDEST PUSH1 0x40 MLOAD PUSH2 0x141 SWAP2 SWAP1 PUSH2 0x1919 JUMP JUMPDEST PUSH1 0x40 MLOAD DUP1 SWAP2 SUB SWAP1 RETURN JUMPDEST PUSH2 0x152 PUSH2 0x333 JUMP JUMPDEST PUSH1 0x40 MLOAD PUSH2 0x15F SWAP2 SWAP1 PUSH2 0x1932 JUMP JUMPDEST PUSH1 0x40 MLOAD DUP1 SWAP2 SUB SWAP1 RETURN JUMPDEST PUSH2 0x182 PUSH1 0x4 DUP1 CALLDATASIZE SUB DUP2 ADD SWAP1 PUSH2 0x17D SWAP2 SWAP1 PUSH2 0x198A JUMP JUMPDEST PUSH2 0x339 JUMP JUMPDEST PUSH1 0x40 MLOAD PUSH2 0x18F SWAP2 SWAP1 PUSH2 0x1932 JUMP JUMPDEST PUSH1 0x40 MLOAD DUP1 SWAP2 SUB SWAP1 RETURN JUMPDEST PUSH2 0x1A0 PUSH2 0x48D JUMP JUMPDEST PUSH1 0x40 MLOAD PUSH2 0x1AD SWAP2 SWAP1 PUSH2 0x1919 JUMP JUMPDEST PUSH1 0x40 MLOAD DUP1 SWAP2 SUB SWAP1 RETURN JUMPDEST PUSH2 0x1BE PUSH2 0x4B2 JUMP JUMPDEST STOP JUMPDEST PUSH2 0x1DA PUSH1 0x4 DUP1 CALLDATASIZE SUB DUP2 ADD SWAP1 PUSH2 0x1D5 SWAP2 SWAP1 PUSH2 0x19DF JUMP JUMPDEST PUSH2 0x4C5 JUMP JUMPDEST STOP JUMPDEST PUSH2 0x1E4 PUSH2 0x898 JUMP JUMPDEST PUSH1 0x40 MLOAD PUSH2 0x1F1 SWAP2 SWAP1 PUSH2 0x1A19 JUMP JUMPDEST PUSH1 0x40 MLOAD DUP1 SWAP2 SUB SWAP1 RETURN JUMPDEST PUSH2 0x214 PUSH1 0x4 DUP1 CALLDATASIZE SUB DUP2 ADD SWAP1 PUSH2 0x20F SWAP2 SWAP1 PUSH2 0x1A32 JUMP JUMPDEST PUSH2 0x8BF JUMP JUMPDEST STOP JUMPDEST PUSH2 0x230 PUSH1 0x4 DUP1 CALLDATASIZE SUB DUP2 ADD SWAP1 PUSH2 0x22B SWAP2 SWAP1 PUSH2 0x1A32 JUMP JUMPDEST PUSH2 0xB47 JUMP JUMPDEST STOP JUMPDEST PUSH2 0x24C PUSH1 0x4 DUP1 CALLDATASIZE SUB DUP2 ADD SWAP1 PUSH2 0x247 SWAP2 SWAP1 PUSH2 0x1A70 JUMP JUMPDEST PUSH2 0xE13 JUMP JUMPDEST PUSH1 0x40 MLOAD PUSH2 0x259 SWAP2 SWAP1 PUSH2 0x1932 JUMP JUMPDEST PUSH1 0x40 MLOAD DUP1 SWAP2 SUB SWAP1 RETURN JUMPDEST PUSH2 0x26A PUSH2 0xFBC JUMP JUMPDEST PUSH1 0x40 MLOAD PUSH2 0x277 SWAP2 SWAP1 PUSH2 0x1932 JUMP JUMPDEST PUSH1 0x40 MLOAD DUP1 SWAP2 SUB SWAP1 RETURN JUMPDEST PUSH2 0x288 PUSH2 0xFC2 JUMP JUMPDEST STOP JUMPDEST PUSH2 0x292 PUSH2 0x1260 JUMP JUMPDEST PUSH1 0x40 MLOAD PUSH2 0x29F SWAP2 SWAP1 PUSH2 0x1932 JUMP JUMPDEST PUSH1 0x40 MLOAD DUP1 SWAP2 SUB SWAP1 RETURN JUMPDEST PUSH2 0x2C2 PUSH1 0x4 DUP1 CALLDATASIZE SUB DUP2 ADD SWAP1 PUSH2 0x2BD SWAP2 SWAP1 PUSH2 0x19DF JUMP JUMPDEST PUSH2 0x1266 JUMP JUMPDEST STOP JUMPDEST PUSH2 0x2CC PUSH2 0x1639 JUMP JUMPDEST PUSH1 0x40 MLOAD PUSH2 0x2D9 SWAP2 SWAP1 PUSH2 0x1932 JUMP JUMPDEST PUSH1 0x40 MLOAD DUP1 SWAP2 SUB SWAP1 RETURN JUMPDEST PUSH2 0x2FC PUSH1 0x4 DUP1 CALLDATASIZE SUB DUP2 ADD SWAP1 PUSH2 0x2F7 SWAP2 SWAP1 PUSH2 0x198A JUMP JUMPDEST PUSH2 0x163E JUMP JUMPDEST STOP JUMPDEST PUSH0 PUSH0 PUSH1 0x4 SLOAD PUSH1 0x5 SLOAD SWAP2 POP SWAP2 POP SWAP1 SWAP2 JUMP JUMPDEST PUSH1 0x2 PUSH0 SWAP1 SLOAD SWAP1 PUSH2 0x100 EXP SWAP1 DIV PUSH20 0xFFFFFFFFFFFFFFFFFFFFFFFFFFFFFFFFFFFFFFFF AND DUP2 JUMP JUMPDEST PUSH1 0x5 SLOAD DUP2 JUMP JUMPDEST PUSH0 PUSH0 PUSH1 0x4 SLOAD EQ DUP1 PUSH2 0x34B JUMPI POP PUSH0 PUSH1 0x5 SLOAD EQ JUMPDEST ISZERO PUSH2 0x358 JUMPI PUSH0 SWAP1 POP PUSH2 0x488 JUMP JUMPDEST PUSH1 0x2 PUSH0 SWAP1 SLOAD SWAP1 PUSH2 0x100 EXP SWAP1 DIV PUSH20 0xFFFFFFFFFFFFFFFFFFFFFFFFFFFFFFFFFFFFFFFF AND PUSH20 0xFFFFFFFFFFFFFFFFFFFFFFFFFFFFFFFFFFFFFFFF AND DUP3 PUSH20 0xFFFFFFFFFFFFFFFFFFFFFFFFFFFFFFFFFFFFFFFF AND SUB PUSH2 0x3D6 JUMPI PUSH1 0x4 SLOAD PUSH8 0xDE0B6B3A7640000 PUSH1 0x5 SLOAD PUSH2 0x3C5 SWAP2 SWAP1 PUSH2 0x1ADB JUMP JUMPDEST PUSH2 0x3CF SWAP2 SWAP1 PUSH2 0x1B49 JUMP JUMPDEST SWAP1 POP PUSH2 0x487 JUMP JUMPDEST PUSH1 0x3 PUSH0 SWAP1 SLOAD SWAP1 PUSH2 0x100 EXP SWAP1 DIV PUSH20 0xFFFFFFFFFFFFFFFFFFFFFFFFFFFFFFFFFFFFFFFF AND PUSH20 0xFFFFFFFFFFFFFFFFFFFFFFFFFFFFFFFFFFFFFFFF AND DUP3 PUSH20 0xFFFFFFFFFFFFFFFFFFFFFFFFFFFFFFFFFFFFFFFF AND SUB PUSH2 0x454 JUMPI PUSH1 0x5 SLOAD PUSH8 0xDE0B6B3A7640000 PUSH1 0x4 SLOAD PUSH2 0x443 SWAP2 SWAP1 PUSH2 0x1ADB JUMP JUMPDEST PUSH2 0x44D SWAP2 SWAP1 PUSH2 0x1B49 JUMP JUMPDEST SWAP1 POP PUSH2 0x486 JUMP JUMPDEST PUSH1 0x40 MLOAD PUSH32 0xC1AB6DC100000000000000000000000000000000000000000000000000000000 DUP2 MSTORE PUSH1 0x4 ADD PUSH1 0x40 MLOAD DUP1 SWAP2 SUB SWAP1 REVERT JUMPDEST JUMPDEST JUMPDEST SWAP2 SWAP1 POP JUMP JUMPDEST PUSH1 0x3 PUSH0 SWAP1 SLOAD SWAP1 PUSH2 0x100 EXP SWAP1 DIV PUSH20 0xFFFFFFFFFFFFFFFFFFFFFFFFFFFFFFFFFFFFFFFF AND DUP2 JUMP JUMPDEST PUSH2 0x4BA PUSH2 0x16C2 JUMP JUMPDEST PUSH2 0x4C3 PUSH0 PUSH2 0x1749 JUMP JUMPDEST JUMP JUMPDEST PUSH2 0x4CD PUSH2 0x180A JUMP JUMPDEST PUSH0 DUP2 SUB PUSH2 0x506 JUMPI PUSH1 0x40 MLOAD PUSH32 0x1F2A200500000000000000000000000000000000000000000000000000000000 DUP2 MSTORE PUSH1 0x4 ADD PUSH1 0x40 MLOAD DUP1 SWAP2 SUB SWAP1 REVERT JUMPDEST PUSH0 PUSH1 0x4 SLOAD EQ DUP1 PUSH2 0x517 JUMPI POP PUSH0 PUSH1 0x5 SLOAD EQ JUMPDEST ISZERO PUSH2 0x54E JUMPI PUSH1 0x40 MLOAD PUSH32 0xBB55FD2700000000000000000000000000000000000000000000000000000000 DUP2 MSTORE PUSH1 0x4 ADD PUSH1 0x40 MLOAD DUP1 SWAP2 SUB SWAP1 REVERT JUMPDEST PUSH0 PUSH2 0x2710 PUSH1 0x1E PUSH2 0x2710 PUSH2 0x561 SWAP2 SWAP1 PUSH2 0x1B79 JUMP JUMPDEST DUP4 PUSH2 0x56C SWAP2 SWAP1 PUSH2 0x1ADB JUMP JUMPDEST PUSH2 0x576 SWAP2 SWAP1 PUSH2 0x1B49 JUMP JUMPDEST SWAP1 POP PUSH0 PUSH1 0x4 SLOAD DUP3 PUSH2 0x587 SWAP2 SWAP1 PUSH2 0x1ADB JUMP JUMPDEST SWAP1 POP PUSH0 DUP3 PUSH1 0x5 SLOAD PUSH2 0x598 SWAP2 SWAP1 PUSH2 0x1BAC JUMP JUMPDEST SWAP1 POP PUSH0 DUP2 DUP4 PUSH2 0x5A7 SWAP2 SWAP1 PUSH2 0x1B49 JUMP JUMPDEST SWAP1 POP PUSH0 DUP2 SUB PUSH2 0x5E2 JUMPI PUSH1 0x40 MLOAD PUSH32 0x5945EA5600000000000000000000000000000000000000000000000000000000 DUP2 MSTORE PUSH1 0x4 ADD PUSH1 0x40 MLOAD DUP1 SWAP2 SUB SWAP1 REVERT JUMPDEST PUSH1 0x4 SLOAD DUP2 LT PUSH2 0x61D JUMPI PUSH1 0x40 MLOAD PUSH32 0xBB55FD2700000000000000000000000000000000000000000000000000000000 DUP2 MSTORE PUSH1 0x4 ADD PUSH1 0x40 MLOAD DUP1 SWAP2 SUB SWAP1 REVERT JUMPDEST PUSH1 0x3 PUSH0 SWAP1 SLOAD SWAP1 PUSH2 0x100 EXP SWAP1 DIV PUSH20 0xFFFFFFFFFFFFFFFFFFFFFFFFFFFFFFFFFFFFFFFF AND PUSH20 0xFFFFFFFFFFFFFFFFFFFFFFFFFFFFFFFFFFFFFFFF AND PUSH4 0x23B872DD CALLER ADDRESS DUP9 PUSH1 0x40 MLOAD DUP5 PUSH4 0xFFFFFFFF AND PUSH1 0xE0 SHL DUP2 MSTORE PUSH1 0x4 ADD PUSH2 0x67B SWAP4 SWAP3 SWAP2 SWAP1 PUSH2 0x1BDF JUMP JUMPDEST PUSH1 0x20 PUSH1 0x40 MLOAD DUP1 DUP4 SUB DUP2 PUSH0 DUP8 GAS CALL ISZERO DUP1 ISZERO PUSH2 0x697 JUMPI RETURNDATASIZE PUSH0 PUSH0 RETURNDATACOPY RETURNDATASIZE PUSH0 REVERT JUMPDEST POP POP POP POP PUSH1 0x40 MLOAD RETURNDATASIZE PUSH1 0x1F NOT PUSH1 0x1F DUP3 ADD AND DUP3 ADD DUP1 PUSH1 0x40 MSTORE POP DUP2 ADD SWAP1 PUSH2 0x6BB SWAP2 SWAP1 PUSH2 0x1C49 JUMP JUMPDEST PUSH2 0x6F1 JUMPI PUSH1 0x40 MLOAD PUSH32 0x90B8EC1800000000000000000000000000000000000000000000000000000000 DUP2 MSTORE PUSH1 0x4 ADD PUSH1 0x40 MLOAD DUP1 SWAP2 SUB SWAP1 REVERT JUMPDEST PUSH1 0x2 PUSH0 SWAP1 SLOAD SWAP1 PUSH2 0x100 EXP SWAP1 DIV PUSH20 0xFFFFFFFFFFFFFFFFFFFFFFFFFFFFFFFFFFFFFFFF AND PUSH20 0xFFFFFFFFFFFFFFFFFFFFFFFFFFFFFFFFFFFFFFFF AND PUSH4 0xA9059CBB CALLER DUP4 PUSH1 0x40 MLOAD DUP4 PUSH4 0xFFFFFFFF AND PUSH1 0xE0 SHL DUP2 MSTORE PUSH1 0x4 ADD PUSH2 0x74D SWAP3 SWAP2 SWAP1 PUSH2 0x1C74 JUMP JUMPDEST PUSH1 0x20 PUSH1 0x40 MLOAD DUP1 DUP4 SUB DUP2 PUSH0 DUP8 GAS CALL ISZERO DUP1 ISZERO PUSH2 0x769 JUMPI RETURNDATASIZE PUSH0 PUSH0 RETURNDATACOPY RETURNDATASIZE PUSH0 REVERT JUMPDEST POP POP POP POP PUSH1 0x40 MLOAD RETURNDATASIZE PUSH1 0x1F NOT PUSH1 0x1F DUP3 ADD AND DUP3 ADD DUP1 PUSH1 0x40 MSTORE POP DUP2 ADD SWAP1 PUSH2 0x78D SWAP2 SWAP1 PUSH2 0x1C49 JUMP JUMPDEST PUSH2 0x7C3 JUMPI PUSH1 0x40 MLOAD PUSH32 0x90B8EC1800000000000000000000000000000000000000000000000000000000 DUP2 MSTORE PUSH1 0x4 ADD PUSH1 0x40 MLOAD DUP1 SWAP2 SUB SWAP1 REVERT JUMPDEST DUP5 PUSH1 0x5 PUSH0 DUP3 DUP3 SLOAD PUSH2 0x7D4 SWAP2 SWAP1 PUSH2 0x1BAC JUMP JUMPDEST SWAP3 POP POP DUP2 SWAP1 SSTORE POP DUP1 PUSH1 0x4 PUSH0 DUP3 DUP3 SLOAD PUSH2 0x7EC SWAP2 SWAP1 PUSH2 0x1B79 JUMP JUMPDEST SWAP3 POP POP DUP2 SWAP1 SSTORE POP CALLER PUSH20 0xFFFFFFFFFFFFFFFFFFFFFFFFFFFFFFFFFFFFFFFF AND PUSH32 0xAD56699D0F375866EB895ED27203058A36A713382AADED78EB6B67DA266D4332 PUSH1 0x3 PUSH0 SWAP1 SLOAD SWAP1 PUSH2 0x100 EXP SWAP1 DIV PUSH20 0xFFFFFFFFFFFFFFFFFFFFFFFFFFFFFFFFFFFFFFFF AND PUSH1 0x2 PUSH0 SWAP1 SLOAD SWAP1 PUSH2 0x100 EXP SWAP1 DIV PUSH20 0xFFFFFFFFFFFFFFFFFFFFFFFFFFFFFFFFFFFFFFFF AND DUP9 DUP6 PUSH1 0x40 MLOAD PUSH2 0x881 SWAP5 SWAP4 SWAP3 SWAP2 SWAP1 PUSH2 0x1C9B JUMP JUMPDEST PUSH1 0x40 MLOAD DUP1 SWAP2 SUB SWAP1 LOG2 POP POP POP POP PUSH2 0x895 PUSH2 0x1850 JUMP JUMPDEST POP JUMP JUMPDEST PUSH0 PUSH0 PUSH0 SWAP1 SLOAD SWAP1 PUSH2 0x100 EXP SWAP1 DIV PUSH20 0xFFFFFFFFFFFFFFFFFFFFFFFFFFFFFFFFFFFFFFFF AND SWAP1 POP SWAP1 JUMP JUMPDEST PUSH2 0x8C7 PUSH2 0x16C2 JUMP JUMPDEST PUSH2 0x8CF PUSH2 0x180A JUMP JUMPDEST PUSH0 DUP3 EQ DUP1 PUSH2 0x8DC JUMPI POP PUSH0 DUP2 EQ JUMPDEST ISZERO PUSH2 0x913 JUMPI PUSH1 0x40 MLOAD PUSH32 0x1F2A200500000000000000000000000000000000000000000000000000000000 DUP2 MSTORE PUSH1 0x4 ADD PUSH1 0x40 MLOAD DUP1 SWAP2 SUB SWAP1 REVERT JUMPDEST PUSH1 0x2 PUSH0 SWAP1 SLOAD SWAP1 PUSH2 0x100 EXP SWAP1 DIV PUSH20 0xFFFFFFFFFFFFFFFFFFFFFFFFFFFFFFFFFFFFFFFF AND PUSH20 0xFFFFFFFFFFFFFFFFFFFFFFFFFFFFFFFFFFFFFFFF AND PUSH4 0x23B872DD CALLER ADDRESS DUP6 PUSH1 0x40 MLOAD DUP5 PUSH4 0xFFFFFFFF AND PUSH1 0xE0 SHL DUP2 MSTORE PUSH1 0x4 ADD PUSH2 0x971 SWAP4 SWAP3 SWAP2 SWAP1 PUSH2 0x1BDF JUMP JUMPDEST PUSH1 0x20 PUSH1 0x40 MLOAD DUP1 DUP4 SUB DUP2 PUSH0 DUP8 GAS CALL ISZERO DUP1 ISZERO PUSH2 0x98D JUMPI RETURNDATASIZE PUSH0 PUSH0 RETURNDATACOPY RETURNDATASIZE PUSH0 REVERT JUMPDEST POP POP POP POP PUSH1 0x40 MLOAD RETURNDATASIZE PUSH1 0x1F NOT PUSH1 0x1F DUP3 ADD AND DUP3 ADD DUP1 PUSH1 0x40 MSTORE POP DUP2 ADD SWAP1 PUSH2 0x9B1 SWAP2 SWAP1 PUSH2 0x1C49 JUMP JUMPDEST PUSH2 0x9E7 JUMPI PUSH1 0x40 MLOAD PUSH32 0x90B8EC1800000000000000000000000000000000000000000000000000000000 DUP2 MSTORE PUSH1 0x4 ADD PUSH1 0x40 MLOAD DUP1 SWAP2 SUB SWAP1 REVERT JUMPDEST PUSH1 0x3 PUSH0 SWAP1 SLOAD SWAP1 PUSH2 0x100 EXP SWAP1 DIV PUSH20 0xFFFFFFFFFFFFFFFFFFFFFFFFFFFFFFFFFFFFFFFF AND PUSH20 0xFFFFFFFFFFFFFFFFFFFFFFFFFFFFFFFFFFFFFFFF AND PUSH4 0x23B872DD CALLER ADDRESS DUP5 PUSH1 0x40 MLOAD DUP5 PUSH4 0xFFFFFFFF AND PUSH1 0xE0 SHL DUP2 MSTORE PUSH1 0x4 ADD PUSH2 0xA45 SWAP4 SWAP3 SWAP2 SWAP1 PUSH2 0x1BDF JUMP JUMPDEST PUSH1 0x20 PUSH1 0x40 MLOAD DUP1 DUP4 SUB DUP2 PUSH0 DUP8 GAS CALL ISZERO DUP1 ISZERO PUSH2 0xA61 JUMPI RETURNDATASIZE PUSH0 PUSH0 RETURNDATACOPY RETURNDATASIZE PUSH0 REVERT JUMPDEST POP POP POP POP PUSH1 0x40 MLOAD RETURNDATASIZE PUSH1 0x1F NOT PUSH1 0x1F DUP3 ADD AND DUP3 ADD DUP1 PUSH1 0x40 MSTORE POP DUP2 ADD SWAP1 PUSH2 0xA85 SWAP2 SWAP1 PUSH2 0x1C49 JUMP JUMPDEST PUSH2 0xABB JUMPI PUSH1 0x40 MLOAD PUSH32 0x90B8EC1800000000000000000000000000000000000000000000000000000000 DUP2 MSTORE PUSH1 0x4 ADD PUSH1 0x40 MLOAD DUP1 SWAP2 SUB SWAP1 REVERT JUMPDEST DUP2 PUSH1 0x4 PUSH0 DUP3 DUP3 SLOAD PUSH2 0xACC SWAP2 SWAP1 PUSH2 0x1BAC JUMP JUMPDEST SWAP3 POP POP DUP2 SWAP1 SSTORE POP DUP1 PUSH1 0x5 PUSH0 DUP3 DUP3 SLOAD PUSH2 0xAE4 SWAP2 SWAP1 PUSH2 0x1BAC JUMP JUMPDEST SWAP3 POP POP DUP2 SWAP1 SSTORE POP CALLER PUSH20 0xFFFFFFFFFFFFFFFFFFFFFFFFFFFFFFFFFFFFFFFF AND PUSH32 0xAC1D76749E5447B7B16F5AB61447E1BD502F3BB4807AF3B28E620D1700A6EE45 DUP4 DUP4 PUSH1 0x40 MLOAD PUSH2 0xB33 SWAP3 SWAP2 SWAP1 PUSH2 0x1878 JUMP JUMPDEST PUSH1 0x40 MLOAD DUP1 SWAP2 SUB SWAP1 LOG2 PUSH2 0xB43 PUSH2 0x1850 JUMP JUMPDEST POP POP JUMP JUMPDEST PUSH2 0xB4F PUSH2 0x16C2 JUMP JUMPDEST PUSH2 0xB57 PUSH2 0x180A JUMP JUMPDEST PUSH0 DUP3 EQ DUP1 PUSH2 0xB64 JUMPI POP PUSH0 DUP2 EQ JUMPDEST ISZERO PUSH2 0xB9B JUMPI PUSH1 0x40 MLOAD PUSH32 0x1F2A200500000000000000000000000000000000000000000000000000000000 DUP2 MSTORE PUSH1 0x4 ADD PUSH1 0x40 MLOAD DUP1 SWAP2 SUB SWAP1 REVERT JUMPDEST PUSH1 0x4 SLOAD DUP3 GT DUP1 PUSH2 0xBAC JUMPI POP PUSH1 0x5 SLOAD DUP2 GT JUMPDEST ISZERO PUSH2 0xBE3 JUMPI PUSH1 0x40 MLOAD PUSH32 0xBB55FD2700000000000000000000000000000000000000000000000000000000 DUP2 MSTORE PUSH1 0x4 ADD PUSH1 0x40 MLOAD DUP1 SWAP2 SUB SWAP1 REVERT JUMPDEST PUSH1 0x2 PUSH0 SWAP1 SLOAD SWAP1 PUSH2 0x100 EXP SWAP1 DIV PUSH20 0xFFFFFFFFFFFFFFFFFFFFFFFFFFFFFFFFFFFFFFFF AND PUSH20 0xFFFFFFFFFFFFFFFFFFFFFFFFFFFFFFFFFFFFFFFF AND PUSH4 0xA9059CBB CALLER DUP5 PUSH1 0x40 MLOAD DUP4 PUSH4 0xFFFFFFFF AND PUSH1 0xE0 SHL DUP2 MSTORE PUSH1 0x4 ADD PUSH2 0xC3F SWAP3 SWAP2 SWAP1 PUSH2 0x1C74 JUMP JUMPDEST PUSH1 0x20 PUSH1 0x40 MLOAD DUP1 DUP4 SUB DUP2 PUSH0 DUP8 GAS CALL ISZERO DUP1 ISZERO PUSH2 0xC5B JUMPI RETURNDATASIZE PUSH0 PUSH0 RETURNDATACOPY RETURNDATASIZE PUSH0 REVERT JUMPDEST POP POP POP POP PUSH1 0x40 MLOAD RETURNDATASIZE PUSH1 0x1F NOT PUSH1 0x1F DUP3 ADD AND DUP3 ADD DUP1 PUSH1 0x40 MSTORE POP DUP2 ADD SWAP1 PUSH2 0xC7F SWAP2 SWAP1 PUSH2 0x1C49 JUMP JUMPDEST PUSH2 0xCB5 JUMPI PUSH1 0x40 MLOAD PUSH32 0x90B8EC1800000000000000000000000000000000000000000000000000000000 DUP2 MSTORE PUSH1 0x4 ADD PUSH1 0x40 MLOAD DUP1 SWAP2 SUB SWAP1 REVERT JUMPDEST PUSH1 0x3 PUSH0 SWAP1 SLOAD SWAP1 PUSH2 0x100 EXP SWAP1 DIV PUSH20 0xFFFFFFFFFFFFFFFFFFFFFFFFFFFFFFFFFFFFFFFF AND PUSH20 0xFFFFFFFFFFFFFFFFFFFFFFFFFFFFFFFFFFFFFFFF AND PUSH4 0xA9059CBB CALLER DUP4 PUSH1 0x40 MLOAD DUP4 PUSH4 0xFFFFFFFF AND PUSH1 0xE0 SHL DUP2 MSTORE PUSH1 0x4 ADD PUSH2 0xD11 SWAP3 SWAP2 SWAP1 PUSH2 0x1C74 JUMP JUMPDEST PUSH1 0x20 PUSH1 0x40 MLOAD DUP1 DUP4 SUB DUP2 PUSH0 DUP8 GAS CALL ISZERO DUP1 ISZERO PUSH2 0xD2D JUMPI RETURNDATASIZE PUSH0 PUSH0 RETURNDATACOPY RETURNDATASIZE PUSH0 REVERT JUMPDEST POP POP POP POP PUSH1 0x40 MLOAD RETURNDATASIZE PUSH1 0x1F NOT PUSH1 0x1F DUP3 ADD AND DUP3 ADD DUP1 PUSH1 0x40 MSTORE POP DUP2 ADD SWAP1 PUSH2 0xD51 SWAP2 SWAP1 PUSH2 0x1C49 JUMP JUMPDEST PUSH2 0xD87 JUMPI PUSH1 0x40 MLOAD PUSH32 0x90B8EC1800000000000000000000000000000000000000000000000000000000 DUP2 MSTORE PUSH1 0x4 ADD PUSH1 0x40 MLOAD DUP1 SWAP2 SUB SWAP1 REVERT JUMPDEST DUP2 PUSH1 0x4 PUSH0 DUP3 DUP3 SLOAD PUSH2 0xD98 SWAP2 SWAP1 PUSH2 0x1B79 JUMP JUMPDEST SWAP3 POP POP DUP2 SWAP1 SSTORE POP DUP1 PUSH1 0x5 PUSH0 DUP3 DUP3 SLOAD PUSH2 0xDB0 SWAP2 SWAP1 PUSH2 0x1B79 JUMP JUMPDEST SWAP3 POP POP DUP2 SWAP1 SSTORE POP CALLER PUSH20 0xFFFFFFFFFFFFFFFFFFFFFFFFFFFFFFFFFFFFFFFF AND PUSH32 0x96CD817C6329656790EF8FBA7675405193677D39619571282F5E21F3A98CD059 DUP4 DUP4 PUSH1 0x40 MLOAD PUSH2 0xDFF SWAP3 SWAP2 SWAP1 PUSH2 0x1878 JUMP JUMPDEST PUSH1 0x40 MLOAD DUP1 SWAP2 SUB SWAP1 LOG2 PUSH2 0xE0F PUSH2 0x1850 JUMP JUMPDEST POP POP JUMP JUMPDEST PUSH0 PUSH0 DUP3 SUB PUSH2 0xE23 JUMPI PUSH0 SWAP1 POP PUSH2 0xFB6 JUMP JUMPDEST PUSH0 PUSH1 0x4 SLOAD EQ DUP1 PUSH2 0xE34 JUMPI POP PUSH0 PUSH1 0x5 SLOAD EQ JUMPDEST ISZERO PUSH2 0xE41 JUMPI PUSH0 SWAP1 POP PUSH2 0xFB6 JUMP JUMPDEST PUSH0 PUSH2 0x2710 PUSH1 0x1E PUSH2 0x2710 PUSH2 0xE54 SWAP2 SWAP1 PUSH2 0x1B79 JUMP JUMPDEST DUP5 PUSH2 0xE5F SWAP2 SWAP1 PUSH2 0x1ADB JUMP JUMPDEST PUSH2 0xE69 SWAP2 SWAP1 PUSH2 0x1B49 JUMP JUMPDEST SWAP1 POP PUSH1 0x2 PUSH0 SWAP1 SLOAD SWAP1 PUSH2 0x100 EXP SWAP1 DIV PUSH20 0xFFFFFFFFFFFFFFFFFFFFFFFFFFFFFFFFFFFFFFFF AND PUSH20 0xFFFFFFFFFFFFFFFFFFFFFFFFFFFFFFFFFFFFFFFF AND DUP5 PUSH20 0xFFFFFFFFFFFFFFFFFFFFFFFFFFFFFFFFFFFFFFFF AND SUB PUSH2 0xEF6 JUMPI PUSH0 PUSH1 0x5 SLOAD DUP3 PUSH2 0xECE SWAP2 SWAP1 PUSH2 0x1ADB JUMP JUMPDEST SWAP1 POP PUSH0 DUP3 PUSH1 0x4 SLOAD PUSH2 0xEDF SWAP2 SWAP1 PUSH2 0x1BAC JUMP JUMPDEST SWAP1 POP DUP1 DUP3 PUSH2 0xEED SWAP2 SWAP1 PUSH2 0x1B49 JUMP JUMPDEST SWAP4 POP POP POP PUSH2 0xFB4 JUMP JUMPDEST PUSH1 0x3 PUSH0 SWAP1 SLOAD SWAP1 PUSH2 0x100 EXP SWAP1 DIV PUSH20 0xFFFFFFFFFFFFFFFFFFFFFFFFFFFFFFFFFFFFFFFF AND PUSH20 0xFFFFFFFFFFFFFFFFFFFFFFFFFFFFFFFFFFFFFFFF AND DUP5 PUSH20 0xFFFFFFFFFFFFFFFFFFFFFFFFFFFFFFFFFFFFFFFF AND SUB PUSH2 0xF81 JUMPI PUSH0 PUSH1 0x4 SLOAD DUP3 PUSH2 0xF59 SWAP2 SWAP1 PUSH2 0x1ADB JUMP JUMPDEST SWAP1 POP PUSH0 DUP3 PUSH1 0x5 SLOAD PUSH2 0xF6A SWAP2 SWAP1 PUSH2 0x1BAC JUMP JUMPDEST SWAP1 POP DUP1 DUP3 PUSH2 0xF78 SWAP2 SWAP1 PUSH2 0x1B49 JUMP JUMPDEST SWAP4 POP POP POP PUSH2 0xFB3 JUMP JUMPDEST PUSH1 0x40 MLOAD PUSH32 0xC1AB6DC100000000000000000000000000000000000000000000000000000000 DUP2 MSTORE PUSH1 0x4 ADD PUSH1 0x40 MLOAD DUP1 SWAP2 SUB SWAP1 REVERT JUMPDEST JUMPDEST POP JUMPDEST SWAP3 SWAP2 POP POP JUMP JUMPDEST PUSH2 0x2710 DUP2 JUMP JUMPDEST PUSH2 0xFCA PUSH2 0x16C2 JUMP JUMPDEST PUSH0 PUSH1 0x2 PUSH0 SWAP1 SLOAD SWAP1 PUSH2 0x100 EXP SWAP1 DIV PUSH20 0xFFFFFFFFFFFFFFFFFFFFFFFFFFFFFFFFFFFFFFFF AND PUSH20 0xFFFFFFFFFFFFFFFFFFFFFFFFFFFFFFFFFFFFFFFF AND PUSH4 0x70A08231 ADDRESS PUSH1 0x40 MLOAD DUP3 PUSH4 0xFFFFFFFF AND PUSH1 0xE0 SHL DUP2 MSTORE PUSH1 0x4 ADD PUSH2 0x1025 SWAP2 SWAP1 PUSH2 0x1A19 JUMP JUMPDEST PUSH1 0x20 PUSH1 0x40 MLOAD DUP1 DUP4 SUB DUP2 DUP7 GAS STATICCALL ISZERO DUP1 ISZERO PUSH2 0x1040 JUMPI RETURNDATASIZE PUSH0 PUSH0 RETURNDATACOPY RETURNDATASIZE PUSH0 REVERT JUMPDEST POP POP POP POP PUSH1 0x40 MLOAD RETURNDATASIZE PUSH1 0x1F NOT PUSH1 0x1F DUP3 ADD AND DUP3 ADD DUP1 PUSH1 0x40 MSTORE POP DUP2 ADD SWAP1 PUSH2 0x1064 SWAP2 SWAP1 PUSH2 0x1CF2 JUMP JUMPDEST SWAP1 POP PUSH0 PUSH1 0x3 PUSH0 SWAP1 SLOAD SWAP1 PUSH2 0x100 EXP SWAP1 DIV PUSH20 0xFFFFFFFFFFFFFFFFFFFFFFFFFFFFFFFFFFFFFFFF AND PUSH20 0xFFFFFFFFFFFFFFFFFFFFFFFFFFFFFFFFFFFFFFFF AND PUSH4 0x70A08231 ADDRESS PUSH1 0x40 MLOAD DUP3 PUSH4 0xFFFFFFFF AND PUSH1 0xE0 SHL DUP2 MSTORE PUSH1 0x4 ADD PUSH2 0x10C1 SWAP2 SWAP1 PUSH2 0x1A19 JUMP JUMPDEST PUSH1 0x20 PUSH1 0x40 MLOAD DUP1 DUP4 SUB DUP2 DUP7 GAS STATICCALL ISZERO DUP1 ISZERO PUSH2 0x10DC JUMPI RETURNDATASIZE PUSH0 PUSH0 RETURNDATACOPY RETURNDATASIZE PUSH0 REVERT JUMPDEST POP POP POP POP PUSH1 0x40 MLOAD RETURNDATASIZE PUSH1 0x1F NOT PUSH1 0x1F DUP3 ADD AND DUP3 ADD DUP1 PUSH1 0x40 MSTORE POP DUP2 ADD SWAP1 PUSH2 0x1100 SWAP2 SWAP1 PUSH2 0x1CF2 JUMP JUMPDEST SWAP1 POP PUSH0 DUP3 GT ISZERO PUSH2 0x11A8 JUMPI PUSH1 0x2 PUSH0 SWAP1 SLOAD SWAP1 PUSH2 0x100 EXP SWAP1 DIV PUSH20 0xFFFFFFFFFFFFFFFFFFFFFFFFFFFFFFFFFFFFFFFF AND PUSH20 0xFFFFFFFFFFFFFFFFFFFFFFFFFFFFFFFFFFFFFFFF AND PUSH4 0xA9059CBB CALLER DUP5 PUSH1 0x40 MLOAD DUP4 PUSH4 0xFFFFFFFF AND PUSH1 0xE0 SHL DUP2 MSTORE PUSH1 0x4 ADD PUSH2 0x1166 SWAP3 SWAP2 SWAP1 PUSH2 0x1C74 JUMP JUMPDEST PUSH1 0x20 PUSH1 0x40 MLOAD DUP1 DUP4 SUB DUP2 PUSH0 DUP8 GAS CALL ISZERO DUP1 ISZERO PUSH2 0x1182 JUMPI RETURNDATASIZE PUSH0 PUSH0 RETURNDATACOPY RETURNDATASIZE PUSH0 REVERT JUMPDEST POP POP POP POP PUSH1 0x40 MLOAD RETURNDATASIZE PUSH1 0x1F NOT PUSH1 0x1F DUP3 ADD AND DUP3 ADD DUP1 PUSH1 0x40 MSTORE POP DUP2 ADD SWAP1 PUSH2 0x11A6 SWAP2 SWAP1 PUSH2 0x1C49 JUMP JUMPDEST POP JUMPDEST PUSH0 DUP2 GT ISZERO PUSH2 0x124E JUMPI PUSH1 0x3 PUSH0 SWAP1 SLOAD SWAP1 PUSH2 0x100 EXP SWAP1 DIV PUSH20 0xFFFFFFFFFFFFFFFFFFFFFFFFFFFFFFFFFFFFFFFF AND PUSH20 0xFFFFFFFFFFFFFFFFFFFFFFFFFFFFFFFFFFFFFFFF AND PUSH4 0xA9059CBB CALLER DUP4 PUSH1 0x40 MLOAD DUP4 PUSH4 0xFFFFFFFF AND PUSH1 0xE0 SHL DUP2 MSTORE PUSH1 0x4 ADD PUSH2 0x120C SWAP3 SWAP2 SWAP1 PUSH2 0x1C74 JUMP JUMPDEST PUSH1 0x20 PUSH1 0x40 MLOAD DUP1 DUP4 SUB DUP2 PUSH0 DUP8 GAS CALL ISZERO DUP1 ISZERO PUSH2 0x1228 JUMPI RETURNDATASIZE PUSH0 PUSH0 RETURNDATACOPY RETURNDATASIZE PUSH0 REVERT JUMPDEST POP POP POP POP PUSH1 0x40 MLOAD RETURNDATASIZE PUSH1 0x1F NOT PUSH1 0x1F DUP3 ADD AND DUP3 ADD DUP1 PUSH1 0x40 MSTORE POP DUP2 ADD SWAP1 PUSH2 0x124C SWAP2 SWAP1 PUSH2 0x1C49 JUMP JUMPDEST POP JUMPDEST PUSH0 PUSH1 0x4 DUP2 SWAP1 SSTORE POP PUSH0 PUSH1 0x5 DUP2 SWAP1 SSTORE POP POP POP JUMP JUMPDEST PUSH1 0x4 SLOAD DUP2 JUMP JUMPDEST PUSH2 0x126E PUSH2 0x180A JUMP JUMPDEST PUSH0 DUP2 SUB PUSH2 0x12A7 JUMPI PUSH1 0x40 MLOAD PUSH32 0x1F2A200500000000000000000000000000000000000000000000000000000000 DUP2 MSTORE PUSH1 0x4 ADD PUSH1 0x40 MLOAD DUP1 SWAP2 SUB SWAP1 REVERT JUMPDEST PUSH0 PUSH1 0x4 SLOAD EQ DUP1 PUSH2 0x12B8 JUMPI POP PUSH0 PUSH1 0x5 SLOAD EQ JUMPDEST ISZERO PUSH2 0x12EF JUMPI PUSH1 0x40 MLOAD PUSH32 0xBB55FD2700000000000000000000000000000000000000000000000000000000 DUP2 MSTORE PUSH1 0x4 ADD PUSH1 0x40 MLOAD DUP1 SWAP2 SUB SWAP1 REVERT JUMPDEST PUSH0 PUSH2 0x2710 PUSH1 0x1E PUSH2 0x2710 PUSH2 0x1302 SWAP2 SWAP1 PUSH2 0x1B79 JUMP JUMPDEST DUP4 PUSH2 0x130D SWAP2 SWAP1 PUSH2 0x1ADB JUMP JUMPDEST PUSH2 0x1317 SWAP2 SWAP1 PUSH2 0x1B49 JUMP JUMPDEST SWAP1 POP PUSH0 PUSH1 0x5 SLOAD DUP3 PUSH2 0x1328 SWAP2 SWAP1 PUSH2 0x1ADB JUMP JUMPDEST SWAP1 POP PUSH0 DUP3 PUSH1 0x4 SLOAD PUSH2 0x1339 SWAP2 SWAP1 PUSH2 0x1BAC JUMP JUMPDEST SWAP1 POP PUSH0 DUP2 DUP4 PUSH2 0x1348 SWAP2 SWAP1 PUSH2 0x1B49 JUMP JUMPDEST SWAP1 POP PUSH0 DUP2 SUB PUSH2 0x1383 JUMPI PUSH1 0x40 MLOAD PUSH32 0x5945EA5600000000000000000000000000000000000000000000000000000000 DUP2 MSTORE PUSH1 0x4 ADD PUSH1 0x40 MLOAD DUP1 SWAP2 SUB SWAP1 REVERT JUMPDEST PUSH1 0x5 SLOAD DUP2 LT PUSH2 0x13BE JUMPI PUSH1 0x40 MLOAD PUSH32 0xBB55FD2700000000000000000000000000000000000000000000000000000000 DUP2 MSTORE PUSH1 0x4 ADD PUSH1 0x40 MLOAD DUP1 SWAP2 SUB SWAP1 REVERT JUMPDEST PUSH1 0x2 PUSH0 SWAP1 SLOAD SWAP1 PUSH2 0x100 EXP SWAP1 DIV PUSH20 0xFFFFFFFFFFFFFFFFFFFFFFFFFFFFFFFFFFFFFFFF AND PUSH20 0xFFFFFFFFFFFFFFFFFFFFFFFFFFFFFFFFFFFFFFFF AND PUSH4 0x23B872DD CALLER ADDRESS DUP9 PUSH1 0x40 MLOAD DUP5 PUSH4 0xFFFFFFFF AND PUSH1 0xE0 SHL DUP2 MSTORE PUSH1 0x4 ADD PUSH2 0x141C SWAP4 SWAP3 SWAP2 SWAP1 PUSH2 0x1BDF JUMP JUMPDEST PUSH1 0x20 PUSH1 0x40 MLOAD DUP1 DUP4 SUB DUP2 PUSH0 DUP8 GAS CALL ISZERO DUP1 ISZERO PUSH2 0x1438 JUMPI RETURNDATASIZE PUSH0 PUSH0 RETURNDATACOPY RETURNDATASIZE PUSH0 REVERT JUMPDEST POP POP POP POP PUSH1 0x40 MLOAD RETURNDATASIZE PUSH1 0x1F NOT PUSH1 0x1F DUP3 ADD AND DUP3 ADD DUP1 PUSH1 0x40 MSTORE POP DUP2 ADD SWAP1 PUSH2 0x145C SWAP2 SWAP1 PUSH2 0x1C49 JUMP JUMPDEST PUSH2 0x1492 JUMPI PUSH1 0x40 MLOAD PUSH32 0x90B8EC1800000000000000000000000000000000000000000000000000000000 DUP2 MSTORE PUSH1 0x4 ADD PUSH1 0x40 MLOAD DUP1 SWAP2 SUB SWAP1 REVERT JUMPDEST PUSH1 0x3 PUSH0 SWAP1 SLOAD SWAP1 PUSH2 0x100 EXP SWAP1 DIV PUSH20 0xFFFFFFFFFFFFFFFFFFFFFFFFFFFFFFFFFFFFFFFF AND PUSH20 0xFFFFFFFFFFFFFFFFFFFFFFFFFFFFFFFFFFFFFFFF AND PUSH4 0xA9059CBB CALLER DUP4 PUSH1 0x40 MLOAD DUP4 PUSH4 0xFFFFFFFF AND PUSH1 0xE0 SHL DUP2 MSTORE PUSH1 0x4 ADD PUSH2 0x14EE SWAP3 SWAP2 SWAP1 PUSH2 0x1C74 JUMP JUMPDEST PUSH1 0x20 PUSH1 0x40 MLOAD DUP1 DUP4 SUB DUP2 PUSH0 DUP8 GAS CALL ISZERO DUP1 ISZERO PUSH2 0x150A JUMPI RETURNDATASIZE PUSH0 PUSH0 RETURNDATACOPY RETURNDATASIZE PUSH0 REVERT JUMPDEST POP POP POP POP PUSH1 0x40 MLOAD RETURNDATASIZE PUSH1 0x1F NOT PUSH1 0x1F DUP3 ADD AND DUP3 ADD DUP1 PUSH1 0x40 MSTORE POP DUP2 ADD SWAP1 PUSH2 0x152E SWAP2 SWAP1 PUSH2 0x1C49 JUMP JUMPDEST PUSH2 0x1564 JUMPI PUSH1 0x40 MLOAD PUSH32 0x90B8EC1800000000000000000000000000000000000000000000000000000000 DUP2 MSTORE PUSH1 0x4 ADD PUSH1 0x40 MLOAD DUP1 SWAP2 SUB SWAP1 REVERT JUMPDEST DUP5 PUSH1 0x4 PUSH0 DUP3 DUP3 SLOAD PUSH2 0x1575 SWAP2 SWAP1 PUSH2 0x1BAC JUMP JUMPDEST SWAP3 POP POP DUP2 SWAP1 SSTORE POP DUP1 PUSH1 0x5 PUSH0 DUP3 DUP3 SLOAD PUSH2 0x158D SWAP2 SWAP1 PUSH2 0x1B79 JUMP JUMPDEST SWAP3 POP POP DUP2 SWAP1 SSTORE POP CALLER PUSH20 0xFFFFFFFFFFFFFFFFFFFFFFFFFFFFFFFFFFFFFFFF AND PUSH32 0xAD56699D0F375866EB895ED27203058A36A713382AADED78EB6B67DA266D4332 PUSH1 0x2 PUSH0 SWAP1 SLOAD SWAP1 PUSH2 0x100 EXP SWAP1 DIV PUSH20 0xFFFFFFFFFFFFFFFFFFFFFFFFFFFFFFFFFFFFFFFF AND PUSH1 0x3 PUSH0 SWAP1 SLOAD SWAP1 PUSH2 0x100 EXP SWAP1 DIV PUSH20 0xFFFFFFFFFFFFFFFFFFFFFFFFFFFFFFFFFFFFFFFF AND DUP9 DUP6 PUSH1 0x40 MLOAD PUSH2 0x1622 SWAP5 SWAP4 SWAP3 SWAP2 SWAP1 PUSH2 0x1C9B JUMP JUMPDEST PUSH1 0x40 MLOAD DUP1 SWAP2 SUB SWAP1 LOG2 POP POP POP POP PUSH2 0x1636 PUSH2 0x1850 JUMP JUMPDEST POP JUMP JUMPDEST PUSH1 0x1E DUP2 JUMP JUMPDEST PUSH2 0x1646 PUSH2 0x16C2 JUMP JUMPDEST PUSH0 PUSH20 0xFFFFFFFFFFFFFFFFFFFFFFFFFFFFFFFFFFFFFFFF AND DUP2 PUSH20 0xFFFFFFFFFFFFFFFFFFFFFFFFFFFFFFFFFFFFFFFF AND SUB PUSH2 0x16B6 JUMPI PUSH0 PUSH1 0x40 MLOAD PUSH32 0x1E4FBDF700000000000000000000000000000000000000000000000000000000 DUP2 MSTORE PUSH1 0x4 ADD PUSH2 0x16AD SWAP2 SWAP1 PUSH2 0x1A19 JUMP JUMPDEST PUSH1 0x40 MLOAD DUP1 SWAP2 SUB SWAP1 REVERT JUMPDEST PUSH2 0x16BF DUP2 PUSH2 0x1749 JUMP JUMPDEST POP JUMP JUMPDEST PUSH2 0x16CA PUSH2 0x1859 JUMP JUMPDEST PUSH20 0xFFFFFFFFFFFFFFFFFFFFFFFFFFFFFFFFFFFFFFFF AND PUSH2 0x16E8 PUSH2 0x898 JUMP JUMPDEST PUSH20 0xFFFFFFFFFFFFFFFFFFFFFFFFFFFFFFFFFFFFFFFF AND EQ PUSH2 0x1747 JUMPI PUSH2 0x170B PUSH2 0x1859 JUMP JUMPDEST PUSH1 0x40 MLOAD PUSH32 0x118CDAA700000000000000000000000000000000000000000000000000000000 DUP2 MSTORE PUSH1 0x4 ADD PUSH2 0x173E SWAP2 SWAP1 PUSH2 0x1A19 JUMP JUMPDEST PUSH1 0x40 MLOAD DUP1 SWAP2 SUB SWAP1 REVERT JUMPDEST JUMP JUMPDEST PUSH0 PUSH0 PUSH0 SWAP1 SLOAD SWAP1 PUSH2 0x100 EXP SWAP1 DIV PUSH20 0xFFFFFFFFFFFFFFFFFFFFFFFFFFFFFFFFFFFFFFFF AND SWAP1 POP DUP2 PUSH0 PUSH0 PUSH2 0x100 EXP DUP2 SLOAD DUP2 PUSH20 0xFFFFFFFFFFFFFFFFFFFFFFFFFFFFFFFFFFFFFFFF MUL NOT AND SWAP1 DUP4 PUSH20 0xFFFFFFFFFFFFFFFFFFFFFFFFFFFFFFFFFFFFFFFF AND MUL OR SWAP1 SSTORE POP DUP2 PUSH20 0xFFFFFFFFFFFFFFFFFFFFFFFFFFFFFFFFFFFFFFFF AND DUP2 PUSH20 0xFFFFFFFFFFFFFFFFFFFFFFFFFFFFFFFFFFFFFFFF AND PUSH32 0x8BE0079C531659141344CD1FD0A4F28419497F9722A3DAAFE3B4186F6B6457E0 PUSH1 0x40 MLOAD PUSH1 0x40 MLOAD DUP1 SWAP2 SUB SWAP1 LOG3 POP POP JUMP JUMPDEST PUSH1 0x2 PUSH1 0x1 SLOAD SUB PUSH2 0x1846 JUMPI PUSH1 0x40 MLOAD PUSH32 0x3EE5AEB500000000000000000000000000000000000000000000000000000000 DUP2 MSTORE PUSH1 0x4 ADD PUSH1 0x40 MLOAD DUP1 SWAP2 SUB SWAP1 REVERT JUMPDEST PUSH1 0x2 PUSH1 0x1 DUP2 SWAP1 SSTORE POP JUMP JUMPDEST PUSH1 0x1 DUP1 DUP2 SWAP1 SSTORE POP JUMP JUMPDEST PUSH0 CALLER SWAP1 POP SWAP1 JUMP JUMPDEST PUSH0 DUP2 SWAP1 POP SWAP2 SWAP1 POP JUMP JUMPDEST PUSH2 0x1872 DUP2 PUSH2 0x1860 JUMP JUMPDEST DUP3 MSTORE POP POP JUMP JUMPDEST PUSH0 PUSH1 0x40 DUP3 ADD SWAP1 POP PUSH2 0x188B PUSH0 DUP4 ADD DUP6 PUSH2 0x1869 JUMP JUMPDEST PUSH2 0x1898 PUSH1 0x20 DUP4 ADD DUP5 PUSH2 0x1869 JUMP JUMPDEST SWAP4 SWAP3 POP POP POP JUMP JUMPDEST PUSH0 PUSH20 0xFFFFFFFFFFFFFFFFFFFFFFFFFFFFFFFFFFFFFFFF DUP3 AND SWAP1 POP SWAP2 SWAP1 POP JUMP JUMPDEST PUSH0 DUP2 SWAP1 POP SWAP2 SWAP1 POP JUMP JUMPDEST PUSH0 PUSH2 0x18E1 PUSH2 0x18DC PUSH2 0x18D7 DUP5 PUSH2 0x189F JUMP JUMPDEST PUSH2 0x18BE JUMP JUMPDEST PUSH2 0x189F JUMP JUMPDEST SWAP1 POP SWAP2 SWAP1 POP JUMP JUMPDEST PUSH0 PUSH2 0x18F2 DUP3 PUSH2 0x18C7 JUMP JUMPDEST SWAP1 POP SWAP2 SWAP1 POP JUMP JUMPDEST PUSH0 PUSH2 0x1903 DUP3 PUSH2 0x18E8 JUMP JUMPDEST SWAP1 POP SWAP2 SWAP1 POP JUMP JUMPDEST PUSH2 0x1913 DUP2 PUSH2 0x18F9 JUMP JUMPDEST DUP3 MSTORE POP POP JUMP JUMPDEST PUSH0 PUSH1 0x20 DUP3 ADD SWAP1 POP PUSH2 0x192C PUSH0 DUP4 ADD DUP5 PUSH2 0x190A JUMP JUMPDEST SWAP3 SWAP2 POP POP JUMP JUMPDEST PUSH0 PUSH1 0x20 DUP3 ADD SWAP1 POP PUSH2 0x1945 PUSH0 DUP4 ADD DUP5 PUSH2 0x1869 JUMP JUMPDEST SWAP3 SWAP2 POP POP JUMP JUMPDEST PUSH0 PUSH0 REVERT JUMPDEST PUSH0 PUSH2 0x1959 DUP3 PUSH2 0x189F JUMP JUMPDEST SWAP1 POP SWAP2 SWAP1 POP JUMP JUMPDEST PUSH2 0x1969 DUP2 PUSH2 0x194F JUMP JUMPDEST DUP2 EQ PUSH2 0x1973 JUMPI PUSH0 PUSH0 REVERT JUMPDEST POP JUMP JUMPDEST PUSH0 DUP2 CALLDATALOAD SWAP1 POP PUSH2 0x1984 DUP2 PUSH2 0x1960 JUMP JUMPDEST SWAP3 SWAP2 POP POP JUMP JUMPDEST PUSH0 PUSH1 0x20 DUP3 DUP5 SUB SLT ISZERO PUSH2 0x199F JUMPI PUSH2 0x199E PUSH2 0x194B JUMP JUMPDEST JUMPDEST PUSH0 PUSH2 0x19AC DUP5 DUP3 DUP6 ADD PUSH2 0x1976 JUMP JUMPDEST SWAP2 POP POP SWAP3 SWAP2 POP POP JUMP JUMPDEST PUSH2 0x19BE DUP2 PUSH2 0x1860 JUMP JUMPDEST DUP2 EQ PUSH2 0x19C8 JUMPI PUSH0 PUSH0 REVERT JUMPDEST POP JUMP JUMPDEST PUSH0 DUP2 CALLDATALOAD SWAP1 POP PUSH2 0x19D9 DUP2 PUSH2 0x19B5 JUMP JUMPDEST SWAP3 SWAP2 POP POP JUMP JUMPDEST PUSH0 PUSH1 0x20 DUP3 DUP5 SUB SLT ISZERO PUSH2 0x19F4 JUMPI PUSH2 0x19F3 PUSH2 0x194B JUMP JUMPDEST JUMPDEST PUSH0 PUSH2 0x1A01 DUP5 DUP3 DUP6 ADD PUSH2 0x19CB JUMP JUMPDEST SWAP2 POP POP SWAP3 SWAP2 POP POP JUMP JUMPDEST PUSH2 0x1A13 DUP2 PUSH2 0x194F JUMP JUMPDEST DUP3 MSTORE POP POP JUMP JUMPDEST PUSH0 PUSH1 0x20 DUP3 ADD SWAP1 POP PUSH2 0x1A2C PUSH0 DUP4 ADD DUP5 PUSH2 0x1A0A JUMP JUMPDEST SWAP3 SWAP2 POP POP JUMP JUMPDEST PUSH0 PUSH0 PUSH1 0x40 DUP4 DUP6 SUB SLT ISZERO PUSH2 0x1A48 JUMPI PUSH2 0x1A47 PUSH2 0x194B JUMP JUMPDEST JUMPDEST PUSH0 PUSH2 0x1A55 DUP6 DUP3 DUP7 ADD PUSH2 0x19CB JUMP JUMPDEST SWAP3 POP POP PUSH1 0x20 PUSH2 0x1A66 DUP6 DUP3 DUP7 ADD PUSH2 0x19CB JUMP JUMPDEST SWAP2 POP POP SWAP3 POP SWAP3 SWAP1 POP JUMP JUMPDEST PUSH0 PUSH0 PUSH1 0x40 DUP4 DUP6 SUB SLT ISZERO PUSH2 0x1A86 JUMPI PUSH2 0x1A85 PUSH2 0x194B JUMP JUMPDEST JUMPDEST PUSH0 PUSH2 0x1A93 DUP6 DUP3 DUP7 ADD PUSH2 0x1976 JUMP JUMPDEST SWAP3 POP POP PUSH1 0x20 PUSH2 0x1AA4 DUP6 DUP3 DUP7 ADD PUSH2 0x19CB JUMP JUMPDEST SWAP2 POP POP SWAP3 POP SWAP3 SWAP1 POP JUMP JUMPDEST PUSH32 0x4E487B7100000000000000000000000000000000000000000000000000000000 PUSH0 MSTORE PUSH1 0x11 PUSH1 0x4 MSTORE PUSH1 0x24 PUSH0 REVERT JUMPDEST PUSH0 PUSH2 0x1AE5 DUP3 PUSH2 0x1860 JUMP JUMPDEST SWAP2 POP PUSH2 0x1AF0 DUP4 PUSH2 0x1860 JUMP JUMPDEST SWAP3 POP DUP3 DUP3 MUL PUSH2 0x1AFE DUP2 PUSH2 0x1860 JUMP JUMPDEST SWAP2 POP DUP3 DUP3 DIV DUP5 EQ DUP4 ISZERO OR PUSH2 0x1B15 JUMPI PUSH2 0x1B14 PUSH2 0x1AAE JUMP JUMPDEST JUMPDEST POP SWAP3 SWAP2 POP POP JUMP JUMPDEST PUSH32 0x4E487B7100000000000000000000000000000000000000000000000000000000 PUSH0 MSTORE PUSH1 0x12 PUSH1 0x4 MSTORE PUSH1 0x24 PUSH0 REVERT JUMPDEST PUSH0 PUSH2 0x1B53 DUP3 PUSH2 0x1860 JUMP JUMPDEST SWAP2 POP PUSH2 0x1B5E DUP4 PUSH2 0x1860 JUMP JUMPDEST SWAP3 POP DUP3 PUSH2 0x1B6E JUMPI PUSH2 0x1B6D PUSH2 0x1B1C JUMP JUMPDEST JUMPDEST DUP3 DUP3 DIV SWAP1 POP SWAP3 SWAP2 POP POP JUMP JUMPDEST PUSH0 PUSH2 0x1B83 DUP3 PUSH2 0x1860 JUMP JUMPDEST SWAP2 POP PUSH2 0x1B8E DUP4 PUSH2 0x1860 JUMP JUMPDEST SWAP3 POP DUP3 DUP3 SUB SWAP1 POP DUP2 DUP2 GT ISZERO PUSH2 0x1BA6 JUMPI PUSH2 0x1BA5 PUSH2 0x1AAE JUMP JUMPDEST JUMPDEST SWAP3 SWAP2 POP POP JUMP JUMPDEST PUSH0 PUSH2 0x1BB6 DUP3 PUSH2 0x1860 JUMP JUMPDEST SWAP2 POP PUSH2 0x1BC1 DUP4 PUSH2 0x1860 JUMP JUMPDEST SWAP3 POP DUP3 DUP3 ADD SWAP1 POP DUP1 DUP3 GT ISZERO PUSH2 0x1BD9 JUMPI PUSH2 0x1BD8 PUSH2 0x1AAE JUMP JUMPDEST JUMPDEST SWAP3 SWAP2 POP POP JUMP JUMPDEST PUSH0 PUSH1 0x60 DUP3 ADD SWAP1 POP PUSH2 0x1BF2 PUSH0 DUP4 ADD DUP7 PUSH2 0x1A0A JUMP JUMPDEST PUSH2 0x1BFF PUSH1 0x20 DUP4 ADD DUP6 PUSH2 0x1A0A JUMP JUMPDEST PUSH2 0x1C0C PUSH1 0x40 DUP4 ADD DUP5 PUSH2 0x1869 JUMP JUMPDEST SWAP5 SWAP4 POP POP POP POP JUMP JUMPDEST PUSH0 DUP2 ISZERO ISZERO SWAP1 POP SWAP2 SWAP1 POP JUMP JUMPDEST PUSH2 0x1C28 DUP2 PUSH2 0x1C14 JUMP JUMPDEST DUP2 EQ PUSH2 0x1C32 JUMPI PUSH0 PUSH0 REVERT JUMPDEST POP JUMP JUMPDEST PUSH0 DUP2 MLOAD SWAP1 POP PUSH2 0x1C43 DUP2 PUSH2 0x1C1F JUMP JUMPDEST SWAP3 SWAP2 POP POP JUMP JUMPDEST PUSH0 PUSH1 0x20 DUP3 DUP5 SUB SLT ISZERO PUSH2 0x1C5E JUMPI PUSH2 0x1C5D PUSH2 0x194B JUMP JUMPDEST JUMPDEST PUSH0 PUSH2 0x1C6B DUP5 DUP3 DUP6 ADD PUSH2 0x1C35 JUMP JUMPDEST SWAP2 POP POP SWAP3 SWAP2 POP POP JUMP JUMPDEST PUSH0 PUSH1 0x40 DUP3 ADD SWAP1 POP PUSH2 0x1C87 PUSH0 DUP4 ADD DUP6 PUSH2 0x1A0A JUMP JUMPDEST PUSH2 0x1C94 PUSH1 0x20 DUP4 ADD DUP5 PUSH2 0x1869 JUMP JUMPDEST SWAP4 SWAP3 POP POP POP JUMP JUMPDEST PUSH0 PUSH1 0x80 DUP3 ADD SWAP1 POP PUSH2 0x1CAE PUSH0 DUP4 ADD DUP8 PUSH2 0x1A0A JUMP JUMPDEST PUSH2 0x1CBB PUSH1 0x20 DUP4 ADD DUP7 PUSH2 0x1A0A JUMP JUMPDEST PUSH2 0x1CC8 PUSH1 0x40 DUP4 ADD DUP6 PUSH2 0x1869 JUMP JUMPDEST PUSH2 0x1CD5 PUSH1 0x60 DUP4 ADD DUP5 PUSH2 0x1869 JUMP JUMPDEST SWAP6 SWAP5 POP POP POP POP POP JUMP JUMPDEST PUSH0 DUP2 MLOAD SWAP1 POP PUSH2 0x1CEC DUP2 PUSH2 0x19B5 JUMP JUMPDEST SWAP3 SWAP2 POP POP JUMP JUMPDEST PUSH0 PUSH1 0x20 DUP3 DUP5 SUB SLT ISZERO PUSH2 0x1D07 JUMPI PUSH2 0x1D06 PUSH2 0x194B JUMP JUMPDEST JUMPDEST PUSH0 PUSH2 0x1D14 DUP5 DUP3 DUP6 ADD PUSH2 0x1CDE JUMP JUMPDEST SWAP2 POP POP SWAP3 SWAP2 POP POP JUMP INVALID LOG2 PUSH5 0x6970667358 0x22 SLT KECCAK256 PUSH32 0xC61F5B4E505FEF271389CD12F97D3FAE6FAE2DABA1B226362DC0D05B72B9FD64 PUSH20 0x6F6C634300081E00330000000000000000000000 "
				},
				"gasEstimates": {
					"creation": {
						"codeDepositCost": "1501400",
						"executionCost": "infinite",
						"totalCost": "infinite"
					},
					"external": {
						"FEE_DENOMINATOR()": "414",
						"FEE_PERCENT()": "413",
						"addLiquidity(uint256,uint256)": "infinite",
						"emergencyWithdraw()": "infinite",
						"getAmountOut(address,uint256)": "infinite",
						"getPrice(address)": "infinite",
						"getReserves()": "infinite",
						"owner()": "2603",
						"removeLiquidity(uint256,uint256)": "infinite",
						"renounceOwnership()": "infinite",
						"reserveA()": "2469",
						"reserveB()": "2493",
						"swapAforB(uint256)": "infinite",
						"swapBforA(uint256)": "infinite",
						"tokenA()": "infinite",
						"tokenB()": "infinite",
						"transferOwnership(address)": "infinite"
					}
				},
				"methodIdentifiers": {
					"FEE_DENOMINATOR()": "d73792a9",
					"FEE_PERCENT()": "eaf98d23",
					"addLiquidity(uint256,uint256)": "9cd441da",
					"emergencyWithdraw()": "db2e21bc",
					"getAmountOut(address,uint256)": "ca706bcf",
					"getPrice(address)": "41976e09",
					"getReserves()": "0902f1ac",
					"owner()": "8da5cb5b",
					"removeLiquidity(uint256,uint256)": "9d7de6b3",
					"renounceOwnership()": "715018a6",
					"reserveA()": "dc5fa6c5",
					"reserveB()": "19e36f3b",
					"swapAforB(uint256)": "e4f1f70a",
					"swapBforA(uint256)": "8014a7aa",
					"tokenA()": "0fc63d10",
					"tokenB()": "5f64b55b",
					"transferOwnership(address)": "f2fde38b"
				}
			},
			"storageLayout": {
				"storage": [
					{
						"astId": 8,
						"contract": "SimpleDex.sol:SimpleDEX",
						"label": "_owner",
						"offset": 0,
						"slot": "0",
						"type": "t_address"
					},
					{
						"astId": 266,
						"contract": "SimpleDex.sol:SimpleDEX",
						"label": "_status",
						"offset": 0,
						"slot": "1",
						"type": "t_uint256"
					},
					{
						"astId": 336,
						"contract": "SimpleDex.sol:SimpleDEX",
						"label": "tokenA",
						"offset": 0,
						"slot": "2",
						"type": "t_contract(IERC20)225"
					},
					{
						"astId": 339,
						"contract": "SimpleDex.sol:SimpleDEX",
						"label": "tokenB",
						"offset": 0,
						"slot": "3",
						"type": "t_contract(IERC20)225"
					},
					{
						"astId": 341,
						"contract": "SimpleDex.sol:SimpleDEX",
						"label": "reserveA",
						"offset": 0,
						"slot": "4",
						"type": "t_uint256"
					},
					{
						"astId": 343,
						"contract": "SimpleDex.sol:SimpleDEX",
						"label": "reserveB",
						"offset": 0,
						"slot": "5",
						"type": "t_uint256"
					}
				],
				"types": {
					"t_address": {
						"encoding": "inplace",
						"label": "address",
						"numberOfBytes": "20"
					},
					"t_contract(IERC20)225": {
						"encoding": "inplace",
						"label": "contract IERC20",
						"numberOfBytes": "20"
					},
					"t_uint256": {
						"encoding": "inplace",
						"label": "uint256",
						"numberOfBytes": "32"
					}
				}
			},
			"userdoc": {
				"kind": "user",
				"methods": {},
				"version": 1
			}
		}
	}
}